:100000000C942A000C94E7020C9447000C944700CF
:100010000C9447000C9447000C9447000C94400447
:100020000C9447000C9447000C9447000C94470034
:100030000C9447000C9447000C9447000C94470024
:100040000C9447000C9447000C9447000C94470014
:100050000C94470011241FBECFE5D8E0DEBFCDBF12
:1000600010E0A0E6B0E0E6EAFAE102C005900D92E9
:10007000AE36B107D9F713E0AEE6B0E001C01D928D
:10008000A535B107E1F70E9420030C94510D0C94A3
:100090000000EF92FF920F931F93FC010580F68101
:1000A000E02DE680F7808701045F1F4FC8010E94A2
:1000B000BF028FE990E0B8010E94610220E0E09168
:1000C0006E00F0916F00D70156969C918689981723
:1000D00008F021E0822F1F910F91FF90EF9008957B
:1000E000FF920F931F93CF93DF9399E0F92E21C0D6
:1000F000F894E091A400F091A50006811781C80151
:100100000C960E94BF027894E8012296CE010E94CC
:10011000BF02F801968980917000891710F49093BE
:1001200070009F9DC001112489589F4FBE010E94FD
:10013000610280919F008823D9F60E942F082091A8
:10014000710030917200821B930B90937400809326
:10015000730089E0F82E53C0019690937600809347
:100160007500215030403093740020937300892B28
:1001700009F03EC020919B0030919C0080919D0031
:1001800090919E0090939C0080939B0030939E00E2
:1001900020939D002DC00580F681E02DC681D7817A
:1001A00020917500309176008A819B81281739074C
:1001B00030F1F8948E010E5F1F4FC8010E94BF02FC
:1001C0008C899D89892B21F0CE010C960E94BF025B
:1001D00078949E8980917000891710F49093700034
:1001E0009F9DC001112489589F4FB8010E94610250
:1001F000E0919B00F0919C008081882361F6209122
:1002000073003091740080917500909176002115F3
:10021000310509F0A1CF9093720080937100909105
:10022000700029E006C0992319F41092700032C0C2
:100230009150929FD0011124A958BF4F8C918823CF
:1002400091F3909370001196ED91FC9112970280BA
:10025000F381E02D1296FC93EE931197CD01039656
:10026000E817F90731F48281938112969C938E935B
:1002700011971196ED91FC9112970680F781E02D70
:10028000F0936F00E0936E0020813181CF01678988
:10029000F9010995DF91CF911F910F91FF9008957A
:1002A0000F931F93CF93DF93EB0100917500109193
:1002B0007600080F191F80916E0090916F000296D2
:1002C0000E94BF02E0916E00F0916F0013830283E1
:1002D0008091750090917600BF016E5F7F4F081787
:1002E000190728F480919D0090919E0004C0809190
:1002F0009B0090919C000E948A02209749F0609197
:100300006E0070916F00645F7F4FCE010E948A0281
:10031000DF91CF911F910F910895AF92BF92CF922D
:10032000DF92EF92FF920F931F93CF93DF936C01B5
:10033000B62EA42E8AE190E00E941702EC010097ED
:1003400011F48FEF59C080916E0090916F00892B4E
:1003500021F5D0936F00C0936E0087E790E00E9474
:100360004D0280E890E00E944D0229E8E22E20E054
:10037000F22EC7010E944D0202E910E0C8010E945E
:100380004D028FE990E00E944D02F0929C00E092B5
:100390009B0010939E0000939D00EB2CBB2011F05E
:1003A000EE24E394198E188EEE8AAF8AFE01C19274
:1003B000D1928F01CF010E945D02CE010C960E9466
:1003C0005D02D987C887DB8BCA8B83E090E08E19EA
:1003D00091099D878C879E8980917000891710F400
:1003E0009093700089E0989FC001112489589F4F15
:1003F000B8010E94610281E0DF91CF911F910F91BE
:10040000FF90EF90DF90CF90BF90AF900895089548
:100410001092A9001092A800089528E532E080917A
:10042000A8009091A900281B390BC90108950F93CA
:100430001F93CF93DF938C010E9429088091A8001D
:100440009091A9009801280F391F42E02835340700
:1004500058F48217930740F4EC01C655DF4F3093F0
:10046000A9002093A80002C0C0E0D0E00E94820A48
:10047000CE01DF91CF911F910F9108958A98929AA2
:1004800080E48BBF7894089517BA8FEF88BB8ABB3E
:10049000089586B308958BBB0895FC019C012D5FE0
:1004A0003F4F328321838FEF9FEF94838383368383
:1004B00025833087278310820895FC0111861086DA
:1004C0000895CF93DF93AC01DB01EC0129813A81E0
:1004D000F9018281938113969C938E93129789815F
:1004E0009A8115969C938E9314970280F381E02D48
:1004F00075836483E9017B836A83FA017283618374
:1005000019965C934E93189780818F5F8083DF915B
:10051000CF910895CF93DF939C01EB0148815981DE
:100520008FEF4F3F580721F4F901A781B08510C024
:10053000D901139604C012960D90BC91A02D12966D
:10054000ED91FC911397808191814817590798F795
:100550001296ED91FC911397FB83EA83D583C483B4
:10056000BD83AC831396DC93CE931297398728878B
:10057000F90180818F5F8083DF91CF910895CF93C0
:10058000DF93DC011296ED91FC91139714968D91F7
:100590009C911597958384831496CD91DC91159742
:1005A000FB83EA831896ED91FC91199781819281E2
:1005B0008A179B0711F4D283C18319961C921E924D
:1005C0001897808181508083DF91CF9108951F9289
:1005D0000F920FB60F9211242F933F934F935F9377
:1005E0006F937F938F939F93AF93BF93EF93FF93FB
:1005F000DF93CF930F92CDB7DEB70E944902898374
:100600008091530390915403BE016F5F7F4F4FEF72
:100610005FEF20E00E94CB060F90CF91DF91FF911A
:10062000EF91BF91AF919F918F917F916F915F916A
:100630004F913F912F910F900FBE0F901F901895E3
:10064000AF92BF92CF92DF92EF92FF920F930E94F0
:1006500044020E943E0280E593E060E670E045E5DA
:1006600050E020E030E001E0EE24FF24CC24DD2443
:10067000AA24BB240E94E60B81E062E00E94BE0730
:1006800090935403809353030E94070D80E090E001
:100690000F91FF90EF90DF90CF90BF90AF900895B3
:1006A0000F931F93DF93CF930F92CDB7DEB78E01D9
:1006B0000F5F1F4F8091530390915403B8014FEF88
:1006C0005FEF0E94C60489810E944B02F3CFFC01B8
:1006D00091E1908322E2229383E382936293729367
:1006E000129280E88293129282E0829383E0829356
:1006F00084E0829385E0829386E0829387E0829310
:1007000088E0829389E0829380E18293929382E1F0
:10071000829383E1829384E1829385E1829386E1EF
:10072000829387E1829388E1829389E1829380E2D8
:10073000829381E28293229383E282934293529343
:1007400086E2829387E2829388E2829389E28293AF
:1007500080E3829381E382933197CF0108951BBC9C
:100760008CE78ABD8BE08EBD89B7806189BFA0917F
:100770000203B0910303CD91CDBFDD91DEBFFF91A8
:10078000EF91DF91CF91BF91AF919F918F917F9129
:100790006F915F914F913F912F911F910F91FF901A
:1007A000EF90DF90CF90BF90AF909F908F907F9011
:1007B0006F905F904F903F902F901F900F900FBEC3
:1007C0000F90089581E0089508950F920FB6F89460
:1007D0000F921F9211242F923F924F925F926F922D
:1007E0007F928F929F92AF92BF92CF92DF92EF92C1
:1007F000FF920F931F932F933F934F935F936F93AA
:100800007F938F939F93AF93BF93CF93DF93EF9398
:10081000FF93A0910203B09103030DB60D920EB6A3
:100820000D920E948A090E944308A0910203B09190
:100830000303CD91CDBFDD91DEBFFF91EF91DF913D
:10084000CF91BF91AF919F918F917F916F915F9168
:100850004F913F912F911F910F91FF90EF90DF905B
:10086000CF90BF90AF909F908F907F906F905F9050
:100870004F903F902F901F900F900FBE0F900895B4
:100880000E94E50318950F920FB6F8940F921F92ED
:1008900011242F923F924F925F926F927F928F928C
:1008A0009F92AF92BF92CF92DF92EF92FF920F93FF
:1008B0001F932F933F934F935F936F937F938F93E8
:1008C0009F93AF93BF93CF93DF93EF93FF93A09149
:1008D0000203B09103030DB60D920EB60D920E9465
:1008E0004308A0910203B0910303CD91CDBFDD91E8
:1008F000DEBFFF91EF91DF91CF91BF91AF919F91BB
:100900008F917F916F915F914F913F912F911F91A7
:100910000F91FF90EF90DF90CF90BF90AF909F909E
:100920008F907F906F905F904F903F902F901F908F
:100930000F900FBE0F900895FC010FB6F8940F9220
:10094000828D0F900FBE0895FC01828D0895FC01E9
:10095000828D90E0882309F491E0892F0895FC01AD
:10096000928D20E0838D981709F421E0822F08955D
:100970000F931F938C01FC01808191810E940702DB
:10098000C8010E9407021F910F9108950F931F93B2
:10099000CF93DF93EC01FB018A018A8D882381F1DB
:1009A0004881598141155105A9F08C8D2E813F81D7
:1009B000280F311D3F832E838A819B812817390799
:1009C00010F05F834E834C8D6E817F81CF0150E0AC
:1009D0000E94320D8A8D81508A8F8D8D8F3F69F4F0
:1009E0008885882361F0CE0108960E944B098823F0
:1009F00031F081E0F801808303C08F5F8D8F81E04B
:100A0000DF91CF911F910F9108950F931F93CF9373
:100A1000DF93EC010FB6F8940F928C010F5E1F4F1D
:100A20000DC08989882369F0C8010E944B09882379
:100A300011F00E94CA088E8D81508E8F8E8D1816EF
:100A400084F38FEF8E8F0F900FBE0FB6F8940F9236
:100A50008E01085F1F4F0DC08885882369F0C8018B
:100A60000E944B09882311F00E94CA088D8D815085
:100A70008D8F8D8D181684F38FEF8D8F0F900FBE95
:100A8000DF91CF911F910F9108957F928F929F9246
:100A9000AF92BF92CF92DF92EF92FF920F931F938C
:100AA000DF93CF9300D000D00F92CDB7DEB78C018B
:100AB000962E872E5D834C83722E91E1C92ED12C08
:100AC000C00ED11E20E07E010894E11CF11C84E0E0
:100AD000A82EB12CAC0EBD1E01C021E00FB6F894BB
:100AE0000F92F801828D882309F448C0E680F780D0
:100AF0004081518141155105B1F0848D9701280F36
:100B0000311D37832683828193812817390710F09E
:100B100057834683F801448D66817781892D982D0E
:100B200050E00E94320D7720C1F4F801828D81508F
:100B3000828F80819181892B29F40E94CE08F8014F
:100B400093838283F80180858823A1F0C8010896E9
:100B50000E944B09813071F40BC0F801F782E682E4
:100B60008189882339F0C6010E944B09882311F03E
:100B70000E9443040F900FBE81E059C08C819D817B
:100B8000892B19F40F900FBE51C0222319F4C7010D
:100B90000E9485080F900FBE0E9429080FB6F89496
:100BA0000F92F801858D8F3F09F4158EF801868D1F
:100BB0008F3F09F4168E0F900FBEC701B5010E943A
:100BC0009008882371F50FB6F8940F92F801828D82
:100BD0000F900FBE8823F9F4F80180819181892B51
:100BE00051F40FB6F8940F92F801828193810E941C
:100BF00001090F900FBE6C817D81C6010E94650ABC
:100C0000C8010E9405050E94820A882309F065CF69
:100C10000E94430462CFC8010E9405050E94820A17
:100C20005CCFC8010E9405050E94820A80E00F90F7
:100C30000F900F900F900F90CF91DF911F910F9118
:100C4000FF90EF90DF90CF90BF90AF909F908F90EC
:100C50007F900895EF92FF920F931F93CF93DF93AE
:100C6000EC017B010A811B810E94CE08081719073D
:100C700039F48E819F8101969F838E8321E00FC07E
:100C8000CE0160E070E0A70120E00E944505282F1A
:100C9000813029F48E819F8101969F838E83822FDC
:100CA000DF91CF911F910F91FF90EF900895CF9317
:100CB000DF93EC01842F4C8D442359F48881998172
:100CC000892BD9F58A819B810E94D4081B821A82C4
:100CD00034C08823B1F48C819D8150E00E94320D94
:100CE0008C8D2C813D81280F311D3D832C838A8181
:100CF0009B812817390708F1888199819D838C830E
:100D00001CC08E819F8150E00E94320D8C8D90E03E
:100D100044275527481B590B8E819F81840F951FAF
:100D20009F838E83288139818217930730F48A81CB
:100D30009B81840F951F9F838E838A8D8F5F8A8FFF
:100D4000DF91CF9108950F931F93CF93DF93EC0121
:100D50008A019A8D8B8D981710F080E017C0CE0114
:100D6000422F0E9457068E8D8F3F69F48989882310
:100D700061F0CE0141960E944B09882331F081E059
:100D8000F801808303C08F5F8E8F81E0DF91CF9168
:100D90001F910F9108957F928F929F92AF92BF9271
:100DA000CF92DF92EF92FF920F931F93DF93CF9337
:100DB00000D000D00F92CDB7DEB78C016B015D8300
:100DC0004C83722E48E0E42EF12CE80EF91E20E050
:100DD0005E010894A11CB11C34E0832E912C8C0E72
:100DE0009D1E01C021E00FB6F8940F92F801928D7C
:100DF000838D9817A8F4C801B601472D0E945706A5
:100E0000F8018189882341F0C80141960E944B096D
:100E1000813011F40E9443040F900FBE81E04CC05A
:100E20008C819D81892B19F40F900FBE44C0222321
:100E300019F4C5010E9485080F900FBE0E94290871
:100E40000FB6F8940F92F801858D8F3F09F4158E37
:100E5000F801868D8F3F09F4168E0F900FBEC501E5
:100E6000B4010E949008882309F50FB6F8940F92F8
:100E7000F801928D0F900FBEF801838D981781F4C1
:100E80006C817D81C7010E94650AC8010E94050529
:100E90000E94820A882309F0A5CF0E944304A2CFB2
:100EA000C8010E9405050E94820A9CCFC8010E94C9
:100EB00005050E94820A80E00F900F900F900F901E
:100EC0000F90CF91DF911F910F91FF90EF90DF90E6
:100ED000CF90BF90AF909F908F907F9008950F9389
:100EE0001F93CF93DF93EC010A811B810E94CE08F0
:100EF0000817190711F080E010C08E819F810197BB
:100F00009F838E83892B41F4CE0160E070E040E046
:100F100050E020E00E94CB0681E0DF91CF911F914D
:100F20000F910895CF93DF938FE190E00E94170215
:100F3000EC010097F9F01B821A82198218821D8237
:100F40001C821F821E821A8E81E08B8F1C8E8FEF77
:100F50008D8F8E8FCE0108960E944D02CE01419654
:100F60000E944D02CE0160E070E040E050E020E0E1
:100F70000E94CB06CE01DF91CF910895AF92BF9230
:100F8000CF92DF92EF92FF920F931F93CF93DF9355
:100F9000B82EA62E882309F442C08FE190E00E946B
:100FA0001702EC010097D9F1EB2CFF24CA2CDD24A9
:100FB000CE9C8001CF9C100DDE9C100D1124C80129
:100FC00001960E9417029C0199838883009721F162
:100FD000080F191F1B830A831A8E9D838C83089424
:100FE000E108F108EC9CC001ED9C900DFC9C900D7B
:100FF0001124280F391F3F832E83BB8EAC8E8FEFB9
:101000008D8F8E8FCE0108960E944D02CE014196A3
:101010000E944D029E0105C0CE010E94070220E001
:1010200030E0C901DF91CF911F910F91FF90EF90B8
:10103000DF90CF90BF90AF9008951F93162F60E080
:101040000E94BE07FC01009709F0128FCF011F918B
:101050000895809109038F5F8093090308950FB667
:10106000F8940F9220910703309108030F900FBE60
:10107000C90108952091070330910803C90108951B
:1010800080910B03089580910903882351F081E03A
:101090008093050308958091040381508093040395
:1010A00001C099E0E0910403E99FF0011124E05FA1
:1010B000FC4F8081882379F39091040389E0989F05
:1010C000D0011124A05FBC4F1196ED91FC911297B5
:1010D0000280F381E02D1296FC93EE931197CD01DF
:1010E0000396E817F90731F48281938112969C9355
:1010F0008E9311971196ED91FC91129786819781AD
:1011000090930303809302030895FC0180910603EA
:1011100080838091070390910803928381830895CF
:10112000FC01DB010FB6F8940F92909106038081C9
:10113000981749F02091070330910803818192812B
:101140002817390718F5809107039091080321812A
:1011500032814D915C911197821B930B84179507F7
:10116000A8F48091070390910803281B390B240FE2
:10117000351F2D933C938091060380838091070354
:10118000909108039283818380E001C081E00F90F9
:101190000FBE089581E08093050308952091020316
:1011A00030910303C90108950F931F93CF93DF93E9
:1011B000EC01009709F19E8989A19817E9F08E0149
:1011C0000E5F1F4FC8010E94BF0229A12E8B83E032
:1011D00090E0821B91099D878C8780910403821780
:1011E00010F42093040389E0289FC0011124805F3C
:1011F0009C4FB8010E946102DF91CF911F910F9126
:1012000008950F931F93CF93DF93EC01E0910203B6
:10121000F09103033E8986893817C0F5E0910203F7
:10122000F0910303268983E090E0821B91099D875A
:101230008C8789E0389FC0011124805F9C4F2A85EC
:101240003B8528173907E1F48E010E5F1F4FC80157
:101250000E94BF02E0910203F091030396899E8BE6
:1012600080910403891710F49093040389E0989FF8
:10127000C0011124805F9C4FB8010E94610206C02A
:10128000E0910203F091030386898E8BDF91CF9169
:101290001F910F9108950F931F93CF93DF93FC013C
:1012A0000580F681E02D06811781E8012C96CE019C
:1012B0000E94BF02809109038823A9F4E8012296C5
:1012C000CE010E94BF02D80156969C9180910403E2
:1012D000891710F49093040389E0989FC0011124AA
:1012E000805F9C4F02C081E493E0BE010E946102D6
:1012F000E0910203F091030320E0D80156969C91FF
:101300008689981708F021E0822FDF91CF911F91F5
:101310000F910895FF920F931F93CF93DF938091C6
:101320000903882309F08FC0809107039091080377
:10133000019690930803809307038091070390918F
:101340000803892B79F520913D0330913E0380916C
:101350003F039091400390933E0380933D0330936D
:10136000400320933F03809106038F5F8093060321
:10137000E0913D03F0913E038081882319F48FEFC3
:101380009FEF0CC0E0913D03F0913E030580F68194
:10139000E02D0680F781E02D8281938190936D008E
:1013A00080936C00209107033091080380916C00BA
:1013B00090916D002817390708F44AC089E0F82E8B
:1013C000E0913D03F0913E038081882339F48FEF53
:1013D0009FEF90936D0080936C003AC0E0913D03C5
:1013E000F0913E030580F681E02DC681D7812A81E8
:1013F0003B8180910703909108038217930728F49B
:1014000030936D0020936C0023C08E010E5F1F4F40
:10141000C8010E94BF028C899D89892B21F0CE01D1
:101420000C960E94BF029E8980910403891710F4D4
:10143000909304039F9DC0011124805F9C4FB801CD
:101440000E946102BDCF80910A038F5F80930A03DF
:10145000DF91CF911F910F91FF900895CF93DF936C
:10146000EC01E0910203F091030393838283809166
:10147000070390910803C817D90768F480913F03C8
:101480009091400360910203709103036E5F7F4F60
:101490000E948A0217C080913D0390913E036091A3
:1014A0000203709103036E5F7F4F0E948A02809156
:1014B0006C0090916D00C817D90720F4D0936D008F
:1014C000C0936C00DF91CF9108950F931F938B0110
:1014D0006091020370910303645F7F4F0E948A0250
:1014E000809102039091030302960E94BF028091B3
:1014F000070390910803800F911F0E942E0A1F91ED
:101500000F910895CF92DF92FF920F931F93DF9375
:10151000CF930F92CDB7DEB70FB6F8940F928091AC
:10152000090381508093090380910903882309F0FE
:1015300058C080910B03882309F453C0198299E0A5
:10154000F92E2DC0E0914603F0914703C680D78065
:10155000C6010C960E94BF0286010E5F1F4FC80194
:101560000E94BF02D60156969C9180910403891770
:1015700010F4909304039F9DC0011124805F9C4F41
:10158000B8010E946102E0910203F0910303D601C9
:1015900056969C918689981710F0B1E0B983809196
:1015A0004103882379F680910A03882341F40CC013
:1015B0000E948A0980910A03815080930A038091D6
:1015C0000A038823A9F707C0E981E13021F080915F
:1015D0000503813031F4109205030E94430481E039
:1015E00001C080E00F900FBE0F90CF91DF911F914F
:1015F0000F91FF90DF90CF9008950F931F93CF939B
:10160000DF93EC010097C9F0809109038F5F80930D
:101610000903009107031091080380910203909140
:10162000030302960E94BF02CE01800F911F0E9409
:101630002E0A0E94820A882311F40E944304DF913B
:10164000CF911F910F910895CF93DF93FC01EB0190
:10165000809109038F5F8093090320813181C20F3C
:10166000D31F80910703909108038217930728F4F2
:10167000C217D30728F020E00CC0C217D30740F0F0
:10168000809107039091080320E08C179D0708F4D0
:1016900021E0D183C083222351F0809102039091F5
:1016A000030302960E94BF02CE010E942E0A0E94EE
:1016B000820A882311F40E944304DF91CF91089598
:1016C000EF92FF920F931F93CF93DF938C010FB68E
:1016D000F8940F9280910203909103030817190761
:1016E00019F400E010E003C00115110529F4C091C0
:1016F0000203D091030301C0E80122E0E22EF12CA5
:10170000EC0EFD1EC7010E94BF028C899D89892BAA
:1017100021F0CE010C960E94BF028AE493E0B7014B
:101720000E94610280910D038F5F80930D03809171
:101730000E038F5F80930E030F900FBE80910C03FA
:10174000882321F0012B11F40E944304DF91CF91F3
:101750001F910F91FF90EF900895F89410920C0351
:101760000E94E40308950F931F9380910D03882333
:10177000E1F3809109038F5F8093090310914A037D
:101780000E94820A112389F30FB6F8940F92E09118
:101790004F03F091500306811781C80102960E9401
:1017A000BF0280910B03815080930B0380910D0346
:1017B000815080930D030F900FBEF8018789908DA3
:1017C0000E940702C8010E940702CFCF2F923F92CA
:1017D0005F926F927F928F929F92AF92BF92CF92C1
:1017E000DF92EF92FF920F931F93DF93CF9300D07E
:1017F00000D0CDB7DEB79A8389834B015A01190116
:10180000502E370182E290E00E9417028B839C8366
:101810008B819C81892B89F0C114D10421F4C501ED
:101820000E9417026C01EB81FC81D08EC78AC11423
:10183000D10429F4CF010E9407028FEFD2C0C60164
:1018400065EA70E0A5010E943B0D0894A108B1086B
:10185000EB81FC81E788F08CEA0CFB1CCF014996F8
:10186000B40148E050E00E94420DEB81FC8110A2DF
:10187000052DF2E0F51508F402E0EB81FC81068B02
:1018800001A342E0C42ED12CCE0EDF1EC6010E9461
:101890005D028B819C810C960E945D028B819C81F4
:1018A000FC019187808783E090E0801B91099587F8
:1018B0008487F38BE28BC70169817A81A1010E9441
:1018C0006703EB81FC81918380836114710421F0B3
:1018D000CF01F301918380830FB6F8940F9280912A
:1018E0000B038F5F80930B0380910203909103039E
:1018F000892B99F5EB81FC81F0930303E0930203BC
:1019000080910B038130D1F580E193E00E944D027C
:1019100089E193E00E944D0282E293E00E944D0231
:101920003BE2E32E33E0F32EC7010E944D0204E3B5
:1019300013E0C8010E944D0281E493E00E944D0231
:101940008AE493E00E944D02F0923E03E0923D0350
:101950001093400300933F0311C080910C03882330
:1019600069F4E0910203F09103038689581630F080
:101970008B819C819093030380930203EB81FC8114
:10198000968980910F03891710F490930F0380912B
:101990000E038F5F80930E03EB81FC81968980910B
:1019A0000403891710F490930403EB81FC8186896A
:1019B00029E0829FC0011124805F9C4FB6010E94E4
:1019C00061020F900FBE80910C03882349F0E091D3
:1019D0000203F09103038689851510F40E944304E5
:1019E00081E00F900F900F900F90CF91DF911F919A
:1019F0000F91FF90EF90DF90CF90BF90AF909F90AE
:101A00008F907F906F905F903F902F900895AF924E
:101A1000BF92CF92DF92EF92FF920F9383EB9BE006
:101A200067E670E045E550E020E030E000E0EE24BD
:101A3000FF24CC24DD24AA24BB240E94E60B8130A1
:101A400049F4F89480930C03109208031092070352
:101A50000E94AF030F91FF90EF90DF90CF90BF9067
:101A6000AF900895FB01DC0102C001900D9241503E
:101A70005040D8F70895DC0101C06D9341505040AB
:101A8000E0F70895FB01DC014150504048F001901F
:101A90000D920020C9F701C01D9241505040E0F75F
:061AA0000895F894FFCF49
:0E1AA6006F75747075740049444C4500FFFF65
:00000001FF
