:100000000C942A000C9447000C9447000C94470071
:100010000C9447000C9447000C9447000C949504F2
:100020000C9447000C9447000C9447000C94470034
:100030000C9447000C9447000C9447000C94470024
:100040000C9447000C9447000C9447000C94470014
:100050000C94470011241FBECFE5D8E0DEBFCDBF12
:1000600010E0A0E6B0E0E0EEF8E102C005900D92ED
:10007000AC3BB107D9F713E0ACEBB0E001C01D9287
:10008000A13AB107E1F70E9431030C946E0C0C9475
:100090000000AF92BF92CF92DF92EF92FF920F9348
:1000A0001F93CF93DF936C01B62EA42E8AE190E0CC
:1000B0000E942102E82EE7017E01F92EE701209738
:1000C00009F45EC08091BC009091BD00009721F5BD
:1000D000F092BD00E092BC0088EC90E00E947602B5
:1000E00081ED90E00E94760254EEE52E50E0F52E70
:1000F000C7010E9476020DEE10E0C8010E94760250
:100100008EEB90E00E947602F092E100E092E00037
:100110001093E3000093E200BB2011F0BB24B394E2
:10012000198E188EBE8AAF8AFE01C192D1928F01BC
:10013000CF010E948402CE010C960E948402D987CE
:10014000C887DB8BCA8B83E090E08B1991099D8770
:100150008C872E898091C700821710F42093C700E6
:1001600030E0C90143E0880F991F4A95E1F7820FFB
:10017000931F88539F4FB8010E94880281E001C0FD
:100180008FEFDF91CF911F910F91FF90EF90DF9054
:10019000CF90BF90AF9008950F931F93CF93DF93AD
:1001A000EB010091DE001091DF00080F191F809114
:1001B000BC009091BD0002960E94E4026091BC00D8
:1001C0007091BD00FB01138302838091DE0090914A
:1001D000DF006E5F7F4F0817190728F48091E20057
:1001E0009091E30004C08091E0009091E1000E94B2
:1001F000AD02209749F06091BC007091BD00645F32
:100200007F4FCE010E94AD02DF91CF911F910F91E0
:1002100008950F931F93CF93DF9327C0F894E09135
:10022000C300F091C400C681D781CE010C960E9414
:10023000E40278948E010E5F1F4FC8010E94E40211
:100240002E898091C700821710F42093C70030E0F8
:10025000C901F3E0880F991FFA95E1F7820F931F08
:1002600088539F4FB8010E9488028091BE00882366
:10027000A9F60E9466092091DA003091DB00821B0A
:10028000930B9093DD008093DC0059C0019690930E
:10029000DF008093DE00215030403093DD0020935A
:1002A000DC00009709F044C08091E0009091E100EB
:1002B0002091E2003091E3003093E1002093E000D0
:1002C0009093E3008093E20033C00580F681E02D37
:1002D000C681D7812091DE003091DF008A819B8129
:1002E0002817390760F1F8948E010E5F1F4FC8017F
:1002F0000E94E4028C899D89009721F0CE010C9622
:100300000E94E40278942E898091C700821710F42D
:100310002093C70030E0C901E3E0880F991FEA95F8
:10032000E1F7820F931F88539F4FB8010E94880204
:10033000E091E000F091E1008081882331F6209186
:10034000DC003091DD008091DE009091DF0021150E
:10035000310509F09BCF9093DB008093DA00409148
:10036000C70006C0442319F41092C70040C0415092
:10037000842F90E09C0173E0220F331F7A95E1F700
:10038000280F391FF901E853FF4F5081552351F3CE
:100390004093C700A181B28112960D90BC91A02D0F
:1003A000B283A18325533F4FA217B30731F41296AE
:1003B0002D913C91139732832183FC0163E0EE0F72
:1003C000FF1F6A95E1F7E80FF91FE853FF4F01801F
:1003D000F281E02DA681B781B093BD00A093BC004F
:1003E000ED91FC911197CD0157966C910995DF9194
:1003F000CF911F910F9108950F931F93CF93DF9388
:10040000DC011596ED91FC911697C681D7818E017E
:10041000045F1F4FC8010E94E4028EEB90E0B80118
:100420000E948802E091BC00F091BD0081E02E891D
:100430009689291708F480E0DF91CF911F910F91E1
:100440000895EF92FF920F931F93CF93DF938C0148
:100450000E946009C091F600D091F7000C0F1D1F9B
:1004600022E00835120750F4C017D10738F4C850FD
:10047000DF4F1093F7000093F60002C0C0E0D0E019
:100480000E941C0ACE01DF91CF911F910F91FF9026
:10049000EF90089508951092F7001092F6000895D5
:1004A00028E532E08091F6009091F700281B390B87
:1004B000C90108958FEF84BB089595B321E030E022
:1004C00002C0220F331F8A95E2F7922795BB089549
:1004D0008FEF81BB089592B321E030E002C0220F7C
:1004E000331F8A95E2F7922792BB0895FC01039689
:1004F000928381832FEF3FEF348323839683858319
:100500009087878310820895FC01118610860895D4
:10051000CF93DF93FC01DB0121813281E9018A81E4
:100520009B8113969C938E93129715963C932E93D2
:1005300014978A819B81EC017D836C83E9017B8325
:100540006A83728361831996FC93EE931897808176
:100550008F5F8083DF91CF910895CF93DF93AC01BC
:10056000EB01888199812FEF8F3F920721F4FA01E7
:10057000A781B08511C0DA01139604C012960D90C0
:10058000BC91A02D12962D913C911397F9012081D9
:1005900031818217930790F712968D919C91139752
:1005A0009B838A83FC01D583C483BD83AC8313966C
:1005B000DC93CE93129759874887FA0180818F5F29
:1005C0008083DF91CF910895CF93DF93FC01A281C7
:1005D000B3818481958115969C938E931497C481E1
:1005E000D581BB83AA83A085B18511968D919C91FD
:1005F00012978E179F0721F41296DC93CE931197D2
:10060000118610868C9181508C93DF91CF91089543
:10061000EF92FF920F931F93DF93CF9300D0CDB74C
:10062000DEB77C010E9466099A8389830E942A0CA6
:100630008E010F5F1F4FC7010E943C0CC80168EE7E
:1006400073E00E94EF0AF7CF0F931F938C010E9473
:100650002A0CC8010E943C0C88EE93E00E94CB0A51
:10066000F8CFAF92BF92CF92DF92EF92FF920F93AB
:1006700084E293E060E670E045E550E026E630E095
:1006800001E0EE24FF24CC24DD24AA24BB240E9414
:10069000DC0784E293E06BE770E045E550E022E898
:1006A00030E00E94DC0788E093E067E970E045E510
:1006B00050E02EE930E002E00E94DC070E942F09A2
:1006C000FFCF21E1FC01208392E2929383E38293A6
:1006D00062937293129280E88293129282E08293E4
:1006E00083E0829384E0829385E0829386E0829324
:1006F00087E0829388E0829389E0829380E182930D
:10070000229382E1829383E1829384E1829385E163
:10071000829386E1829387E1829388E1829389E1E3
:10072000829380E2829381E28293929383E2829326
:100730004293529386E2829387E2829388E2829385
:1007400089E2829380E3829381E382939F01215027
:100750003040C90108951BBC8CE78ABD8BE08EBD7B
:1007600089B7806189BFA0915003B0915103CD91A9
:10077000CDBFDD91DEBFFF91EF91DF91CF91BF91B2
:10078000AF919F918F917F916F915F914F913F9129
:100790002F911F910F91FF90EF90DF90CF90BF901E
:1007A000AF909F908F907F906F905F904F903F9011
:1007B0002F901F900F900FBE0F90089581E0089525
:1007C00008950F920FB6F8940F921F9211242F9252
:1007D0003F924F925F926F927F928F929F92AF92D1
:1007E000BF92CF92DF92EF92FF920F931F932F93BE
:1007F0003F934F935F936F937F938F939F93AF93A9
:10080000BF93CF93DF93EF93FF93A0915003B091E9
:1008100051030DB60D920EB60D920E942F0BA091B2
:100820005003B0915103CD91CDBFDD91DEBFFF915B
:10083000EF91DF91CF91BF91AF919F918F917F9178
:100840006F915F914F913F912F911F910F91FF9069
:10085000EF90DF90CF90BF90AF909F908F907F9060
:100860006F905F904F903F902F901F900F900FBE12
:100870000F9008950F920FB6F8940F921F921124C3
:100880002F923F924F925F926F927F928F929F92A0
:10089000AF92BF92CF92DF92EF92FF920F931F938E
:1008A0002F933F934F935F936F937F938F939F9378
:1008B000AF93BF93CF93DF93EF93FF93A091500338
:1008C000B09151030DB60D920EB60D920E947A09A9
:1008D0000E942F0BA0915003B0915103CD91CDBF39
:1008E000DD91DEBFFF91EF91DF91CF91BF91AF918D
:1008F0009F918F917F916F915F914F913F912F9138
:100900001F910F91FF90EF90DF90CF90BF90AF902D
:100910009F908F907F906F905F904F903F902F901F
:100920001F900F900FBE0F9008950E943A041895E3
:100930000F931F93CF93DF93EC010FB6F8940F92B0
:100940008C010F5E1F4F0DC08989882369F0C80193
:100950000E949E0B882311F00E94260C8E8D8150E0
:100960008E8F8E8D181684F38FEF8E8F0F900FBEA3
:100970000FB6F8940F928E01085F1F4F0DC0888547
:10098000882369F0C8010E949E0B882311F00E9401
:10099000260C8D8D81508D8F8D8D181684F38FEFE1
:1009A0008D8F0F900FBEDF91CF911F910F91089502
:1009B000AF92BF92CF92DF92EF92FF920F931F936D
:1009C000CF93DF93B82EA62E882309F443C08FE17E
:1009D00090E00E942102E82EE7017E01F92EE70156
:1009E0002097C1F10B2D10E0CA2CDD24C09E7001B0
:1009F000C19EF00CD09EF00C1124C70101960E94FC
:100A0000210299838883009711F1E80EF91EFB8279
:100A1000EA821A8E9D838C83015010400C9DA001A8
:100A20000D9D500D1C9D500D1124480F591F5F83C3
:100A30004E83BB8EAC8E8FEF8D8F8E8FCE0108963E
:100A40000E947602CE0141960E94760205C0CE0138
:100A50000E944A02C0E0D0E0CE01DF91CF911F9109
:100A60000F91FF90EF90DF90CF90BF90AF900895DF
:100A70007F928F929F92AF92BF92CF92DF92EF922E
:100A8000FF920F931F93DF93CF9300D000D00F926C
:100A9000CDB7DEB78C016B015D834C83722E20E0F5
:100AA0007E010894E11CF11C94E0A92EB12CAC0E3F
:100AB000BD1E88E0882E912C800E911E01C021E081
:100AC0000FB6F8940F92F801928D838D981708F065
:100AD0004EC0448D4423C1F17720C1F484819581B7
:100AE000B60150E00E944F0CF801248D848195815D
:100AF000820F911D9583848322813381821793070E
:100B000018F180819181958384831EC0F8018681CC
:100B10009781B60150E00E944F0CF801248D30E01F
:100B2000309521953F4F86819781820F931F978340
:100B30008683408151818417950730F482819381A7
:100B4000820F931F97838683F801828D8F5F828F38
:100B50008189882341F0C80141960E949E0B813013
:100B600011F40E94E1030F900FBE81E04CC08C8114
:100B70009D81009719F40F900FBE44C0222319F4F1
:100B8000C7010E94E00B0F900FBE0E9460090FB6D4
:100B9000F8940F92F801858D8F3F09F4158EF801B6
:100BA000868D8F3F09F4168E0F900FBEC701B501D9
:100BB0000E94EB0B882309F50FB6F8940F92F80109
:100BC000928D0F900FBEF801838D981781F46C8180
:100BD0007D81C4010E94810BC8010E9498040E947B
:100BE0001C0A882309F06BCF0E94E10368CFC8017B
:100BF0000E9498040E941C0A62CFC8010E949804B7
:100C00000E941C0A80E00F900F900F900F900F90A1
:100C1000CF91DF911F910F91FF90EF90DF90CF90D8
:100C2000BF90AF909F908F907F9008950F931F93E8
:100C3000CF93DF93EC018A019A8D8B8D981708F082
:100C40004CC04C8D442399F12223B1F48C819D81B9
:100C500050E00E944F0C2C8D8C819D81820F911D44
:100C60009D838C832A813B818217930700F18881C1
:100C700099819D838C831BC08E819F8150E00E944F
:100C80004F0C2C8D30E0309521953F4F8E819F8108
:100C9000820F931F9F838E83488159818417950704
:100CA00030F48A819B81820F931F9F838E838A8D6C
:100CB0008F5F8A8F8E8D8F3F69F48989882379F0C1
:100CC000CE0141960E949E0B882349F081E0F801F5
:100CD000808306C08F5F8E8F02C080E001C081E0FC
:100CE000DF91CF911F910F9108957F928F929F92E4
:100CF000AF92BF92CF92DF92EF92FF920F931F932A
:100D0000DF93CF9300D000D00F92CDB7DEB78C0128
:100D1000862E772E5D834C83922E20E07E010894F0
:100D2000E11CF11C44E0C42ED12CCC0EDD1E31E1BF
:100D3000A32EB12CA80EB91E01C021E00FB6F89465
:100D40000F92F801828D882309F43DC0E680F78078
:100D5000808191810097A9F0448D9701240F311D66
:100D600037832683628173812617370710F09783B4
:100D70008683F80166817781882D972D50E00E9447
:100D80004F0C992071F4F801828D8150828F8085FB
:100D90008823A9F0C80108960E949E0B813079F43F
:100DA0000CC0F801F782E6828189882341F0C801EE
:100DB00041960E949E0B882311F00E94E1030F9040
:100DC0000FBE81E04AC08C819D81009719F40F907D
:100DD0000FBE42C0222319F4C7010E94E00B0F90FE
:100DE0000FBE0E9460090FB6F8940F92F801858D2E
:100DF0008F3F09F4158EF801868D8F3F09F4168E0A
:100E00000F900FBEC701B6010E94EB0B8823F9F4C7
:100E10000FB6F8940F92F801828D0F900FBE8823C1
:100E200081F46C817D81C5010E94810BC8010E9403
:100E300098040E941C0A882309F07FCF0E94E103D6
:100E40007CCFC8010E9498040E941C0A76CFC8017A
:100E50000E9498040E941C0A80E00F900F900F904F
:100E60000F900F90CF91DF911F910F91FF90EF9016
:100E7000DF90CF90BF90AF909F908F907F9008951C
:100E80000F931F93CF93DF93EC01CB018A012A8D3F
:100E9000222371F1E881F9813097A1F04C8D2E81E8
:100EA0003F81240F311D3F832E83AA81BB812A17E6
:100EB0003B0710F0FF83EE836E812F81722F50E08D
:100EC0000E944F0C8A8D81508A8F8D8D8F3F69F4DF
:100ED0008885882379F0CE0108960E949E0B88238E
:100EE00049F081E0F801808306C08F5F8D8F02C0DA
:100EF00080E001C081E0DF91CF911F910F910895B3
:100F00000FB6F8940F92FC01828D0F900FBE0895DA
:100F1000FC01828D0895CF93DF93EC018881998144
:100F20000E944A02CE010E944A02DF91CF910895A9
:100F3000FC01928D81E0911180E00895FC01228DE9
:100F400081E0938D291380E00895CF93DF93EC0126
:100F5000E0915003F0915103938382838091540375
:100F600090915503C817D90768F480917C0390913C
:100F70007D0360915003709151036E5F7F4F0E941B
:100F8000AD0217C080917E0390917F036091500362
:100F9000709151036E5F7F4F0E94AD028091BA0045
:100FA0009091BB00C817D90720F4D093BB00C09321
:100FB000BA00DF91CF9108952F923F924F925F92A6
:100FC0006F927F928F929F92AF92BF92CF92DF9259
:100FD000EF92FF920F931F93CF93DF931C013B017E
:100FE0005A012901470181E290E00E942102E82E86
:100FF000E7017E01F92EE701209709F4CEC0C11464
:10100000D10429F4C5010E942102C82ED92ED88E00
:10101000CF8AC114D10421F4CE010E944A02BDC07E
:10102000C60165EA70E0A5010E94580C0894A10869
:10103000B108EF88F88CEA0CFB1CCE014996B3018D
:1010400048E050E00E945F0C18A2102F033008F017
:1010500012E01E8B72E0A72EB12CAC0EBD1EC50196
:101060000E948402CE010C960E948402D987C88710
:1010700083E090E0811B91099D878C87DB8BCA8B75
:10108000C701B101A2010E94610399838883811481
:10109000910419F0F401D183C0830FB6F8940F9234
:1010A000809181038F5F80938103809150039091A1
:1010B0005103009799F5D0935103C0935003809149
:1010C00081038130D1F588E593E00E94760281E6C4
:1010D00093E00E9476028AE693E00E9476026FE82F
:1010E000E62E63E0F62EC7010E94760258E9C52E6F
:1010F00053E0D52EC6010E94760283E793E00E945A
:10110000760284E893E00E947602F0927F03E092F8
:101110007E03D0927D03C0927C030FC08091820336
:10112000882359F4E0915003F09151038689081700
:1011300020F0D0935103C09350032E8980918E03E9
:10114000821710F420938E0380918D038F5F80931C
:101150008D0380915703821710F42093570330E0DA
:10116000C90143E0880F991F4A95E1F7820F931F49
:10117000885A9C4FB5010E9488020F900FBE809143
:101180008203882361F0E0915003F0915103868936
:10119000801728F40E94E10302C08FEF01C081E0B4
:1011A000DF91CF911F910F91FF90EF90DF90CF9043
:1011B000BF90AF909F908F907F906F905F904F9077
:1011C0003F902F900895EF92FF920F931F93CF932C
:1011D000DF93EC010FB6F8940F9280915003909139
:1011E0005103C817D90711F0209739F40091500323
:1011F00010915103C0E0D0E001C08E01E2E0EE2E7C
:10120000F12CE00EF11EC7010E94E402F80184896E
:101210009589009721F0C8010C960E94E40284E8A9
:1012200093E0B7010E948802809183038F5F8093CF
:10123000830380918D038F5F80938D030F900FBE8A
:1012400080918203882321F0209711F40E94E1030A
:10125000DF91CF911F910F91FF90EF900895AF9282
:10126000BF92CF92DF92EF92FF920F938BE99AE0B9
:1012700065EB70E045E550E020E030E000E0EE2472
:10128000FF24CC24DD24AA24BB240E94DC07813067
:1012900049F4F894809382031092550310925403FA
:1012A0000E94AB030F91FF90EF90DF90CF90BF9023
:1012B000AF900895F894109282030E94E00308957D
:1012C000809156038F5F8093560308950FB6F8946C
:1012D0000F9220915403309155030F900FBEC90116
:1012E00008952091540330915503C90108958091C8
:1012F000810308950F931F93CF93DF93809156033B
:10130000882309F08FC08091540390915503019672
:101310009093550380935403809154039091550307
:10132000009779F580917E0390917F0320917C0353
:1013300030917D0330937F0320937E0390937D0350
:1013400080937C03809153038F5F80935303E091DC
:101350007E03F0917F038081882319F48FEF9FEF44
:101360000CC0E0917E03F0917F030580F681E02DB3
:101370000680F781E02D828193819093BB0080935A
:10138000BA0020915403309155038091BA00909196
:10139000BB002817390708F44AC0E0917E03F0919A
:1013A0007F038081882319F48FEF9FEF12C0E091B3
:1013B0007E03F0917F030580F681E02DC681D78101
:1013C0008A819B8120915403309155032817390756
:1013D00028F49093BB008093BA0029C08E010E5F61
:1013E0001F4FC8010E94E4028C899D89009721F05B
:1013F000CE010C960E94E4022E8980915703821739
:1014000010F42093570330E0C901F3E0880F991FCF
:10141000FA95E1F7820F931F885A9C4FB8010E94FA
:101420008802BBCF809180038F5F80938003DF9120
:10143000CF911F910F910895EF92FF920F931F93F9
:10144000DF93CF930F92CDB7DEB70FB6F8940F921C
:1014500080915603815080935603809156038823D0
:1014600009F05EC080918103882309F459C0198274
:1014700035C0E0917803F0917903E680F780C701E9
:101480000C960E94E40287010E5F1F4FC8010E9464
:10149000E402D70156962C915697809157038217F4
:1014A00010F42093570330E0C901A3E0880F991F7F
:1014B000AA95E1F7820F931F885A9C4FB8010E94AA
:1014C0008802E0915003F0915103D70156969C9108
:1014D00056978689981710F0B1E0B983809173030D
:1014E000882339F680918003882341F40CC00E9440
:1014F0007A098091800381508093800380918003DA
:101500008823A9F707C0E981E13021F080915203D7
:10151000813031F4109252030E94E10381E001C056
:1015200080E00F900FBE0F90CF91DF911F910F9130
:10153000FF90EF9008951F93CF93DF9380918303E3
:101540008823E1F30E946009109184030E941C0A21
:101550001123A1F30FB6F8940F92E0918903F09153
:101560008A03C681D781CE0102960E94E40280914F
:101570008103815080938103809183038150809304
:1015800083030F900FBE8F89988D0E944A02CE016F
:101590000E944A02D3CF0F931F93CF93DF93EC01A6
:1015A0000097B1F00E946009009154031091550317
:1015B000809150039091510302960E94E402CE0163
:1015C000800F911F0E94A5070E941C0A882311F416
:1015D0000E94E103DF91CF911F910F9108950F9326
:1015E0001F93CF93DF938C01EB010E946009F801F8
:1015F00080819181C80FD91F2091540330915503E8
:101600002817390720F4C817D90760F403C0C81792
:10161000D90750F0809154039091550321E08C1725
:101620009D0718F020E001C021E0F801D183C083BC
:10163000222351F0809150039091510302960E9411
:10164000E402CE010E94A5070E941C0A882311F41F
:101650000E94E103DF91CF911F910F910895809136
:101660005603882349F081E08093520308958091C6
:1016700057038150809357038091570390E0FC01FA
:1016800053E0EE0FFF1F5A95E1F7E80FF91FE85AF4
:10169000FC4F8081882359F38091570390E09C018F
:1016A00043E0220F331F4A95E1F7280F391FF90154
:1016B000E85AFC4FA181B28112960D90BC91A02DE9
:1016C000B283A183255A3C4FA217B30731F4129677
:1016D0002D913C91139732832183FC01B3E0EE0FEF
:1016E000FF1FBA95E1F7E80FF91FE85AFC4F018098
:1016F000F281E02D8681978190935103809350036E
:101700000895CF93DF93EB016091500370915103E3
:10171000645F7F4F0E94AD0280915003909151030E
:1017200002960E94E40280915403909155038C0F1D
:101730009D1F0E94A507DF91CF9108950F931F93DE
:10174000CF93DF93DC011596ED91FC911697C6813E
:10175000D7818E01045F1F4FC8010E94E40280916F
:1017600056038823C9F48E010E5F1F4FC8010E94E3
:10177000E4022E8980915703821710F420935703B7
:1017800030E0C90163E0880F991F6A95E1F7820F85
:10179000931F885A9C4F02C083E793E0B8010E94D0
:1017A0008802E0915003F091510381E02E899689DF
:1017B000291708F480E0DF91CF911F910F910895D0
:1017C000FC018091530380838091540390915503D1
:1017D000928381830895FC01DB010FB6F8940F9288
:1017E000909153038081981749F0209154033091D0
:1017F0005503818192812817390720F520915403E0
:1018000030915503818192814D915C911197281BF4
:10181000390B24173507B0F4209154033091550348
:10182000821B930B840F951F11969C938E9380912E
:101830005303808380915403909155039283818355
:1018400080E001C081E00F900FBE089581E0809399
:101850005203089510BC83E389B980B58E6080BDC2
:101860008AB188618AB908955D9BFECF8CB90895CD
:101870005F9BFECF8CB108951F93CF93DF93EC0154
:1018800010E003C00E94340C1F5FFE01E10FF11D48
:1018900080818823B9F7DF91CF911F910895FB01D3
:1018A000DC0102C001900D9241505040D8F70895DC
:1018B000DC0101C06D9341505040E0F70895FB01F9
:1018C000DC014150504048F001900D920020C9F7D2
:1018D00001C01D9241505040E0F70895F894FFCFA9
:1018E000626C696E6B005461736B31206973207296
:1018F000756E696E696E67200D0A00626C696E6BA9
:1019000032005461736B322069732072756E696E98
:10191000696E67200D0A00626C696E6B330054615A
:10192000736B3320506572696F646963205461730F
:0C1930006B200D0A0049444C4500FFFFED
:00000001FF
