:100000000C942A000C9447000C9447000C94470071
:100010000C9447000C9447000C9447000C94150472
:100020000C9447000C9447000C9447000C94470034
:100030000C9447000C9447000C9447000C94470024
:100040000C9447000C9447000C9447000C94470014
:100050000C94470011241FBECFE5D8E0DEBFCDBF12
:1000600010E0A0E6B0E0E8EFFAE102C005900D92E2
:10007000A23AB107D9F713E0A2EAB0E001C01D929D
:10008000A938B107E1F70E940A030C947A0D0C9489
:100090000000EF92FF920F931F93FC010580F68101
:1000A000E02DE680F7808701045F1F4FC8010E94A2
:1000B000CC0283ED90E0B8010E946E0220E0E09156
:1000C000A200F091A300D70156969C9186899817BB
:1000D00008F021E0822F1F910F91FF90EF9008957B
:1000E000FF920F931F93CF93DF9399E0F92E21C0D6
:1000F000F894E091D800F091D90006811781C801E9
:100100000C960E94CC027894E8012296CE010E94BF
:10011000CC02F80196898091A400891710F490937D
:10012000A4009F9DC001112485559F4FBE010E94D0
:100130006E028091D3008823D9F60E940408209192
:10014000A5003091A600821B930B9093A80080938A
:10015000A70089E0F82E53C001969093AA008093DF
:10016000A900215030403093A8002093A700892B8C
:1001700009F03EC02091CF003091D0008091D10095
:100180009091D2009093D0008093CF003093D20012
:100190002093D1002DC00580F681E02DC681D78146
:1001A0002091A9003091AA008A819B8128173907E4
:1001B00030F1F8948E010E5F1F4FC8010E94CC02EF
:1001C0008C899D89892B21F0CE010C960E94CC024E
:1001D00078949E898091A400891710F49093A400CC
:1001E0009F9DC001112485559F4FB8010E946E024A
:1001F000E091CF00F091D0008081882361F62091BA
:10020000A7003091A8008091A9009091AA00211523
:10021000310509F0A1CF9093A6008093A50090919D
:10022000A40029E006C0992319F41092A40032C05A
:100230009150929FD0011124A555BF4F8C918823D6
:1002400091F39093A4001196ED91FC911297028086
:10025000F381E02D1296FC93EE931197CD01039656
:10026000E817F90731F48281938112969C938E935B
:1002700011971196ED91FC9112970680F781E02D70
:10028000F093A300E093A20020813181CF01678920
:10029000F9010995DF91CF911F910F91FF9008957A
:1002A0000F931F93CF93DF93EB010091A90010915F
:1002B000AA00080F191F8091A2009091A300029636
:1002C0000E94CC02E091A200F091A300138302836C
:1002D0008091A9009091AA00BF016E5F7F4F08171F
:1002E000190728F48091D1009091D20004C0809128
:1002F000CF009091D0000E949702209749F0609122
:10030000A2007091A300645F7F4FCE010E9497020C
:10031000DF91CF911F910F910895AF92BF92CF922D
:10032000DF92EF92FF920F931F93CF93DF936C01B5
:10033000B62EA42E8AE190E00E941702EC010097ED
:1003400011F48FEF59C08091A2009091A300892BE6
:1003500021F5D093A300C093A2008BEA90E00E9405
:100360005A0284EB90E00E945A022DEBE22E20E02C
:10037000F22EC7010E945A0206EC10E0C8010E944A
:100380005A0283ED90E00E945A02F092D000E0926F
:10039000CF001093D2000093D100EB2CBB2011F0C2
:1003A000EE24E394198E188EEE8AAF8AFE01C19274
:1003B000D1928F01CF010E946A02CE010C960E9459
:1003C0006A02D987C887DB8BCA8B83E090E08E19DD
:1003D00091099D878C879E898091A400891710F4CC
:1003E0009093A40089E0989FC001112485559F4FE8
:1003F000B8010E946E0281E0DF91CF911F910F91B1
:10040000FF90EF90DF90CF90BF90AF900895089548
:100410001092DD001092DC00089528E532E0809112
:10042000DC009091DD00281B390BC90108950F9362
:100430001F93CF93DF938C010E94FE078091DC0015
:100440009091DD009801280F391F42E028353407CC
:1004500058F48217930740F4EC01C252DF4F3093F7
:10046000DD002093DC0002C0C0E0D0E00E94570A0B
:10047000CE01DF91CF911F910F9108958FEF84BB33
:10048000089595B321E030E002C0220F331F8A9512
:10049000E2F7922795BB08958FEF81BB089592B341
:1004A00021E030E002C0220F331F8A95E2F7922745
:1004B00092BB0895FC019C012D5F3F4F3283218345
:1004C0008FEF9FEF94838383368325833087278341
:1004D00010820895FC01118610860895CF93DF9352
:1004E000AC01DB01EC0129813A81F9018281938120
:1004F00013969C938E93129789819A8115969C935B
:100500008E9314970280F381E02D75836483E90153
:100510007B836A83FA017283618319965C934E939D
:10052000189780818F5F8083DF91CF910895CF935B
:10053000DF939C01EB01488159818FEF4F3F5807B2
:1005400021F4F901A781B08510C0D901139604C028
:1005500012960D90BC91A02D1296ED91FC911397DF
:10056000808191814817590798F71296ED91FC9177
:100570001397FB83EA83D583C483BD83AC8313962F
:10058000DC93CE93129739872887F90180818F5F9A
:100590008083DF91CF910895CF93DF93DC01129692
:1005A000ED91FC91139714968D919C9115979583DD
:1005B00084831496CD91DC911597FB83EA8318967A
:1005C000ED91FC911997818192818A179B0711F413
:1005D000D283C18319961C921E92189780818150F4
:1005E0008083DF91CF9108950F931F938C01C801F1
:1005F0000E94320D84E690E00E94D20AF8CF0F9359
:100600001F938C01C8010E94320D84E690E00E9485
:10061000D20AF8CFAF92BF92CF92DF92EF92FF92C1
:100620000F930E94070D0E946707909388038093A1
:10063000870320918200309183008FEF92E060E683
:1006400070E045E550E001E0EE24FF24CC24DD24F9
:10065000AA24BB240E94BB0B2091990030919A00E0
:1006600084EF92E066E670E045E550E002E00E942B
:10067000BB0B0E94DC0CFFCFFC0191E1908322E2D6
:10068000229383E3829362937293129280E882931F
:10069000129282E0829383E0829384E0829385E0E9
:1006A000829386E0829387E0829388E0829389E058
:1006B000829380E18293929382E1829383E1829399
:1006C00084E1829385E1829386E1829387E182933C
:1006D00088E1829389E1829380E2829381E282932E
:1006E000229383E282934293529386E2829387E23B
:1006F000829388E2829389E2829380E3829381E30A
:1007000082933197CF0108951BBC8CE78ABD8BE0A3
:100710008EBD89B7806189BFA0913603B091370340
:10072000CD91CDBFDD91DEBFFF91EF91DF91CF91F4
:10073000BF91AF919F918F917F916F915F914F91F9
:100740003F912F911F910F91FF90EF90DF90CF90ED
:10075000BF90AF909F908F907F906F905F904F90E1
:100760003F902F901F900F900FBE0F90089581E043
:10077000089508950F920FB6F8940F921F921124C6
:100780002F923F924F925F926F927F928F929F92A1
:10079000AF92BF92CF92DF92EF92FF920F931F938F
:1007A0002F933F934F935F936F937F938F939F9379
:1007B000AF93BF93CF93DF93EF93FF93A091360353
:1007C000B09137030DB60D920EB60D920E945F09DF
:1007D0000E941808A0913603B0913703CD91CDBF88
:1007E000DD91DEBFFF91EF91DF91CF91BF91AF918E
:1007F0009F918F917F916F915F914F913F912F9139
:100800001F910F91FF90EF90DF90CF90BF90AF902E
:100810009F908F907F906F905F904F903F902F9020
:100820001F900F900FBE0F9008950E94BA03189565
:100830000F920FB6F8940F921F9211242F923F92AD
:100840004F925F926F927F928F929F92AF92BF92E0
:10085000CF92DF92EF92FF920F931F932F933F93CC
:100860004F935F936F937F938F939F93AF93BF93B8
:10087000CF93DF93EF93FF93A0913603B0913703AB
:100880000DB60D920EB60D920E941808A091360377
:10089000B0913703CD91CDBFDD91DEBFFF91EF91D8
:1008A000DF91CF91BF91AF919F918F917F916F9188
:1008B0005F914F913F912F911F910F91FF90EF907A
:1008C000DF90CF90BF90AF909F908F907F906F9070
:1008D0005F904F903F902F901F900F900FBE0F9002
:1008E0000895FC010FB6F8940F92828D0F900FBE01
:1008F0000895FC01828D0895FC01828D90E088238B
:1009000009F491E0892F0895FC01928D20E0838DF8
:10091000981709F421E0822F08950F931F938C01FB
:10092000FC01808191810E940702C8010E94070298
:100930001F910F9108950F931F93CF93DF93EC01B5
:10094000FB018A018A8D882381F1488159814115F3
:100950005105A9F08C8D2E813F81280F311D3F83D9
:100960002E838A819B812817390710F05F834E837D
:100970004C8D6E817F81CF0150E00E945B0D8A8D8E
:1009800081508A8F8D8D8F3F69F48885882361F02F
:10099000CE0108960E942009882331F081E0F801F9
:1009A000808303C08F5F8D8F81E0DF91CF911F9196
:1009B0000F9108950F931F93CF93DF93EC010FB620
:1009C000F8940F928C010F5E1F4F0DC08989882308
:1009D00069F0C8010E942009882311F00E949F0835
:1009E0008E8D81508E8F8E8D181684F38FEF8E8FA3
:1009F0000F900FBE0FB6F8940F928E01085F1F4F35
:100A00000DC08885882369F0C8010E9420098823C9
:100A100011F00E949F088D8D81508D8F8D8D18163D
:100A200084F38FEF8D8F0F900FBEDF91CF911F91C9
:100A30000F9108957F928F929F92AF92BF92CF9223
:100A4000DF92EF92FF920F931F93DF93CF9300D02B
:100A500000D00F92CDB7DEB78C01962E872E5D8326
:100A60004C83722E91E1C92ED12CC00ED11E20E0F4
:100A70007E010894E11CF11C84E0A82EB12CAC0E80
:100A8000BD1E01C021E00FB6F8940F92F801828DCF
:100A9000882309F448C0E680F780408151814115E0
:100AA0005105B1F0848D9701280F311D37832683BE
:100AB000828193812817390710F057834683F80104
:100AC000448D66817781892D982D50E00E945B0DC1
:100AD0007720C1F4F801828D8150828F80819181CD
:100AE000892B29F40E94A308F80193838283F801DB
:100AF00080858823A1F0C80108960E9420098130D2
:100B000071F40BC0F801F782E6828189882339F0FD
:100B1000C6010E942009882311F00E9418040F903A
:100B20000FBE81E059C08C819D81892B19F40F90F3
:100B30000FBE51C0222319F4C7010E945A080F901A
:100B40000FBE0E94FE070FB6F8940F92F801858D34
:100B50008F3F09F4158EF801868D8F3F09F4168EAC
:100B60000F900FBEC701B5010E946508882371F57B
:100B70000FB6F8940F92F801828D0F900FBE882364
:100B8000F9F4F80180819181892B51F40FB6F89422
:100B90000F92F801828193810E94D6080F900FBEB8
:100BA0006C817D81C6010E943A0AC8010E94DA0464
:100BB0000E94570A882309F065CF0E94180462CF6B
:100BC000C8010E94DA040E94570A5CCFC8010E9443
:100BD000DA040E94570A80E00F900F900F900F9058
:100BE0000F90CF91DF911F910F91FF90EF90DF90C9
:100BF000CF90BF90AF909F908F907F900895EF928D
:100C0000FF920F931F93CF93DF93EC017B010A8137
:100C10001B810E94A3080817190739F48E819F8150
:100C200001969F838E8321E00FC0CE0160E070E0CB
:100C3000A70120E00E941A05282F813029F48E8117
:100C40009F8101969F838E83822FDF91CF911F9189
:100C50000F91FF90EF900895CF93DF93EC01842FD5
:100C60004C8D442359F488819981892BD9F58A8147
:100C70009B810E94A9081B821A8234C08823B1F488
:100C80008C819D8150E00E945B0D8C8D2C813D817B
:100C9000280F311D3D832C838A819B8128173907BA
:100CA00008F1888199819D838C831CC08E819F81EE
:100CB00050E00E945B0D8C8D90E044275527481B27
:100CC000590B8E819F81840F951F9F838E8328816E
:100CD00039818217930730F48A819B81840F951F95
:100CE0009F838E838A8D8F5F8A8FDF91CF91089546
:100CF0000F931F93CF93DF93EC018A019A8D8B8D15
:100D0000981710F080E017C0CE01422F0E942C06E9
:100D10008E8D8F3F69F48989882361F0CE014196D9
:100D20000E942009882331F081E0F801808303C00C
:100D30008F5F8E8F81E0DF91CF911F910F9108958A
:100D40007F928F929F92AF92BF92CF92DF92EF925B
:100D5000FF920F931F93DF93CF9300D000D00F9299
:100D6000CDB7DEB78C016B015D834C83722E48E0FA
:100D7000E42EF12CE80EF91E20E05E010894A11C7F
:100D8000B11C34E0832E912C8C0E9D1E01C021E0FD
:100D90000FB6F8940F92F801928D838D9817A8F4EE
:100DA000C801B601472D0E942C06F80181898823CD
:100DB00041F0C80141960E942009813011F40E943F
:100DC00018040F900FBE81E04CC08C819D81892B4F
:100DD00019F40F900FBE44C0222319F4C5010E94DC
:100DE0005A080F900FBE0E94FE070FB6F8940F929C
:100DF000F801858D8F3F09F4158EF801868D8F3FA0
:100E000009F4168E0F900FBEC501B4010E9465084B
:100E1000882309F50FB6F8940F92F801928D0F9080
:100E20000FBEF801838D981781F46C817D81C70115
:100E30000E943A0AC8010E94DA040E94570A8823D5
:100E400009F0A5CF0E941804A2CFC8010E94DA04BD
:100E50000E94570A9CCFC8010E94DA040E94570AD8
:100E600080E00F900F900F900F900F90CF91DF9137
:100E70001F910F91FF90EF90DF90CF90BF90AF90B8
:100E80009F908F907F9008950F931F93CF93DF9340
:100E9000EC010A811B810E94A3080817190711F0B1
:100EA00080E010C08E819F8101979F838E83892B64
:100EB00041F4CE0160E070E040E050E020E00E94AC
:100EC000A00681E0DF91CF911F910F910895CF93FC
:100ED000DF938FE190E00E941702EC010097F9F098
:100EE0001B821A82198218821D821C821F821E8216
:100EF0001A8E81E08B8F1C8E8FEF8D8F8E8FCE019F
:100F000008960E945A02CE0141960E945A02CE01D2
:100F100060E070E040E050E020E00E94A006CE01DA
:100F2000DF91CF910895AF92BF92CF92DF92EF926F
:100F3000FF920F931F93CF93DF93B82EA62E882393
:100F400009F442C08FE190E00E941702EC01009783
:100F5000D9F1EB2CFF24CA2CDD24CE9C8001CF9C40
:100F6000100DDE9C100D1124C80101960E9417027D
:100F70009C0199838883009721F1080F191F1B8317
:100F80000A831A8E9D838C830894E108F108EC9CF7
:100F9000C001ED9C900DFC9C900D1124280F391F71
:100FA0003F832E83BB8EAC8E8FEF8D8F8E8FCE01C5
:100FB00008960E945A02CE0141960E945A029E0152
:100FC00005C0CE010E94070220E030E0C901DF9198
:100FD000CF911F910F91FF90EF90DF90CF90BF9036
:100FE000AF9008951F93162F60E00E949307FC01B5
:100FF000009709F0128FCF011F91089580913D0352
:101000008F5F80933D0308950FB6F8940F9220915F
:101010003B0330913C030F900FBEC901089520910E
:101020003B0330913C03C901089580913F0308952B
:1010300080913D03882351F081E080933903089526
:101040008091380381508093380301C099E0E0918A
:101050003803E99FF0011124EC5BFC4F8081882369
:1010600079F39091380389E0989FD0011124AC5B0B
:10107000BC4F1196ED91FC9112970280F381E02D07
:101080001296FC93EE931197CD010396E817F9079A
:1010900031F48281938112969C938E9311971196CD
:1010A000ED91FC91129786819781909337038093FD
:1010B00036030895FC0180913A03808380913B03BD
:1010C00090913C03928381830895FC01DB010FB66C
:1010D000F8940F9290913A038081981749F02091EB
:1010E0003B0330913C03818192812817390718F521
:1010F00080913B0390913C03218132814D915C9121
:101100001197821B930B84179507A8F480913B03DA
:1011100090913C03281B390B240F351F2D933C93D2
:1011200080913A03808380913B0390913C039283AA
:10113000818380E001C081E00F900FBE089581E0BF
:101140008093390308952091360330913703C90104
:1011500008950F931F93CF93DF93EC01009709F14C
:101160009E8989A19817E9F08E010E5F1F4FC80173
:101170000E94CC0229A12E8B83E090E0821B910972
:101180009D878C8780913803821710F42093380351
:1011900089E0289FC00111248C5B9C4FB8010E94FC
:1011A0006E02DF91CF911F910F9108950F931F93BE
:1011B000CF93DF93EC01E0913603F09137033E8942
:1011C00086893817C0F5E0913603F09137032689F8
:1011D00083E090E0821B91099D878C8789E0389F8E
:1011E000C00111248C5B9C4F2A853B852817390749
:1011F000E1F48E010E5F1F4FC8010E94CC02E09106
:101200003603F091370396899E8B809138038917B6
:1012100010F49093380389E0989FC00111248C5BEF
:101220009C4FB8010E946E0206C0E0913603F09117
:10123000370386898E8BDF91CF911F910F9108958F
:101240000F931F93CF93DF93FC010580F681E02D70
:1012500006811781E8012C96CE010E94CC02809174
:101260003D038823A9F4E8012296CE010E94CC0216
:10127000D80156969C9180913803891710F4909369
:10128000380389E0989FC00111248C5B9C4F02C0F9
:1012900085E793E0BE010E946E02E0913603F09173
:1012A000370320E0D80156969C918689981708F05C
:1012B00021E0822FDF91CF911F910F910895FF922E
:1012C0000F931F93CF93DF9380913D03882309F001
:1012D0008FC080913B0390913C03019690933C0317
:1012E00080933B0380913B0390913C03892B79F5DC
:1012F0002091710330917203809173039091740374
:10130000909372038093710330937403209373035B
:1013100080913A038F5F80933A03E0917103F091DB
:1013200072038081882319F48FEF9FEF0CC0E09146
:101330007103F09172030580F681E02D0680F7813C
:10134000E02D828193819093A1008093A000209151
:101350003B0330913C038091A0009091A10028179D
:10136000390708F44AC089E0F82EE0917103F09142
:1013700072038081882339F48FEF9FEF9093A1004F
:101380008093A0003AC0E0917103F0917203058050
:10139000F681E02DC681D7812A813B8180913B0374
:1013A00090913C038217930728F43093A100209377
:1013B000A00023C08E010E5F1F4FC8010E94CC0207
:1013C0008C899D89892B21F0CE010C960E94CC023C
:1013D0009E8980913803891710F4909338039F9D5C
:1013E000C00111248C5B9C4FB8010E946E02BDCFDE
:1013F00080913E038F5F80933E03DF91CF911F91D9
:101400000F91FF900895CF93DF93EC01E0913603A5
:10141000F09137039383828380913B0390913C0347
:10142000C817D90768F48091730390917403609191
:101430003603709137036E5F7F4F0E94970217C08B
:10144000809171039091720360913603709137031C
:101450006E5F7F4F0E9497028091A0009091A10043
:10146000C817D90720F4D093A100C093A000DF9142
:10147000CF9108950F931F938B0160913603709164
:101480003703645F7F4F0E949702809136039091EB
:10149000370302960E94CC0280913B0390913C035B
:1014A000800F911F0E94030A1F910F910895CF9200
:1014B000DF92FF920F931F93DF93CF930F92CDB7DD
:1014C000DEB70FB6F8940F9280913D038150809360
:1014D0003D0380913D03882309F058C080913F036C
:1014E000882309F453C0198299E0F92E2DC0E091A8
:1014F0007A03F0917B03C680D780C6010C960E94C8
:10150000CC0286010E5F1F4FC8010E94CC02D6019B
:1015100056969C9180913803891710F49093380364
:101520009F9DC00111248C5B9C4FB8010E946E02EC
:10153000E0913603F0913703D60156969C91868947
:10154000981710F0B1E0B98380917503882379F67C
:1015500080913E03882341F40CC00E945F09809172
:101560003E03815080933E0380913E038823A9F778
:1015700007C0E981E13021F080913903813031F4F5
:10158000109239030E94180481E001C080E00F909E
:101590000FBE0F90CF91DF911F910F91FF90DF90C1
:1015A000CF9008950F931F93CF93DF93EC01009793
:1015B000C9F080913D038F5F80933D0300913B0311
:1015C00010913C03809136039091370302960E945C
:1015D000CC02CE01800F911F0E94030A0E94570A7D
:1015E000882311F40E941804DF91CF911F910F916D
:1015F0000895CF93DF93FC01EB0180913D038F5F52
:1016000080933D0320813181C20FD31F80913B0322
:1016100090913C038217930728F4C217D30728F050
:1016200020E00CC0C217D30740F080913B0390919B
:101630003C0320E08C179D0708F421E0D183C08390
:10164000222351F0809136039091370302960E9435
:10165000CC02CE010E94030A0E94570A882311F48B
:101660000E941804DF91CF910895EF92FF920F939B
:101670001F93CF93DF938C010FB6F8940F92809154
:101680003603909137030817190719F400E010E0AA
:1016900003C00115110529F4C0913603D091370319
:1016A00001C0E80122E0E22EF12CEC0EFD1EC70184
:1016B0000E94CC028C899D89892B21F0CE010C9649
:1016C0000E94CC028EE793E0B7010E946E028091E7
:1016D00041038F5F80934103809142038F5F80932A
:1016E00042030F900FBE80914003882321F0012B0D
:1016F00011F40E941804DF91CF911F910F91FF9078
:10170000EF900895F894109240030E94B903089551
:101710000F931F93809141038823E1F380913D0350
:101720008F5F80933D0310917E030E94570A11231F
:1017300089F30FB6F8940F92E0918303F09184033C
:1017400006811781C80102960E94CC0280913F0356
:10175000815080933F0380914103815080934103E6
:101760000F900FBEF8018789908D0E940702C80173
:101770000E940702CFCF2F923F925F926F927F928B
:101780008F929F92AF92BF92CF92DF92EF92FF9291
:101790000F931F93DF93CF9300D000D0CDB7DEB768
:1017A0009A8389834B015A011901502E370182E235
:1017B00090E00E9417028B839C838B819C81892BF4
:1017C00089F0C114D10421F4C5010E9417026C01F3
:1017D000EB81FC81D08EC78AC114D10429F4CF01DA
:1017E0000E9407028FEFD2C0C60165EA70E0A50132
:1017F0000E94640D0894A108B108EB81FC81E78880
:10180000F08CEA0CFB1CCF014996B40148E050E093
:101810000E946B0DEB81FC8110A2052DF2E0F51505
:1018200008F402E0EB81FC81068B01A342E0C42EA8
:10183000D12CCE0EDF1EC6010E946A028B819C81D4
:101840000C960E946A028B819C81FC0191878087A3
:1018500083E090E0801B910995878487F38BE28B6E
:10186000C70169817A81A1010E943C03EB81FC815F
:10187000918380836114710421F0CF01F30191837E
:1018800080830FB6F8940F9280913F038F5F80930F
:101890003F038091360390913703892B99F5EB81B3
:1018A000FC81F0933703E093360380913F0381304E
:1018B000D1F584E493E00E945A028DE493E00E9403
:1018C0005A0286E593E00E945A023FE5E32E33E098
:1018D000F32EC7010E945A0208E613E0C8010E94D5
:1018E0005A0285E793E00E945A028EE793E00E9435
:1018F0005A02F0927203E092710310937403009302
:10190000730311C080914003882369F4E09136038A
:10191000F09137038689581630F08B819C81909323
:10192000370380933603EB81FC81968980914303D2
:10193000891710F490934303809142038F5F809343
:101940004203EB81FC81968980913803891710F45A
:1019500090933803EB81FC81868929E0829FC00146
:1019600011248C5B9C4FB6010E946E020F900FBE3B
:1019700080914003882349F0E0913603F0913703CA
:101980008689851510F40E94180481E00F900F904D
:101990000F900F90CF91DF911F910F91FF90EF90DB
:1019A000DF90CF90BF90AF909F908F907F906F907F
:1019B0005F903F902F900895AF92BF92CF92DF92A9
:1019C000EF92FF920F9388E89BE06BE970E045E5AA
:1019D00050E020E030E000E0EE24FF24CC24DD24C1
:1019E000AA24BB240E94BB0B813049F4F894809355
:1019F000400310923C0310923B030E9484030F911A
:101A0000FF90EF90DF90CF90BF90AF90089510BC03
:101A100083E389B980B58E6080BD8AB188618AB957
:101A200008955F9BFECF8CB108951F93182F80916E
:101A300087039091880360E070E04FEF5FEF20E054
:101A40000E941A055D9BFECF1CB98091870390917F
:101A5000880360E070E040E050E020E00E94A006D3
:101A60001F9108951F93CF93DF93EC01809187031B
:101A70009091880360E070E04FEF5FEF20E00E94FC
:101A80001A0510E003C00E94150D1F5FFE01E10F53
:101A9000F11D80818823B9F7809187039091880395
:101AA00060E070E040E050E020E00E94A006DF919E
:101AB000CF911F910895FB01DC0102C001900D92AE
:101AC00041505040D8F70895DC0101C06D9341505A
:101AD0005040E0F70895FB01DC014150504048F0D0
:101AE00001900D920020C9F701C01D924150504055
:081AF000E0F70895F894FFCF20
:101AF800626C696E6B00626C696E6B320054617364
:101B08006B312069732072756E696E696E67200D7E
:101B18000A006D005461736B322069732072756E10
:101B2800696E696E67200D0A00840049444C4500BF
:021B3800FFFFAD
:00000001FF
