:100000000C942A000C9447000C9447000C94470071
:100010000C9447000C9447000C9447000C946B041C
:100020000C9447000C9447000C9447000C94470034
:100030000C9447000C9447000C9447000C94470024
:100040000C9447000C9447000C9447000C94470014
:100050000C94470011241FBECFE5D8E0DEBFCDBF12
:1000600010E0A0E6B0E0E8E3F8E102C005900D92F0
:10007000A837B107D9F713E0A8E7B0E001C01D9297
:10008000A435B107E1F70E9412030C941A0C0C94EA
:100090000000AF92BF92CF92DF92EF92FF920F9348
:1000A0001F93CF93DF936C01B62EA42E8AE190E0CC
:1000B0000E942102E82EE7017E01F92EE701209738
:1000C00009F45EC08091780090917900009721F545
:1000D000F0927900E092780084E890E00E94660255
:1000E0008DE890E00E94660250EAE52E50E0F52E81
:1000F000C7010E94660209EA10E0C8010E94660278
:100100008AE790E00E946602F0929D00E0929C00D7
:1001100010939F0000939E00BB2011F0BB24B3946A
:10012000198E188EBE8AAF8AFE01C192D1928F01BC
:10013000CF010E947402CE010C960E947402D987EE
:10014000C887DB8BCA8B82E090E08B1991099D8771
:100150008C872E8980918300821710F4209383006E
:1001600030E0C90143E0880F991F4A95E1F7820FFB
:10017000931F8C579F4FB8010E94780281E001C005
:100180008FEFDF91CF911F910F91FF90EF90DF9054
:10019000CF90BF90AF9008950F931F93CF93DF93AD
:1001A000EB0100919A0010919B00080F191F80919C
:1001B00078009091790002960E94D40260917800B4
:1001C00070917900FB011383028380919A009091D2
:1001D0009B006E5F7F4F0817190728F480919E00DF
:1001E00090919F0004C080919C0090919D000E947E
:1001F0009D02209749F06091780070917900645FCA
:100200007F4FCE010E949D02DF91CF911F910F91F0
:1002100008950F931F93CF93DF9327C0F894E09135
:100220007F00F0918000C681D781CE010C960E949C
:10023000D40278948E010E5F1F4FC8010E94D40231
:100240002E8980918300821710F42093830030E080
:10025000C901F3E0880F991FFA95E1F7820F931F08
:100260008C579F4FB8010E94780280917A008823B2
:10027000A9F60E9437092091960030919700821BC1
:10028000930B909399008093980059C00196909396
:100290009B0080939A002150304030939900209326
:1002A0009800009709F044C080919C0090919D00B7
:1002B00020919E0030919F0030939D0020939C00E0
:1002C00090939F0080939E0033C00580F681E02DBF
:1002D000C681D78120919A0030919B008A819B81B1
:1002E0002817390760F1F8948E010E5F1F4FC8017F
:1002F0000E94D4028C899D89009721F0CE010C9632
:100300000E94D40278942E8980918300821710F481
:100310002093830030E0C901E3E0880F991FEA953C
:10032000E1F7820F931F8C579F4FB8010E9478020C
:10033000E0919C00F0919D008081882331F620910E
:1003400098003091990080919A0090919B0021151E
:10035000310509F09BCF90939700809396004091D0
:10036000830006C0442319F41092830040C041501A
:10037000842F90E09C0173E0220F331F7A95E1F700
:10038000280F391FF901EC57FF4F5081552351F3C6
:1003900040938300A181B28112960D90BC91A02D53
:1003A000B283A18329573F4FA217B30731F41296A6
:1003B0002D913C91139732832183FC0163E0EE0F72
:1003C000FF1F6A95E1F7E80FF91FEC57FF4F018017
:1003D000F281E02DA681B781B0937900A0937800D7
:1003E000ED91FC911197CD0157966C910995DF9194
:1003F000CF911F910F9108950F931F93CF93DF9388
:10040000DC011596ED91FC911697C681D7818E017E
:10041000045F1F4FC8010E94D4028AE790E0B80130
:100420000E947802E0917800F091790081E02E89B5
:100430009689291708F480E0DF91CF911F910F91E1
:100440000895EF92FF920F931F93CF93DF938C0148
:100450000E943109C091B200D091B3000C0F1D1F52
:1004600022E00835120750F4C017D10738F4CC54F5
:10047000DF4F1093B3000093B20002C0C0E0D0E0A1
:100480000E94ED09CE01DF91CF911F910F91FF9056
:10049000EF90089508951092B3001092B20008955D
:1004A00028E532E08091B2009091B300281B390B0F
:1004B000C9010895A09A089585B391E0892785BB65
:1004C000089585B392E0892785BB0895FC010396C2
:1004D000928381832FEF3FEF348323839683858339
:1004E0009087878310820895FC01118610860895F5
:1004F000CF93DF93FC01DB0121813281E9018A8105
:100500009B8113969C938E93129715963C932E93F2
:1005100014978A819B81EC017D836C83E9017B8345
:100520006A83728361831996FC93EE931897808196
:100530008F5F8083DF91CF910895CF93DF93AC01DC
:10054000EB01888199812FEF8F3F920721F4FA0107
:10055000A781B08511C0DA01139604C012960D90E0
:10056000BC91A02D12962D913C911397F9012081F9
:1005700031818217930790F712968D919C91139772
:100580009B838A83FC01D583C483BD83AC8313968C
:10059000DC93CE93129759874887FA0180818F5F49
:1005A0008083DF91CF910895CF93DF93FC01A281E7
:1005B000B3818481958115969C938E931497C48101
:1005C000D581BB83AA83A085B18511968D919C911D
:1005D00012978E179F0721F41296DC93CE931197F2
:1005E000118610868C9181508C93DF91CF91089564
:1005F000EF92FF92CF93DF93E82EE7017E01F92E71
:10060000E7010E945A0233E0C83ED30729F40E9452
:100610005C0288EE93E003C00E946102CE010E945A
:100620009C0AF1CFAF92BF92CF92DF92EF92FF92EE
:100630000F9388EF92E060E670E045E550E028EE29
:1006400033E001E0EE24FF24CC24DD24AA24BB24E3
:100650000E94B20788EF92E066E670E045E550E060
:1006600028E230E00E94B2070E940009FFCF21E19A
:10067000FC01208392E2929383E3829362937293CC
:10068000129280E88293129282E0829383E08293B6
:1006900084E0829385E0829386E0829387E0829370
:1006A00088E0829389E0829380E18293229382E1C1
:1006B000829383E1829384E1829385E1829386E150
:1006C000829387E1829388E1829389E1829380E239
:1006D000829381E28293929383E282934293529334
:1006E00086E2829387E2829388E2829389E2829310
:1006F00080E3829381E382939F0121503040C901BE
:1007000008951BBC8CE78ABD8BE08EBD89B78061E4
:1007100089BFA0910C03B0910D03CD91CDBFDD91A8
:10072000DEBFFF91EF91DF91CF91BF91AF919F918C
:100730008F917F916F915F914F913F912F911F9179
:100740000F91FF90EF90DF90CF90BF90AF909F9070
:100750008F907F906F905F904F903F902F901F9061
:100760000F900FBE0F90089581E0089508950F92A5
:100770000FB6F8940F921F9211242F923F924F922E
:100780005F926F927F928F929F92AF92BF92CF9221
:10079000DF92EF92FF920F931F932F933F934F930C
:1007A0005F936F937F938F939F93AF93BF93CF93F9
:1007B000DF93EF93FF93A0910C03B0910D030DB65F
:1007C0000D920EB60D920E94000BA0910C03B091F9
:1007D0000D03CD91CDBFDD91DEBFFF91EF91DF9194
:1007E000CF91BF91AF919F918F917F916F915F91C9
:1007F0004F913F912F911F910F91FF90EF90DF90BC
:10080000CF90BF90AF909F908F907F906F905F90B0
:100810004F903F902F901F900F900FBE0F90089514
:100820000F920FB6F8940F921F9211242F923F92BD
:100830004F925F926F927F928F929F92AF92BF92F0
:10084000CF92DF92EF92FF920F931F932F933F93DC
:100850004F935F936F937F938F939F93AF93BF93C8
:10086000CF93DF93EF93FF93A0910C03B0910D030F
:100870000DB60D920EB60D920E944B090E94000B10
:10088000A0910C03B0910D03CD91CDBFDD91DEBFE2
:10089000FF91EF91DF91CF91BF91AF919F918F9198
:1008A0007F916F915F914F913F912F911F910F9188
:1008B000FF90EF90DF90CF90BF90AF909F908F9080
:1008C0007F906F905F904F903F902F901F900F9070
:1008D0000FBE0F9008950E94100418950F931F9358
:1008E000CF93DF93EC010FB6F8940F928C010F5E5B
:1008F0001F4F0DC08989882369F0C8010E946F0BC2
:10090000882311F00E94F70B8E8D81508E8F8E8D73
:10091000181684F38FEF8E8F0F900FBE0FB6F894DA
:100920000F928E01085F1F4F0DC08885882369F0E4
:10093000C8010E946F0B882311F00E94F70B8D8D68
:1009400081508D8F8D8D181684F38FEF8D8F0F90C2
:100950000FBEDF91CF911F910F910895AF92BF927B
:10096000CF92DF92EF92FF920F931F93CF93DF937B
:10097000B82EA62E882309F443C08FE190E00E9490
:100980002102E82EE7017E01F92EE7012097C1F14F
:100990000B2D10E0CA2CDD24C09E7001C19EF00C0E
:1009A000D09EF00C1124C70101960E942102998368
:1009B0008883009711F1E80EF91EFB82EA821A8EF5
:1009C0009D838C83015010400C9DA0010D9D500D06
:1009D0001C9D500D1124480F591F5F834E83BB8E01
:1009E000AC8E8FEF8D8F8E8FCE0108960E9466029F
:1009F000CE0141960E94660205C0CE010E944A02C5
:100A0000C0E0D0E0CE01DF91CF911F910F91FF9018
:100A1000EF90DF90CF90BF90AF9008957F928F922C
:100A20009F92AF92BF92CF92DF92EF92FF920F937D
:100A30001F93DF93CF9300D000D00F92CDB7DEB7D6
:100A40008C016B015D834C83722E20E07E01089443
:100A5000E11CF11C94E0A92EB12CAC0EBD1E88E067
:100A6000882E912C800E911E01C021E00FB6F894C3
:100A70000F92F801928D838D981708F04EC0448D27
:100A80004423C1F17720C1F484819581B60150E0FF
:100A90000E94FB0BF801248D84819581820F911DAA
:100AA00095838483228133818217930718F1808193
:100AB0009181958384831EC0F80186819781B60158
:100AC00050E00E94FB0BF801248D30E03095219519
:100AD0003F4F86819781820F931F97838683408142
:100AE00051818417950730F482819381820F931F7F
:100AF00097838683F801828D8F5F828F8189882317
:100B000041F0C80141960E946F0B813011F40E94A0
:100B1000B7030F900FBE81E04CC08C819D81009780
:100B200019F40F900FBE44C0222319F4C7010E948C
:100B3000B10B0F900FBE0E9431090FB6F8940F92BF
:100B4000F801858D8F3F09F4158EF801868D8F3F52
:100B500009F4168E0F900FBEC701B5010E94BC0BA1
:100B6000882309F50FB6F8940F92F801928D0F9033
:100B70000FBEF801838D981781F46C817D81C401CB
:100B80000E94520BC8010E946E040E94ED09882346
:100B900009F06BCF0E94B70368CFC8010E946E04B2
:100BA0000E94ED0962CFC8010E946E040E94ED0907
:100BB00080E00F900F900F900F900F90CF91DF91EA
:100BC0001F910F91FF90EF90DF90CF90BF90AF906B
:100BD0009F908F907F9008950F931F93CF93DF93F3
:100BE000EC018A019A8D8B8D981708F04CC04C8DC2
:100BF000442399F12223B1F48C819D8150E00E941D
:100C0000FB0B2C8D8C819D81820F911D9D838C838C
:100C10002A813B818217930700F1888199819D8306
:100C20008C831BC08E819F8150E00E94FB0B2C8D1A
:100C300030E0309521953F4F8E819F81820F931F29
:100C40009F838E83488159818417950730F48A8168
:100C50009B81820F931F9F838E838A8D8F5F8A8FE4
:100C60008E8D8F3F69F48989882379F0CE01419672
:100C70000E946F0B882349F081E0F801808306C051
:100C80008F5F8E8F02C080E001C081E0DF91CF9145
:100C90001F910F9108957F928F929F92AF92BF9272
:100CA000CF92DF92EF92FF920F931F93DF93CF9338
:100CB00000D000D00F92CDB7DEB78C01862E772EF4
:100CC0005D834C83922E20E07E010894E11CF11C90
:100CD00044E0C42ED12CCC0EDD1E31E1A32EB12C6C
:100CE000A80EB91E01C021E00FB6F8940F92F801CA
:100CF000828D882309F43DC0E680F7808081918150
:100D00000097A9F0448D9701240F311D3783268366
:100D1000628173812617370710F097838683F80165
:100D200066817781882D972D50E00E94FB0B9920DA
:100D300071F4F801828D8150828F80858823A9F01B
:100D4000C80108960E946F0B813079F40CC0F8013D
:100D5000F782E6828189882341F0C80141960E948A
:100D60006F0B882311F00E94B7030F900FBE81E034
:100D70004AC08C819D81009719F40F900FBE42C02C
:100D8000222319F4C7010E94B10B0F900FBE0E94DD
:100D900031090FB6F8940F92F801858D8F3F09F451
:100DA000158EF801868D8F3F09F4168E0F900FBEB9
:100DB000C701B6010E94BC0B8823F9F40FB6F89462
:100DC0000F92F801828D0F900FBE882381F46C8101
:100DD0007D81C5010E94520BC8010E946E040E94D1
:100DE000ED09882309F07FCF0E94B7037CCFC801AB
:100DF0000E946E040E94ED0976CFC8010E946E0425
:100E00000E94ED0980E00F900F900F900F900F90CF
:100E1000CF91DF911F910F91FF90EF90DF90CF90D6
:100E2000BF90AF909F908F907F9008950F931F93E6
:100E3000CF93DF93EC01CB018A012A8D222371F13C
:100E4000E881F9813097A1F04C8D2E813F81240FEC
:100E5000311D3F832E83AA81BB812A173B0710F0E7
:100E6000FF83EE836E812F81722F50E00E94FB0B77
:100E70008A8D81508A8F8D8D8F3F69F48885882374
:100E800079F0CE0108960E946F0B882349F081E02B
:100E9000F801808306C08F5F8D8F02C080E001C0A3
:100EA00081E0DF91CF911F910F9108950FB6F894D3
:100EB0000F92FC01828D0F900FBE0895FC01828D70
:100EC0000895CF93DF93EC01888199810E944A02B3
:100ED000CE010E944A02DF91CF910895FC01928DCC
:100EE00081E0911180E00895FC01228D81E0938DD5
:100EF000291380E00895CF93DF93EC01E0910C0378
:100F0000F0910D03938382838091100390911103DC
:100F1000C817D90768F480912F039091300360912E
:100F20000C0370910D036E5F7F4F0E949D0217C0EE
:100F3000809131039091320360910C0370910D0305
:100F40006E5F7F4F0E949D028091760090917700A6
:100F5000C817D90720F4D0937700C0937600DF91AB
:100F6000CF9108952F923F924F925F926F927F920E
:100F70008F929F92AF92BF92CF92DF92EF92FF92A9
:100F80000F931F93CF93DF931C013B015A0129015B
:100F9000470181E290E00E942102E82EE7017E01F4
:100FA000F92EE701209709F4C9C0C114D10429F42E
:100FB000C5010E942102C82ED92ED88ECF8AC11415
:100FC000D10421F4CE010E944A02B8C0C60165EAEC
:100FD00070E0A5010E94040C0894A108B108EF88F4
:100FE000F88CEA0CFB1CCE014996B30148E050E0B6
:100FF0000E940B0C18A2102F011111E01E8B72E041
:10100000A72EB12CAC0EBD1EC5010E947402CE01EC
:101010000C960E947402D987C88782E090E0811BF9
:1010200091099D878C87DB8BCA8BC701B101A20117
:101030000E943703998388838114910419F0F40185
:10104000D183C0830FB6F8940F92809134038F5FE1
:101050008093340380910C0390910D03009779F5F0
:10106000D0930D03C0930C03809134038130B1F50C
:1010700084E193E00E9466028DE193E00E946602A3
:1010800062E4E62E63E0F62EC7010E9466025BE48E
:10109000C52E53E0D52EC6010E94660286E293E07B
:1010A0000E94660287E393E00E946602F092320398
:1010B000E0923103D0923003C0922F030FC0809191
:1010C0003503882359F4E0910C03F0910D038689D0
:1010D000081720F0D0930D03C0930C032E89809144
:1010E0004103821710F420934103809140038F5FE6
:1010F0008093400380911303821710F4209313030D
:1011000030E0C90143E0880F991F4A95E1F7820F4B
:10111000931F8C5E9C4FB5010E9478020F900FBE0A
:1011200080913503882361F0E0910C03F0910D0369
:101130008689801728F40E94B70302C08FEF01C090
:1011400081E0DF91CF911F910F91FF90EF90DF90A1
:10115000CF90BF90AF909F908F907F906F905F9057
:101160004F903F902F900895EF92FF920F931F930F
:10117000CF93DF93EC010FB6F8940F9280910C039C
:1011800090910D03C817D90711F0209739F40091F9
:101190000C0310910D03C0E0D0E001C08E01E2E02D
:1011A000EE2EF12CE00EF11EC7010E94D402F801D0
:1011B00084899589009721F0C8010C960E94D40279
:1011C00087E393E0B7010E947802809136038F5F36
:1011D00080933603809140038F5F809340030F908C
:1011E0000FBE80913503882321F0209711F40E94CF
:1011F000B703DF91CF911F910F91FF90EF9008956A
:10120000AF92BF92CF92DF92EF92FF920F938CE654
:101210009AE061E770E045E550E020E030E000E072
:10122000EE24FF24CC24DD24AA24BB240E94B20790
:10123000813049F4F8948093350310921103109291
:1012400010030E9481030F91FF90EF90DF90CF90E9
:10125000BF90AF900895F894109235030E94B603A2
:101260000895809112038F5F8093120308950FB643
:10127000F8940F9220911003309111030F900FBE3C
:10128000C90108952091100330911103C9010895F7
:101290008091340308950F931F93CF93DF93809130
:1012A0001203882309F08FC08091100390911103DD
:1012B00001969093110380931003809110039091F5
:1012C0001103009779F580913103909132032091B9
:1012D0002F033091300330933203209331039093E6
:1012E000300380932F0380910F038F5F80930F0350
:1012F000E0913103F09132038081882319F48FEF5C
:101300009FEF0CC0E0913103F09132030580F6812C
:10131000E02D0680F781E02D828193819093770004
:101320008093760020911003309111038091760014
:10133000909177002817390708F44AC0E0913103EB
:10134000F09132038081882319F48FEF9FEF12C050
:10135000E0913103F09132030580F681E02DC681E2
:10136000D7818A819B812091100330911103281726
:10137000390728F4909377008093760029C08E0176
:101380000E5F1F4FC8010E94D4028C899D8900976F
:1013900021F0CE010C960E94D4022E898091130375
:1013A000821710F42093130330E0C901F3E0880F93
:1013B000991FFA95E1F7820F931F8C5E9C4FB8013D
:1013C0000E947802BBCF809133038F5F80933303F9
:1013D000DF91CF911F910F910895EF92FF920F939C
:1013E0001F93DF93CF930F92CDB7DEB70FB6F8946C
:1013F0000F92809112038150809312038091120307
:10140000882309F05EC080913403882309F459C011
:10141000198235C0E0912B03F0912C03E680F78010
:10142000C7010C960E94D40287010E5F1F4FC801AE
:101430000E94D402D70156962C915697809113039F
:10144000821710F42093130330E0C901A3E0880F42
:10145000991FAA95E1F7820F931F8C5E9C4FB801EC
:101460000E947802E0910C03F0910D03D70156968B
:101470009C9156978689981710F0B1E0B9838091B6
:101480002603882339F680913303882341F40CC066
:101490000E944B09809133038150809333038091E4
:1014A00033038823A9F707C0E981E13021F0809157
:1014B0000E03813031F410920E030E94B70381E0D5
:1014C00001C080E00F900FBE0F90CF91DF911F9170
:1014D0000F91FF90EF9008951F93CF93DF9380912A
:1014E00036038823E1F30E943109109137030E94EB
:1014F000ED091123A1F30FB6F8940F92E0913C038C
:10150000F0913D03C681D781CE0102960E94D4029C
:10151000809134038150809334038091360381504D
:10152000809336030F900FBE8F89988D0E944A02D8
:10153000CE010E944A02D3CF0F931F93CF93DF9324
:10154000EC010097B1F00E94310900911003109155
:10155000110380910C0390910D0302960E94D40216
:10156000CE01800F911F0E947B070E94ED09882306
:1015700011F40E94B703DF91CF911F910F9108954D
:101580000F931F93CF93DF938C01EB010E943109DE
:10159000F80180819181C80FD91F209110033091EB
:1015A00011032817390720F4C817D90760F403C0BE
:1015B000C817D90750F0809110039091110321E0D2
:1015C0008C179D0718F020E001C021E0F801D183BD
:1015D000C083222351F080910C0390910D03029659
:1015E0000E94D402CE010E947B070E94ED0988234D
:1015F00011F40E94B703DF91CF911F910F910895CD
:1016000080911203882349F081E080930E030895AE
:10161000809113038150809313038091130390E012
:10162000FC0153E0EE0FFF1F5A95E1F7E80FF91F99
:10163000EC5EFC4F8081882359F38091130390E086
:101640009C0143E0220F331F4A95E1F7280F391F11
:10165000F901EC5EFC4FA181B28112960D90BC9114
:10166000A02DB283A183295E3C4FA217B30731F4AA
:1016700012962D913C91139732832183FC01B3E0A4
:10168000EE0FFF1FBA95E1F7E80FF91FEC5EFC4F74
:101690000180F281E02D8681978190930D038093E4
:1016A0000C030895CF93DF93EB0160910C037091CD
:1016B0000D03645F7F4F0E949D0280910C03909107
:1016C0000D0302960E94D4028091100390911103A1
:1016D0008C0F9D1F0E947B07DF91CF9108950F9380
:1016E0001F93CF93DF93DC011596ED91FC91169734
:1016F000C681D7818E01045F1F4FC8010E94D402AA
:10170000809112038823C9F48E010E5F1F4FC80118
:101710000E94D4022E8980911303821710F4209323
:10172000130330E0C90163E0880F991F6A95E1F760
:10173000820F931F8C5E9C4F02C086E293E0B8013B
:101740000E947802E0910C03F0910D0381E02E8954
:101750009689291708F480E0DF91CF911F910F91AE
:101760000895FC0180910F03808380911003909174
:101770001103928381830895FC01DB010FB6F89475
:101780000F9290910F038081981749F020911003D8
:1017900030911103818192812817390720F520911A
:1017A000100330911103818192814D915C911197C9
:1017B000281B390B24173507B0F420911003309102
:1017C0001103821B930B840F951F11969C938E938C
:1017D00080910F0380838091100390911103928375
:1017E000818380E001C081E00F900FBE089581E009
:1017F00080930E030895FB01DC0102C001900D925D
:1018000041505040D8F70895DC0101C06D9341501C
:101810005040E0F70895FB01DC014150504048F092
:1018200001900D920020C9F701C01D924150504017
:08183000E0F70895F894FFCFE2
:10183800626C696E6B00626C696E6B3200E803283B
:081848000049444C4500FFFF7C
:00000001FF
