:100000000C942A000C9447000C9447000C94470071
:100010000C9447000C9447000C9447000C948A03FE
:100020000C9447000C9447000C9447000C94470034
:100030000C9447000C9447000C9447000C94470024
:100040000C9447000C9447000C9447000C94470014
:100050000C94470011241FBECFE5D8E0DEBFCDBF12
:1000600010E0A0E6B0E0EEE1F8E102C005900D92EC
:10007000A438B107D9F713E0A4E8B0E001C01D929D
:10008000A936B107E1F70E94E1020C940D0C0C9423
:100090000000EF92FF920F931F93FC010580F68101
:1000A000E02DE680F7808701045F1F4FC8010E94A2
:1000B000B00285EB90E0B8010E94520220E0E0918E
:1000C0008400F0918500D70156969C9186899817F7
:1000D00008F021E0822F1F910F91FF90EF9008957B
:1000E000FF920F931F93CF93DF9399E0F92E21C0D6
:1000F000F894E091BA00F091BB0006811781C80125
:100100000C960E94B0027894E8012296CE010E94DB
:10011000B002F801968980918600891710F49093B7
:1001200086009F9DC001112483579F4FBE010E94EE
:1001300052028091B5008823D9F60E944907209188
:10014000870030918800821B930B90938A008093E4
:10015000890089E0F82E53C0019690938C0080931B
:100160008B002150304030938A0020938900892BE6
:1001700009F03EC02091B1003091B2008091B300EF
:100180009091B4009093B2008093B1003093B4008A
:100190002093B3002DC00580F681E02DC681D78164
:1001A00020918B0030918C008A819B812817390720
:1001B00030F1F8948E010E5F1F4FC8010E94B0020B
:1001C0008C899D89892B21F0CE010C960E94B0026A
:1001D00078949E8980918600891710F49093860008
:1001E0009F9DC001112483579F4FB8010E94520266
:1001F000E091B100F091B2008081882361F62091F6
:10020000890030918A0080918B0090918C0021159B
:10021000310509F0A1CF90938800809387009091D9
:10022000860029E006C0992319F41092860032C096
:100230009150929FD0011124A357BF4F8C918823D6
:1002400091F3909386001196ED91FC9112970280A4
:10025000F381E02D1296FC93EE931197CD01039656
:10026000E817F90731F48281938112969C938E935B
:1002700011971196ED91FC9112970680F781E02D70
:10028000F0938500E093840020813181CF0167895C
:10029000F9010995DF91CF911F910F91FF9008957A
:1002A0000F931F93CF93DF93EB0100918B0010917D
:1002B0008C00080F191F8091840090918500029690
:1002C0000E94B002E0918400F091850013830283C4
:1002D00080918B0090918C00BF016E5F7F4F08175B
:1002E000190728F48091B3009091B40004C0809164
:1002F000B1009091B2000E947B02209749F060917A
:10030000840070918500645F7F4FCE010E947B0264
:10031000DF91CF911F910F910895AF92BF92CF922D
:10032000DF92EF92FF920F931F93CF93DF936C01B5
:10033000B62EA42E8AE190E00E941702EC010097ED
:1003400011F48FEF59C08091840090918500892B22
:1003500021F5D0938500C09384008DE890E00E9441
:100360003E0286E990E00E943E022FE9E22E20E064
:10037000F22EC7010E943E0208EA10E0C8010E9466
:100380003E0285EB90E00E943E02F092B200E092C5
:10039000B1001093B4000093B300EB2CBB2011F01C
:1003A000EE24E394198E188EEE8AAF8AFE01C19274
:1003B000D1928F01CF010E944E02CE010C960E9475
:1003C0004E02D987C887DB8BCA8B83E090E08E19F9
:1003D00091099D878C879E8980918600891710F4EA
:1003E0009093860089E0989FC001112483579F4F06
:1003F000B8010E94520281E0DF91CF911F910F91CD
:10040000FF90EF90DF90CF90BF90AF900895089548
:100410001092BF001092BE00089528E532E080914E
:10042000BE009091BF00281B390BC90108950F939E
:100430001F93CF93DF938C010E9443078091BE00EE
:100440009091BF009801280F391F42E028353407EA
:1004500058F48217930740F4EC01C054DF4F3093F7
:10046000BF002093BE0002C0C0E0D0E00E941F0980
:10047000CE01DF91CF911F910F910895FC019C0156
:100480002D5F3F4F328321838FEF9FEF94838383D0
:10049000368325833087278310820895FC011186D7
:1004A00010860895CF93DF93AC01DB01EC01298125
:1004B0003A81F9018281938113969C938E931297CE
:1004C00089819A8115969C938E9314970280F3816B
:1004D000E02D75836483E9017B836A83FA0172836B
:1004E000618319965C934E93189780818F5F808308
:1004F000DF91CF910895CF93DF939C01EB01488169
:1005000059818FEF4F3F580721F4F901A781B0853A
:1005100010C0D901139604C012960D90BC91A02D65
:100520001296ED91FC91139780819181481759079C
:1005300098F71296ED91FC911397FB83EA83D5838C
:10054000C483BD83AC831396DC93CE931297398713
:100550002887F90180818F5F8083DF91CF91089593
:10056000CF93DF93DC011296ED91FC9113971496D3
:100570008D919C911597958384831496CD91DC91F0
:100580001597FB83EA831896ED91FC911997818169
:1005900092818A179B0711F4D283C18319961C920A
:1005A0001E921897808181508083DF91CF910895AA
:1005B0000F931F938C010E94CF0BC8010E94E10B87
:1005C000FCCFAF92BF92CF92DF92EF92FF920F9348
:1005D0000E94CF0B209172003091730088ED92E061
:1005E00060E670E045E550E002E0EE24FF24CC2414
:1005F000DD24AA24BB240E94840A20917A00309131
:100600007B0088ED92E066E670E045E550E00E94F0
:10061000840A0E94A40BFFCFFC0191E1908322E2A7
:10062000229383E3829362937293129280E882937F
:10063000129282E0829383E0829384E0829385E049
:10064000829386E0829387E0829388E0829389E0B8
:10065000829380E18293929382E1829383E18293F9
:1006600084E1829385E1829386E1829387E182939C
:1006700088E1829389E1829380E2829381E282938E
:10068000229383E282934293529386E2829387E29B
:10069000829388E2829389E2829380E3829381E36A
:1006A00082933197CF0108951BBC8CE78ABD8BE004
:1006B0008EBD89B7806189BFA0911803B0911903DD
:1006C000CD91CDBFDD91DEBFFF91EF91DF91CF9155
:1006D000BF91AF919F918F917F916F915F914F915A
:1006E0003F912F911F910F91FF90EF90DF90CF904E
:1006F000BF90AF909F908F907F906F905F904F9042
:100700003F902F901F900F900FBE0F90089581E0A3
:10071000089508951F920F920FB60F9211242F93F0
:100720003F934F935F936F937F938F939F93AF9379
:10073000BF93EF93FF930E942708FF91EF91BF9122
:10074000AF919F918F917F916F915F914F913F9169
:100750002F910F900FBE0F901F9018950F920FB60C
:10076000F8940F921F9211242F923F924F925F9212
:100770006F927F928F929F92AF92BF92CF92DF92B1
:10078000EF92FF920F931F932F933F934F935F939B
:100790006F937F938F939F93AF93BF93CF93DF9389
:1007A000EF93FF93A0911803B09119030DB60D922A
:1007B0000EB60D920E9427080E945D07A0911803B3
:1007C000B0911903CD91CDBFDD91DEBFFF91EF91C7
:1007D000DF91CF91BF91AF919F918F917F916F9159
:1007E0005F914F913F912F911F910F91FF90EF904B
:1007F000DF90CF90BF90AF909F908F907F906F9041
:100800005F904F903F902F901F900F900FBE0F90D2
:1008100008950F920FB6F8940F921F9211242F9201
:100820003F924F925F926F927F928F929F92AF9280
:10083000BF92CF92DF92EF92FF920F931F932F936D
:100840003F934F935F936F937F938F939F93AF9358
:10085000BF93CF93DF93EF93FF93A0911803B091D1
:1008600019030DB60D920EB60D920E945D07A09170
:100870001803B0911903CD91CDBFDD91DEBFFF917B
:10088000EF91DF91CF91BF91AF919F918F917F9128
:100890006F915F914F913F912F911F910F91FF9019
:1008A000EF90DF90CF90BF90AF909F908F907F9010
:1008B0006F905F904F903F902F901F900F900FBEC2
:1008C0000F900895FC010FB6F8940F92828D0F904F
:1008D0000FBE0895FC01828D0895FC01828D90E089
:1008E000882309F491E0892F0895FC01928D20E07E
:1008F000838D981709F421E0822F08950F931F9399
:100900008C01FC01808191810E940702C8010E9434
:1009100007021F910F9108950F931F93CF93DF93B9
:10092000EC01FB018A018A8D882381F1488159817C
:1009300041155105A9F08C8D2E813F81280F311D65
:100940003F832E838A819B812817390710F05F83AC
:100950004E834C8D6E817F81CF0150E00E94EE0B63
:100960008A8D81508A8F8D8D8F3F69F48885882389
:1009700061F0CE0108960E94E807882331F081E0FB
:10098000F801808303C08F5F8D8F81E0DF91CF916D
:100990001F910F910895CF93DF93EC01842F4C8D1D
:1009A0004423A1F18823B1F48C819D8150E00E9401
:1009B000EE0B8C8D2C813D81280F311D3D832C83C6
:1009C0008A819B812817390708F1888199819D8345
:1009D0008C831CC08E819F8150E00E94EE0B8C8D19
:1009E00090E044275527481B590B8E819F81840F27
:1009F000951F9F838E83288139818217930730F456
:100A00008A819B81840F951F9F838E838A8D8F5F40
:100A10008A8FDF91CF9108950F931F93CF93DF9328
:100A2000EC018A019A8D8B8D981710F080E017C029
:100A3000CE01422F0E94CB048E8D8F3F69F48989AD
:100A4000882361F0CE0141960E94E807882331F0A7
:100A500081E0F801808303C08F5F8E8F81E0DF919A
:100A6000CF911F910F9108950F931F93CF93DF9311
:100A7000EC010FB6F8940F928C010F5E1F4F0DC062
:100A80008989882369F0C8010E94E807882311F04A
:100A90000E94E4078E8D81508E8F8E8D181684F300
:100AA0008FEF8E8F0F900FBE0FB6F8940F928E01BE
:100AB000085F1F4F0DC08885882369F0C8010E9418
:100AC000E807882311F00E94E4078D8D81508D8FF7
:100AD0008D8D181684F38FEF8D8F0F900FBEDF91E1
:100AE000CF911F910F9108957F928F929F92AF9215
:100AF000BF92CF92DF92EF92FF920F931F93DF93FB
:100B0000CF9300D000D00F92CDB7DEB78C01962ED8
:100B1000872E5D834C83722E91E1C92ED12CC00E9D
:100B2000D11E20E07E010894E11CF11C84E0A82E77
:100B3000B12CAC0EBD1E01C021E00FB6F8940F928F
:100B4000F801828D882309F43EC0E680F780408159
:100B5000518141155105B1F0848D9701280F311D48
:100B600037832683828193812817390710F05783B2
:100B70004683F801448D66817781892D982D50E058
:100B80000E94EE0B772071F4F801828D8150828FE4
:100B900080858823A1F0C80108960E94E80781306B
:100BA00071F40BC0F801F782E6828189882339F05D
:100BB000C6010E94E807882311F00E9409040F90E3
:100BC0000FBE81E04AC08C819D81892B19F40F9062
:100BD0000FBE42C0222319F4C7010E949F070F9045
:100BE0000FBE0E9443070FB6F8940F92F801858D4F
:100BF0008F3F09F4158EF801868D8F3F09F4168E0C
:100C00000F900FBEC701B5010E94AA078823F9F40F
:100C10000FB6F8940F92F801828D0F900FBE8823C3
:100C200081F46C817D81C6010E940209C8010E9485
:100C300034050E941F09882309F07ECF0E94090411
:100C40007BCFC8010E9434050E941F0975CFC801DF
:100C50000E9434050E941F0980E00F900F900F90B2
:100C60000F900F90CF91DF911F910F91FF90EF9018
:100C7000DF90CF90BF90AF909F908F907F9008951E
:100C80007F928F929F92AF92BF92CF92DF92EF921C
:100C9000FF920F931F93DF93CF9300D000D00F925A
:100CA000CDB7DEB78C016B015D834C83722E48E0BB
:100CB000E42EF12CE80EF91E20E05E010894A11C40
:100CC000B11C34E0832E912C8C0E9D1E01C021E0BE
:100CD0000FB6F8940F92F801928D838D9817A8F4AF
:100CE000C801B601472D0E94CB04F80181898823F1
:100CF00041F0C80141960E94E807813011F40E943A
:100D000009040F900FBE81E04CC08C819D81892B1E
:100D100019F40F900FBE44C0222319F4C5010E949C
:100D20009F070F900FBE0E9443070FB6F8940F92D3
:100D3000F801858D8F3F09F4158EF801868D8F3F60
:100D400009F4168E0F900FBEC501B4010E94AA07C8
:100D5000882309F50FB6F8940F92F801928D0F9041
:100D60000FBEF801838D981781F46C817D81C701D6
:100D70000E940209C8010E9434050E941F098823AD
:100D800009F0A5CF0E940904A2CFC8010E94340532
:100D90000E941F099CCFC8010E9434050E941F09B0
:100DA00080E00F900F900F900F900F90CF91DF91F8
:100DB0001F910F91FF90EF90DF90CF90BF90AF9079
:100DC0009F908F907F900895AF92BF92CF92DF92C5
:100DD000EF92FF920F931F93CF93DF93B82EA62E1F
:100DE000882309F442C08FE190E00E941702EC01D1
:100DF0000097D9F1EB2CFF24CA2CDD24CE9C800176
:100E0000CF9C100DDE9C100D1124C80101960E948C
:100E100017029C0199838883009721F1080F191FFD
:100E20001B830A831A8E9D838C830894E108F10842
:100E3000EC9CC001ED9C900DFC9C900D1124280FA2
:100E4000391F3F832E83BB8EAC8E8FEF8D8F8E8F9D
:100E5000CE0108960E943E02CE0141960E943E02BB
:100E60009E0105C0CE010E94070220E030E0C901CA
:100E7000DF91CF911F910F91FF90EF90DF90CF9076
:100E8000BF90AF90089580911E038F5F80931E03E3
:100E900008950FB6F8940F9220911C0330911D0312
:100EA0000F900FBEC901089520911C0330911D03BE
:100EB000C901089580912103089580911E0388231C
:100EC00051F081E080931A03089580911F038150AF
:100ED00080931F0301C099E0E0911F03E99FF00197
:100EE0001124EA5DFC4F8081882379F390911F03E0
:100EF00089E0989FD0011124AA5DBC4F1196ED9115
:100F0000FC9112970280F381E02D1296FC93EE93F0
:100F10001197CD010396E817F90731F48281938187
:100F200012969C938E9311971196ED91FC911297C6
:100F30008681978190931903809318030895FC018B
:100F400080911B03808380911C0390911D039283E9
:100F500081830895FC01DB010FB6F8940F92909104
:100F60001B038081981749F020911C0330911D03C9
:100F7000818192812817390718F580911C0390917F
:100F80001D03218132814D915C911197821B930B3E
:100F900084179507A8F480911C0390911D03281BCA
:100FA000390B240F351F2D933C9380911B038083B5
:100FB00080911C0390911D039283818380E001C086
:100FC00081E00F900FBE089581E080931A03089589
:100FD0000F931F93CF93DF93FC010580F681E02DE3
:100FE00006811781E8012C96CE010E94B002809103
:100FF0001E038823A9F4E8012296CE010E94B002C4
:10100000D80156969C9180911F03891710F49093F4
:101010001F0389E0989FC00111248A5D9C4F02C084
:1010200087E593E0BE010E945202E0911803F0911F
:10103000190320E0D80156969C918689981708F0EC
:1010400021E0822FDF91CF911F910F910895FF92A0
:101050000F931F93CF93DF9380911E03882309F092
:101060008FC080911C0390911D03019690931D03E6
:1010700080931C0380911C0390911D03892B79F5AB
:10108000209153033091540380915503909156035E
:101090009093540380935303309356032093550346
:1010A00080911B038F5F80931B03E0915303F091AA
:1010B00054038081882319F48FEF9FEF0CC0E091D7
:1010C0005303F09154030580F681E02D0680F781EB
:1010D000E02D828193819093820080938100209102
:1010E0001C0330911D03809181009091820028178C
:1010F000390708F44AC089E0F82EE0915303F091D3
:1011000054038081882339F48FEF9FEF90938200FE
:10111000809381003AC0E0915303F091540305801D
:10112000F681E02DC681D7812A813B8180911C0305
:1011300090911D038217930728F430938200209327
:10114000810023C08E010E5F1F4FC8010E94B002B4
:101150008C899D89892B21F0CE010C960E94B002CA
:101160009E8980911F03891710F490931F039F9D00
:10117000C00111248A5D9C4FB8010E945202BDCF6C
:10118000809120038F5F80932003DF91CF911F9187
:101190000F91FF900895CF93DF93EC01E091180336
:1011A000F09119039383828380911C0390911D0316
:1011B000C817D90768F48091550390915603609140
:1011C0001803709119036E5F7F4F0E947B0217C056
:1011D0008091530390915403609118037091190307
:1011E0006E5F7F4F0E947B02809181009091820010
:1011F000C817D90720F4D0938200C0938100DF91F3
:10120000CF9108950F931F938B01609118037091F4
:101210001903645F7F4F0E947B02809118039091B5
:10122000190302960E94B00280911C0390911D0345
:10123000800F911F0E94CB081F910F910895CF92AC
:10124000DF92FF920F931F93DF93CF930F92CDB74F
:10125000DEB70FB6F8940F9280911E0381508093F1
:101260001E0380911E03882309F057C0809121033B
:10127000882309F452C0198299E0F92E2DC0E0911B
:101280005C03F0915D03C680D780C6010C960E9476
:10129000B00286010E5F1F4FC8010E94B002D60146
:1012A00056969C9180911F03891710F490931F0309
:1012B0009F9DC00111248A5D9C4FB8010E9452027B
:1012C000E0911803F0911903D60156969C918689F6
:1012D000981710F0B1E0B98380915703882379F60D
:1012E00080912003882341F40BC00E94270880913D
:1012F0002003815080932003809120038823A9F745
:10130000E981E13021F080911A03813031F41092AB
:101310001A030E94090481E001C080E00F900FBE13
:101320000F90CF91DF911F910F91FF90DF90CF90A1
:1013300008950F931F93CF93DF93EC010097C9F0AB
:1013400080911E038F5F80931E0300911C031091F8
:101350001D03809118039091190302960E94B00218
:10136000CE01800F911F0E94CB080E941F09882385
:1013700011F40E940904DF91CF911F910F910895FC
:10138000CF93DF93FC01EB0180911E038F5F80936D
:101390001E0320813181C20FD31F80911C039091C5
:1013A0001D038217930728F4C217D30728F020E003
:1013B0000CC0C217D30740F080911C0390911D030D
:1013C00020E08C179D0708F421E0D183C0832223FD
:1013D00051F0809118039091190302960E94B00277
:1013E000CE010E94CB080E941F09882311F40E949D
:1013F0000904DF91CF910895EF92FF920F931F930D
:10140000CF93DF938C010FB6F8940F92809118035D
:10141000909119030817190719F400E010E003C0B0
:101420000115110529F4C0911803D091190301C0C9
:10143000E80122E0E22EF12CEC0EFD1EC7010E9415
:10144000B0028C899D89892B21F0CE010C960E94D7
:10145000B00280E693E0B7010E945202809123031C
:101460008F5F80932303809124038F5F80932403F5
:101470000F900FBE80912203882321F0012B11F4DD
:101480000E940904DF91CF911F910F91FF90EF907F
:101490000895F894109222030E94890308950F93EF
:1014A0001F9380912303882361F180911E038F5F36
:1014B00080931E03109160030E941F09112309F1FC
:1014C0000FB6F8940F92E0916503F09166030681E0
:1014D0001781C80102960E94B002809121038150B9
:1014E00080932103809123038150809323030F90E5
:1014F0000FBEF8018789908D0E940702C8010E94E3
:1015000007020E940904CDCF2F923F925F926F9203
:101510007F928F929F92AF92BF92CF92DF92EF9283
:10152000FF920F931F93DF93CF9300D000D0CDB7DE
:10153000DEB79A8389834B015A011901502E370176
:1015400081E290E00E9417028B839C838B819C81B7
:10155000892B89F0C114D10421F4C5010E9417021E
:101560006C01EB81FC81D08EC78AC114D10429F4AF
:10157000CF010E9407028FEFD1C0C60165EA70E07B
:10158000A5010E94F70B0894A108B108EB81FC812A
:10159000E788F08CEA0CFB1CCF014996B40148E0C7
:1015A00050E00E94FE0BEB81FC8110A2052DF2E0C1
:1015B000F51508F402E0EB81FC81068B42E0C42EB5
:1015C000D12CCE0EDF1EC6010E944E028B819C8163
:1015D0000C960E944E028B819C81FC019187808732
:1015E00083E090E0801B910995878487F38BE28BE1
:1015F000C70169817A81A1010E940C03EB81FC8102
:10160000918380836114710421F0CF01F3019183F0
:1016100080830FB6F8940F92809121038F5F80939F
:1016200021038091180390911903892B99F5EB817F
:10163000FC81F0931903E09318038091210381301A
:10164000D1F586E293E00E943E028FE293E00E9491
:101650003E0288E393E00E943E0231E4E32E33E051
:10166000F32EC7010E943E020AE413E0C8010E9463
:101670003E0287E593E00E943E0280E693E00E94EE
:101680003E02F0925403E0925303109356030093EA
:10169000550311C080912203882369F4E091180357
:1016A000F09119038689581630F08B819C819093B4
:1016B000190380931803EB81FC819689809125039F
:1016C000891710F490932503809124038F5F8093F2
:1016D0002403EB81FC81968980911F03891710F404
:1016E00090931F03EB81FC81868929E0829FC001D2
:1016F00011248A5D9C4FB6010E9452020F900FBECA
:1017000080912203882349F0E0911803F091190396
:101710008689851510F40E94090481E00F900F90CE
:101720000F900F90CF91DF911F910F91FF90EF904D
:10173000DF90CF90BF90AF909F908F907F906F90F1
:101740005F903F902F900895AF92BF92CF92DF921B
:10175000EF92FF920F938FE49AE06CE770E045E51B
:1017600050E020E030E000E0EE24FF24CC24DD2433
:10177000AA24BB240E94840A813049F4F8948093FF
:10178000220310921D0310921C030E9454030F9118
:10179000FF90EF90DF90CF90BF90AF90089510BC76
:1017A00083E389B980B58E6080BD8AB188618AB9CA
:1017B00008955D9BFECF8CB908955F9BFECF8CB1E1
:1017C000089520E004C05D9BFECFECB92F5FFC01C3
:1017D000E20FF11DE081EE23B1F70895FB01DC017A
:1017E00002C001900D9241505040D8F70895DC019D
:1017F00001C06D9341505040E0F70895FB01DC01BA
:101800004150504048F001900D920020C9F701C0AE
:0E1810001D9241505040E0F70895F894FFCF2C
:10181E005461736B31005461736B32003130300D93
:10182E000A006C003230300D0A00740049444C45F9
:04183E0000FFFF00A8
:00000001FF
