:100000000C942A000C9447000C9447000C94470071
:100010000C9447000C9447000C9447000C943D044A
:100020000C9447000C9447000C9447000C94470034
:100030000C9447000C9447000C9447000C94470024
:100040000C9447000C9447000C9447000C94470014
:100050000C94470011241FBECFE5D8E0DEBFCDBF12
:1000600010E0A0E6B0E0EAE8F8E102C005900D92E9
:10007000A23FB107D9F713E0A2EFB0E001C01D9293
:10008000A93DB107E1F70E942A030C94430C0C949C
:100090000000EF92FF920F931F93FC010580F68101
:1000A000E02DE680F7808701045F1F4FC8010E94A2
:1000B000B00283E291E0B8010E94520220E0E09198
:1000C000F200F091F300D70156969C91868998171B
:1000D00008F021E0822F1F910F91FF90EF9008957B
:1000E000FF920F931F93CF93DF9399E0F92E21C0D6
:1000F000F894E0912801F091290106811781C80147
:100100000C960E94B0027894E8012296CE010E94DB
:10011000B002F80196898091F400891710F4909349
:10012000F4009F9DC001112485509F4FBE010E9485
:100130005202809123018823D9F60E9480072091E2
:10014000F5003091F600821B930B9093F80080939A
:10015000F70089E0F82E53C001969093FA0080933F
:10016000F900215030403093F8002093F700892B9C
:1001700009F03EC020911F013091200180912101A2
:10018000909122019093200180931F0130932201CE
:10019000209321012DC00580F681E02DC681D781F5
:1001A0002091F9003091FA008A819B812817390744
:1001B00030F1F8948E010E5F1F4FC8010E94B0020B
:1001C0008C899D89892B21F0CE010C960E94B0026A
:1001D00078949E898091F400891710F49093F4002C
:1001E0009F9DC001112485509F4FB8010E9452026B
:1001F000E0911F01F09120018081882361F6209118
:10020000F7003091F8008091F9009091FA002115E3
:10021000310509F0A1CF9093F6008093F5009091FD
:10022000F40029E006C0992319F41092F40032C0BA
:100230009150929FD0011124A550BF4F8C918823DB
:1002400091F39093F4001196ED91FC911297028036
:10025000F381E02D1296FC93EE931197CD01039656
:10026000E817F90731F48281938112969C938E935B
:1002700011971196ED91FC9112970680F781E02D70
:10028000F093F300E093F20020813181CF01678980
:10029000F9010995DF91CF911F910F91FF9008957A
:1002A0000F931F93CF93DF93EB010091F90010910F
:1002B000FA00080F191F8091F2009091F300029646
:1002C0000E94B002E091F200F091F30013830283E8
:1002D0008091F9009091FA00BF016E5F7F4F08177F
:1002E000190728F4809121019091220104C0809186
:1002F0001F01909120010E947B02209749F060919C
:10030000F2007091F300645F7F4FCE010E947B0288
:10031000DF91CF911F910F910895AF92BF92CF922D
:10032000DF92EF92FF920F931F93CF93DF936C01B5
:10033000B62EA42E8AE190E00E941702EC010097ED
:1003400011F48FEF59C08091F2009091F300892B46
:1003500021F5D093F300C093F2008BEF90E00E9460
:100360003E0284E091E00E943E022DE0E22E21E078
:10037000F22EC7010E943E0206E111E0C8010E9470
:100380003E0283E291E00E943E02F0922001E09260
:100390001F011093220100932101EB2CBB2011F0CF
:1003A000EE24E394198E188EEE8AAF8AFE01C19274
:1003B000D1928F01CF010E944E02CE010C960E9475
:1003C0004E02D987C887DB8BCA8B83E090E08E19F9
:1003D00091099D878C879E898091F400891710F47C
:1003E0009093F40089E0989FC001112485509F4F9D
:1003F000B8010E94520281E0DF91CF911F910F91CD
:10040000FF90EF90DF90CF90BF90AF900895089548
:1004100010922D0110922C01089528E532E0809170
:100420002C0190912D01281B390BC90108950F93C0
:100430001F93CF93DF938C010E947A0780912C0148
:1004400090912D019801280F391F42E0283534077B
:1004500058F48217930740F4EC01C25DDE4F3093ED
:100460002D0120932C0102C0C0E0D0E00E9456096B
:10047000CE01DF91CF911F910F910895FC019C0156
:100480002D5F3F4F328321838FEF9FEF94838383D0
:10049000368325833087278310820895FC011186D7
:1004A00010860895CF93DF93AC01DB01EC01298125
:1004B0003A81F9018281938113969C938E931297CE
:1004C00089819A8115969C938E9314970280F3816B
:1004D000E02D75836483E9017B836A83FA0172836B
:1004E000618319965C934E93189780818F5F808308
:1004F000DF91CF910895CF93DF939C01EB01488169
:1005000059818FEF4F3F580721F4F901A781B0853A
:1005100010C0D901139604C012960D90BC91A02D65
:100520001296ED91FC91139780819181481759079C
:1005300098F71296ED91FC911397FB83EA83D5838C
:10054000C483BD83AC831396DC93CE931297398713
:100550002887F90180818F5F8083DF91CF91089593
:10056000CF93DF93DC011296ED91FC9113971496D3
:100570008D919C911597958384831496CD91DC91F0
:100580001597FB83EA831896ED91FC911997818169
:1005900092818A179B0711F4D283C18319961C920A
:1005A0001E921897808181508083DF91CF910895AA
:1005B0000F931F93DF93CF93CDB7DEB765970FB639
:1005C000F894DEBF0FBECDBF8E010F5F1F4F80912D
:1005D000D7039091D803B80148EE53E020E00E9481
:1005E000AB05813091F48D89813619F480E690E075
:1005F00002C082E890E00E94170CC8010E94170C0C
:1006000084E690E00E94D109E2CF84EA90E00E9463
:10061000170CDDCF0F931F93DF93CF93CDB7DEB7CA
:1006200065970FB6F894DEBF0FBECDBF8E010F5F8A
:100630001F4F8091D7039091D803B8014FEF5FEF20
:1006400020E00E94770684E690E00E94D1090E9493
:100650004004EFCFAF92BF92CF92DF92EF92FF9222
:100660000F930E94050C83E065E10E941B079093A5
:10067000D8038093D7038AE093E06FEA70E045E502
:1006800050E021EC30E001E0EE24FF24CC24DD2416
:10069000AA24BB240E94BA0A8AE093E065EB70E0CA
:1006A00045E550E026ED30E00E94BA0A88ED92E080
:1006B0006BEB70E045E550E020E030E002E00E94A6
:1006C000BA0A0E94DA0BFFCFFC0191E1908322E28B
:1006D000229383E3829362937293129280E88293CF
:1006E000129282E0829383E0829384E0829385E099
:1006F000829386E0829387E0829388E0829389E008
:10070000829380E18293929382E1829383E1829348
:1007100084E1829385E1829386E1829387E18293EB
:1007200088E1829389E1829380E2829381E28293DD
:10073000229383E282934293529386E2829387E2EA
:10074000829388E2829389E2829380E3829381E3B9
:1007500082933197CF0108951BBC8CE78ABD8BE053
:100760008EBD89B7806189BFA0918603B091870350
:10077000CD91CDBFDD91DEBFFF91EF91DF91CF91A4
:10078000BF91AF919F918F917F916F915F914F91A9
:100790003F912F911F910F91FF90EF90DF90CF909D
:1007A000BF90AF909F908F907F906F905F904F9091
:1007B0003F902F901F900F900FBE0F90089581E0F3
:1007C000089508950F920FB6F8940F921F92112476
:1007D0002F923F924F925F926F927F928F929F9251
:1007E000AF92BF92CF92DF92EF92FF920F931F933F
:1007F0002F933F934F935F936F937F938F939F9329
:10080000AF93BF93CF93DF93EF93FF93A0918603B2
:10081000B09187030DB60D920EB60D920E945E0840
:100820000E949407A0918603B0918703CD91CDBF1C
:10083000DD91DEBFFF91EF91DF91CF91BF91AF913D
:100840009F918F917F916F915F914F913F912F91E8
:100850001F910F91FF90EF90DF90CF90BF90AF90DE
:100860009F908F907F906F905F904F903F902F90D0
:100870001F900F900FBE0F9008950E94E2031895ED
:100880000F920FB6F8940F921F9211242F923F925D
:100890004F925F926F927F928F929F92AF92BF9290
:1008A000CF92DF92EF92FF920F931F932F933F937C
:1008B0004F935F936F937F938F939F93AF93BF9368
:1008C000CF93DF93EF93FF93A0918603B0918703BB
:1008D0000DB60D920EB60D920E949407A09186035C
:1008E000B0918703CD91CDBFDD91DEBFFF91EF9138
:1008F000DF91CF91BF91AF919F918F917F916F9138
:100900005F914F913F912F911F910F91FF90EF9029
:10091000DF90CF90BF90AF909F908F907F906F901F
:100920005F904F903F902F901F900F900FBE0F90B1
:100930000895FC010FB6F8940F92828D0F900FBEB0
:100940000895FC01828D0895FC01828D90E088233A
:1009500009F491E0892F0895FC01928D20E0838DA8
:10096000981709F421E0822F08950F931F938C01AB
:10097000FC01808191810E940702C8010E94070248
:100980001F910F9108950F931F93CF93DF93EC0165
:10099000FB018A018A8D882381F1488159814115A3
:1009A0005105A9F08C8D2E813F81280F311D3F8389
:1009B0002E838A819B812817390710F05F834E832D
:1009C0004C8D6E817F81CF0150E00E94240C8A8D76
:1009D00081508A8F8D8D8F3F69F48885882361F0DF
:1009E000CE0108960E941F08882331F081E0F801AB
:1009F000808303C08F5F8D8F81E0DF91CF911F9146
:100A00000F910895CF93DF93EC01842F4C8D4423F5
:100A1000A1F18823B1F48C819D8150E00E94240CC7
:100A20008C8D2C813D81280F311D3D832C838A8143
:100A30009B812817390708F1888199819D838C83D0
:100A40001CC08E819F8150E00E94240C8C8D90E010
:100A500044275527481B590B8E819F81840F951F72
:100A60009F838E83288139818217930730F48A818E
:100A70009B81840F951F9F838E838A8D8F5F8A8FC2
:100A8000DF91CF9108950F931F93CF93DF93EC01E4
:100A90008A019A8D8B8D981710F080E017C0CE01D7
:100AA000422F0E9402058E8D8F3F69F48989882329
:100AB00061F0CE0141960E941F08882331F081E049
:100AC000F801808303C08F5F8E8F81E0DF91CF912B
:100AD0001F910F9108950F931F93CF93DF93EC0114
:100AE0000FB6F8940F928C010F5E1F4F0DC08989CD
:100AF000882369F0C8010E941F08882311F00E9412
:100B00001B088E8D81508E8F8E8D181684F38FEF7B
:100B10008E8F0F900FBE0FB6F8940F928E01085F64
:100B20001F4F0DC08885882369F0C8010E941F08E7
:100B3000882311F00E941B088D8D81508D8F8D8D23
:100B4000181684F38FEF8D8F0F900FBEDF91CF912A
:100B50001F910F9108957F928F929F92AF92BF92B3
:100B6000CF92DF92EF92FF920F931F93DF93CF9379
:100B700000D000D00F92CDB7DEB78C01962E872E15
:100B80005D834C83722E91E1C92ED12CC00ED11EF3
:100B900020E07E010894E11CF11C84E0A82EB12C19
:100BA000AC0EBD1E01C021E00FB6F8940F92F80103
:100BB000828D882309F43EC0E680F7804081518110
:100BC00041155105B1F0848D9701280F311D3783F0
:100BD0002683828193812817390710F05783468333
:100BE000F801448D66817781892D982D50E00E940F
:100BF000240C772071F4F801828D8150828F8085DA
:100C00008823A1F0C80108960E941F08813071F462
:100C10000BC0F801F782E6828189882339F0C6018A
:100C20000E941F08882311F00E9440040F900FBEFD
:100C300081E04AC08C819D81892B19F40F900FBEF1
:100C400042C0222319F4C7010E94D6070F900FBE9D
:100C50000E947A070FB6F8940F92F801858D8F3FA6
:100C600009F4158EF801868D8F3F09F4168E0F90CA
:100C70000FBEC701B5010E94E1078823F9F40FB642
:100C8000F8940F92F801828D0F900FBE882381F4A3
:100C90006C817D81C6010E943909C8010E946B05E3
:100CA0000E945609882309F07ECF0E9440047BCF22
:100CB000C8010E946B050E94560975CFC8010E94A9
:100CC0006B050E94560980E00F900F900F900F90D7
:100CD0000F90CF91DF911F910F91FF90EF90DF90D8
:100CE000CF90BF90AF909F908F907F9008957F920C
:100CF0008F929F92AF92BF92CF92DF92EF92FF922C
:100D00000F931F93DF93CF9300D000D00F92CDB7F6
:100D1000DEB78C016B015D834C83722E48E0E42EBC
:100D2000F12CE80EF91E20E05E010894A11CB11C14
:100D300034E0832E912C8C0E9D1E01C021E00FB655
:100D4000F8940F92F801928D838D9817A8F4C8013A
:100D5000B601472D0E940205F8018189882341F0E0
:100D6000C80141960E941F08813011F40E9440047E
:100D70000F900FBE81E04CC08C819D81892B19F4AE
:100D80000F900FBE44C0222319F4C5010E94D6075C
:100D90000F900FBE0E947A070FB6F8940F92F801D9
:100DA000858D8F3F09F4158EF801868D8F3F09F4EC
:100DB000168E0F900FBEC501B4010E94E107882373
:100DC00009F50FB6F8940F92F801928D0F900FBEAF
:100DD000F801838D981781F46C817D81C7010E9491
:100DE0003909C8010E946B050E945609882309F041
:100DF000A5CF0E944004A2CFC8010E946B050E94AB
:100E000056099CCFC8010E946B050E94560980E0DC
:100E10000F900F900F900F900F90CF91DF911F9137
:100E20000F91FF90EF90DF90CF90BF90AF909F9089
:100E30008F907F900895AF92BF92CF92DF92EF9202
:100E4000FF920F931F93CF93DF93B82EA62E882384
:100E500009F442C08FE190E00E941702EC01009774
:100E6000D9F1EB2CFF24CA2CDD24CE9C8001CF9C31
:100E7000100DDE9C100D1124C80101960E9417026E
:100E80009C0199838883009721F1080F191F1B8308
:100E90000A831A8E9D838C830894E108F108EC9CE8
:100EA000C001ED9C900DFC9C900D1124280F391F62
:100EB0003F832E83BB8EAC8E8FEF8D8F8E8FCE01B6
:100EC00008960E943E02CE0141960E943E029E017B
:100ED00005C0CE010E94070220E030E0C901DF9189
:100EE000CF911F910F91FF90EF90DF90CF90BF9027
:100EF000AF90089580918C038F5F80938C03089549
:100F00000FB6F8940F9220918A0330918B030F90C3
:100F10000FBEC901089520918A0330918B03C90146
:100F2000089580918F03089580918C03882351F058
:100F300081E080938803089580918D038150809390
:100F40008D0301C099E0E0918D03E99FF001112428
:100F5000EC56FC4F8081882379F390918D0389E0D2
:100F6000989FD0011124AC56BC4F1196ED91FC9185
:100F700012970280F381E02D1296FC93EE93119765
:100F8000CD010396E817F90731F482819381129617
:100F90009C938E9311971196ED91FC9112978681F7
:100FA000978190938703809386030895FC01809135
:100FB0008903808380918A0390918B03928381833C
:100FC0000895FC01DB010FB6F8940F92909189030C
:100FD0008081981749F020918A0330918B03818199
:100FE00092812817390718F580918A0390918B0315
:100FF000218132814D915C911197821B930B841753
:101000009507A8F480918A0390918B03281B390BD4
:10101000240F351F2D933C93809189038083809109
:101020008A0390918B039283818380E001C081E0E9
:101030000F900FBE089581E08093880308950F9369
:101040001F93CF93DF93FC010580F681E02D06818D
:101050001781E8012C96CE010E94B00280918C038A
:101060008823A9F4E8012296CE010E94B002D8019B
:1010700056969C9180918D03891710F490938D035F
:1010800089E0989FC00111248C569C4F02C085ECCA
:1010900093E0BE010E945202E0918603F091870323
:1010A00020E0D80156969C918689981708F021E097
:1010B000822FDF91CF911F910F910895FF920F938F
:1010C0001F93CF93DF9380918C03882309F08FC007
:1010D00080918A0390918B03019690938B03809368
:1010E0008A0380918A0390918B03892B79F5209153
:1010F000C1033091C2038091C3039091C4039093C4
:10110000C2038093C1033093C4032093C30380912F
:1011100089038F5F80938903E091C103F091C2033B
:101120008081882319F48FEF9FEF0CC0E091C103F9
:10113000F091C2030580F681E02D0680F781E02D55
:10114000828193819093F1008093F00020918A0333
:1011500030918B038091F0009091F10028173907AE
:1011600008F44AC089E0F82EE091C103F091C2036F
:101170008081882339F48FEF9FEF9093F100809363
:10118000F0003AC0E091C103F091C2030580F681FE
:10119000E02DC681D7812A813B8180918A0390917D
:1011A0008B038217930728F43093F1002093F0000B
:1011B00023C08E010E5F1F4FC8010E94B0028C89B0
:1011C0009D89892B21F0CE010C960E94B0029E8948
:1011D00080918D03891710F490938D039F9DC0011A
:1011E00011248C569C4FB8010E945202BDCF8091B1
:1011F0008E038F5F80938E03DF91CF911F910F91AC
:10120000FF900895CF93DF93EC01E0918603F09176
:1012100087039383828380918A0390918B03C817FD
:10122000D90768F48091C3039091C4036091860349
:10123000709187036E5F7F4F0E947B0217C0809181
:10124000C1039091C20360918603709187036E5F22
:101250007F4F0E947B028091F0009091F100C817AF
:10126000D90720F4D093F100C093F000DF91CF9123
:1012700008950F931F938B016091860370918703EC
:10128000645F7F4F0E947B02809186039091870369
:1012900002960E94B00280918A0390918B03800F86
:1012A000911F0E9402091F910F910895CF92DF9222
:1012B000FF920F931F93DF93CF930F92CDB7DEB7BB
:1012C0000FB6F8940F9280918C03815080938C0319
:1012D00080918C03882309F058C080918F03882364
:1012E00009F453C0198299E0F92E2DC0E091CA0388
:1012F000F091CB03C680D780C6010C960E94B00245
:1013000086010E5F1F4FC8010E94B002D60156969B
:101310009C9180918D03891710F490938D039F9D6C
:10132000C00111248C569C4FB8010E945202E091DA
:101330008603F0918703D60156969C91868998176B
:1013400010F0B1E0B9838091C503882379F68091CC
:101350008E03882341F40CC00E945E0880918E03A6
:10136000815080938E0380918E038823A9F707C054
:10137000E981E13021F080918803813031F41092CD
:1013800088030E94400481E001C080E00F900FBEFE
:101390000F90CF91DF911F910F91FF90DF90CF9031
:1013A00008950F931F93CF93DF93EC010097C9F03B
:1013B00080918C038F5F80938C0300918A0310913E
:1013C0008B03809186039091870302960E94B0025E
:1013D000CE01800F911F0E9402090E9456098823A6
:1013E00011F40E944004DF91CF911F910F91089555
:1013F000CF93DF93FC01EB0180918C038F5F80938F
:101400008C0320813181C20FD31F80918A03909178
:101410008B038217930728F4C217D30728F020E024
:101420000CC0C217D30740F080918A0390918B03C0
:1014300020E08C179D0708F421E0D183C08322238C
:1014400051F0809186039091870302960E94B0022A
:10145000CE010E9402090E945609882311F40E94BD
:101460004004DF91CF910895EF92FF920F931F9365
:10147000CF93DF938C010FB6F8940F92809186037F
:10148000909187030817190719F400E010E003C0D2
:101490000115110529F4C0918603D091870301C07D
:1014A000E80122E0E22EF12CEC0EFD1EC7010E94A5
:1014B000B0028C899D89892B21F0CE010C960E9467
:1014C000B0028EEC93E0B7010E945202809191032A
:1014D0008F5F80939103809192038F5F809392033B
:1014E0000F900FBE80919003882321F0012B11F4FF
:1014F0000E944004DF91CF911F910F91FF90EF90D8
:101500000895F894109290030E94E10308950F93B8
:101510001F93809191038823E1F380918C038F5F67
:1015200080938C031091CE030E945609112389F3F6
:101530000FB6F8940F92E091D303F091D403068193
:101540001781C80102960E94B00280918F038150DA
:1015500080938F03809191038150809391030F902A
:101560000FBEF8018789908D0E940702C8010E9472
:101570000702CFCF2F923F925F926F927F928F920E
:101580009F92AF92BF92CF92DF92EF92FF920F9312
:101590001F93DF93CF9300D000D0CDB7DEB79A83EF
:1015A00089834B015A011901502E370181E290E0E5
:1015B0000E9417028B839C838B819C81892B89F0ED
:1015C000C114D10421F4C5010E9417026C01EB8102
:1015D000FC81D08EC78AC114D10429F4CF010E94A6
:1015E00007028FEFD1C0C60165EA70E0A5010E9435
:1015F0002D0C0894A108B108EB81FC81E788F08CE0
:10160000EA0CFB1CCF014996B40148E050E00E946F
:10161000340CEB81FC8110A2052DF2E0F51508F4E5
:1016200002E0EB81FC81068B42E0C42ED12CCE0E71
:10163000DF1EC6010E944E028B819C810C960E9487
:101640004E028B819C81FC019187808783E090E032
:10165000801B910995878487F38BE28BC701698191
:101660007A81A1010E946403EB81FC8191838083D4
:101670006114710421F0CF01F301918380830FB6CF
:10168000F8940F9280918F038F5F80938F038091E6
:10169000860390918703892B99F5EB81FC81F09368
:1016A0008703E093860380918F038130D1F584E92D
:1016B00093E00E943E028DE993E00E943E0286EA9A
:1016C00093E00E943E023FEAE32E33E0F32EC7018F
:1016D0000E943E0208EB13E0C8010E943E0285EC26
:1016E00093E00E943E028EEC93E00E943E02F09254
:1016F000C203E092C1031093C4030093C30311C05B
:1017000080919003882369F4E0918603F091870328
:101710008689581630F08B819C8190938703809343
:101720008603EB81FC81968980919303891710F4DD
:1017300090939303809192038F5F80939203EB8148
:10174000FC81968980918D03891710F490938D0305
:10175000EB81FC81868929E0829FC00111248C568F
:101760009C4FB6010E9452020F900FBE80919003D1
:10177000882349F0E0918603F091870386898515D7
:1017800010F40E94400481E00F900F900F900F9092
:10179000CF91DF911F910F91FF90EF90DF90CF904D
:1017A000BF90AF909F908F907F906F905F903F9091
:1017B0002F900895AF92BF92CF92DF92EF92FF9257
:1017C0000F9387E89AE06BEE70E045E550E020E08B
:1017D00030E000E0EE24FF24CC24DD24AA24BB2446
:1017E0000E94BA0A813049F4F894809390031092D1
:1017F0008B0310928A030E94AC030F91FF90EF902D
:10180000DF90CF90BF90AF90089510BC83E389B96B
:1018100080B58E6080BD8AB188618AB908955D9B6C
:10182000FECF8CB908955F9BFECF8CB1089520E068
:1018300004C05D9BFECFECB92F5FFC01E20FF11DF0
:10184000E081EE23B1F70895FB01DC0102C00190B5
:101850000D9241505040D8F70895DC0101C06D93BE
:1018600041505040E0F70895FB01DC0141505040E9
:1018700048F001900D920020C9F701C01D9241501F
:0A1880005040E0F70895F894FFCF00
:10188A000D0A20526563656976696E672053756330
:10189A006365737366756C2066726F6D2031200DF7
:1018AA000A000D0A20526563656976696E672053DE
:1018BA0075636365737366756C2066726F6D20322B
:1018CA00200D0A000D0A206661696C200D0A005479
:1018DA0061736B31005461736B32005461736B3303
:1018EA00003130300000000000000000000000005D
:1018FA000000000000613530000000000000000018
:10190A00000000000000000000006249444C45004D
:02191A00FFFFCD
:00000001FF
