:100000000C942A000C9447000C9447000C94470071
:100010000C9447000C9447000C9447000C949A04ED
:100020000C9447000C9447000C9447000C94470034
:100030000C9447000C9447000C9447000C94470024
:100040000C9447000C9447000C9447000C94470014
:100050000C94470011241FBECFE5D8E0DEBFCDBF12
:1000600010E0A0E6B0E0E0EAF8E102C005900D92F1
:10007000A437B107D9F713E0A4E7B0E001C01D929F
:10008000AB35B107E1F70E942D030C944E0C0C9494
:100090000000AF92BF92CF92DF92EF92FF920F9348
:1000A0001F93CF93DF936C01B62EA42E8AE190E0CC
:1000B0000E942102E82EE7017E01F92EE701209738
:1000C00009F45EC08091740090917500009721F54D
:1000D000F0927500E092740080E890E00E94630264
:1000E00089E890E00E9463025CE9E52E50E0F52E7D
:1000F000C7010E94630205EA10E0C8010E94630282
:1001000086E790E00E946302F0929900E0929800E6
:1001100010939B0000939A00BB2011F0BB24B39472
:10012000198E188EBE8AAF8AFE01C192D1928F01BC
:10013000CF010E947102CE010C960E947102D987F4
:10014000C887DB8BCA8B83E090E08B1991099D8770
:100150008C872E8980917F00821710F420937F0076
:1001600030E0C90143E0880F991F4A95E1F7820FFB
:10017000931F80589F4FB8010E94750281E001C013
:100180008FEFDF91CF911F910F91FF90EF90DF9054
:10019000CF90BF90AF9008950F931F93CF93DF93AD
:1001A000EB010091960010919700080F191F8091A4
:1001B00074009091750002960E94D10260917400C3
:1001C00070917500FB0113830283809196009091DA
:1001D00097006E5F7F4F0817190728F480919A00E7
:1001E00090919B0004C080919800909199000E948A
:1001F0009A02209749F06091740070917500645FD5
:100200007F4FCE010E949A02DF91CF911F910F91F3
:1002100008950F931F93CF93DF9327C0F894E09135
:100220007B00F0917C00C681D781CE010C960E94A4
:10023000D10278948E010E5F1F4FC8010E94D10237
:100240002E8980917F00821710F420937F0030E088
:10025000C901F3E0880F991FFA95E1F7820F931F08
:1002600080589F4FB8010E947502809176008823C4
:10027000A9F60E946B092091920030919300821B95
:10028000930B909395008093940059C0019690939E
:100290009700809396002150304030939500209332
:1002A0009400009709F044C08091980090919900C3
:1002B00020919A0030919B003093990020939800F0
:1002C00090939B0080939A0033C00580F681E02DC7
:1002D000C681D78120919600309197008A819B81B9
:1002E0002817390760F1F8948E010E5F1F4FC8017F
:1002F0000E94D1028C899D89009721F0CE010C9635
:100300000E94D10278942E8980917F00821710F488
:1003100020937F0030E0C901E3E0880F991FEA9540
:10032000E1F7820F931F80589F4FB8010E9475021A
:10033000E0919800F09199008081882331F6209116
:10034000940030919500809196009091970021152E
:10035000310509F09BCF90939300809392004091D8
:100360007F0006C0442319F410927F0040C0415022
:10037000842F90E09C0173E0220F331F7A95E1F700
:10038000280F391FF901E058FF4F5081552351F3D1
:1003900040937F00A181B28112960D90BC91A02D57
:1003A000B283A1832D573F4FA217B30731F41296A2
:1003B0002D913C91139732832183FC0163E0EE0F72
:1003C000FF1F6A95E1F7E80FF91FE058FF4F018022
:1003D000F281E02DA681B781B0937500A0937400DF
:1003E000ED91FC911197CD0157966C910995DF9194
:1003F000CF911F910F9108950F931F93CF93DF9388
:10040000DC011596ED91FC911697C681D7818E017E
:10041000045F1F4FC8010E94D10286E790E0B80137
:100420000E947502E0917400F091750081E02E89C0
:100430009689291708F480E0DF91CF911F910F91E1
:100440000895EF92FF920F931F93CF93DF938C0148
:100450000E946509C091AE00D091AF000C0F1D1F26
:1004600022E00835120750F4C017D10738F4C05500
:10047000DF4F1093AF000093AE0002C0C0E0D0E0A9
:100480000E94210ACE01DF91CF911F910F91FF9021
:10049000EF90089508951092AF001092AE00089565
:1004A00028E532E08091AE009091AF00281B390B17
:1004B000C901089517BA8FEF88BB8ABB089586B328
:1004C00008958BBB0895FC010396928381832FEFDF
:1004D0003FEF3483238396838583908787831082BD
:1004E0000895FC01118610860895CF93DF93FC01D7
:1004F000DB0121813281E9018A819B8113969C93E2
:100500008E93129715963C932E9314978A819B8114
:10051000EC017D836C83E9017B836A837283618351
:100520001996FC93EE93189780818F5F8083DF91FB
:10053000CF910895CF93DF93AC01EB01888199812E
:100540002FEF8F3F920721F4FA01A781B08511C0E8
:10055000DA01139604C012960D90BC91A02D12964C
:100560002D913C911397F9012081318182179307D6
:1005700090F712968D919C9113979B838A83FC012F
:10058000D583C483BD83AC831396DC93CE9312973B
:1005900059874887FA0180818F5F8083DF91CF91EF
:1005A0000895CF93DF93FC01A281B381848195816B
:1005B00015969C938E931497C481D581BB83AA838F
:1005C000A085B18511968D919C9112978E179F07EA
:1005D00021F41296DC93CE931197118610868C919C
:1005E00081508C93DF91CF9108950F931F93DF93E8
:1005F000CF930F92CDB7DEB78E010F5F1F4F809163
:10060000590390915A03B8014FEF5FEF20E00E9429
:100610007A0689810E9461028AE090E00E94D00AF5
:10062000EECF0F931F93DF93CF930F92CDB7DEB72B
:100630008E010F5F1F4F0E945F02898380915903D3
:1006400090915A03B8014FEF5FEF20E00E943D0503
:100650008AE090E00E94D00AEECFAF92BF92CF9294
:10066000DF92EF92FF920F930E945A0281E193E092
:1006700060E670E045E550E020E030E002E0EE2486
:10068000FF24CC24DD24AA24BB240E94E10785EFAB
:1006900092E066E670E045E550E020E030E001E001
:1006A0000E94E10781E061E00E94DD0490935A031B
:1006B000809359030E94340980E090E00F91FF90ED
:1006C000EF90DF90CF90BF90AF90089521E1FC01B3
:1006D000208392E2929383E38293629372931292C5
:1006E00080E88293129282E0829383E0829384E096
:1006F000829385E0829386E0829387E0829388E00C
:10070000829389E0829380E18293229382E18293B3
:1007100083E1829384E1829385E1829386E18293EF
:1007200087E1829388E1829389E1829380E28293D8
:1007300081E28293929383E282934293529386E280
:10074000829387E2829388E2829389E2829380E3B4
:10075000829381E382939F0121503040C901089523
:100760001BBC8CE78ABD8BE08EBD89B7806189BFD9
:10077000A0910803B0910903CD91CDBFDD91DEBFFB
:10078000FF91EF91DF91CF91BF91AF919F918F91A9
:100790007F916F915F914F913F912F911F910F9199
:1007A000FF90EF90DF90CF90BF90AF909F908F9091
:1007B0007F906F905F904F903F902F901F900F9081
:1007C0000FBE0F90089581E0089508950F920FB61F
:1007D000F8940F921F9211242F923F924F925F92A2
:1007E0006F927F928F929F92AF92BF92CF92DF9241
:1007F000EF92FF920F931F932F933F934F935F932B
:100800006F937F938F939F93AF93BF93CF93DF9318
:10081000EF93FF93A0910803B09109030DB60D92D9
:100820000EB60D920E94340BA0910803B0910903FB
:10083000CD91CDBFDD91DEBFFF91EF91DF91CF91E3
:10084000BF91AF919F918F917F916F915F914F91E8
:100850003F912F911F910F91FF90EF90DF90CF90DC
:10086000BF90AF909F908F907F906F905F904F90D0
:100870003F902F901F900F900FBE0F9008950F92F2
:100880000FB6F8940F921F9211242F923F924F921D
:100890005F926F927F928F929F92AF92BF92CF9210
:1008A000DF92EF92FF920F931F932F933F934F93FB
:1008B0005F936F937F938F939F93AF93BF93CF93E8
:1008C000DF93EF93FF93A0910803B09109030DB656
:1008D0000D920EB60D920E947F090E94340BA091DA
:1008E0000803B0910903CD91CDBFDD91DEBFFF912B
:1008F000EF91DF91CF91BF91AF919F918F917F91B8
:100900006F915F914F913F912F911F910F91FF90A8
:10091000EF90DF90CF90BF90AF909F908F907F909F
:100920006F905F904F903F902F901F900F900FBE51
:100930000F9008950E943F0418950F931F93CF9333
:10094000DF93EC010FB6F8940F928C010F5E1F4FEE
:100950000DC08989882369F0C8010E94A30B8823F0
:1009600011F00E942B0C8E8D81508E8F8E8D18165B
:1009700084F38FEF8E8F0F900FBE0FB6F8940F9207
:100980008E01085F1F4F0DC08885882369F0C8015C
:100990000E94A30B882311F00E942B0C8D8D815097
:1009A0008D8F8D8D181684F38FEF8D8F0F900FBE66
:1009B000DF91CF911F910F910895AF92BF92CF9287
:1009C000DF92EF92FF920F931F93CF93DF93B82E96
:1009D000A62E882309F443C08FE190E00E942102F3
:1009E000E82EE7017E01F92EE7012097C1F10B2DDA
:1009F00010E0CA2CDD24C09E7001C19EF00CD09E78
:100A0000F00C1124C70101960E942102998388836A
:100A1000009711F1E80EF91EFB82EA821A8E9D837F
:100A20008C83015010400C9DA0010D9D500D1C9D0C
:100A3000500D1124480F591F5F834E83BB8EAC8E1F
:100A40008FEF8D8F8E8FCE0108960E946302CE01AC
:100A500041960E94630205C0CE010E944A02C0E096
:100A6000D0E0CE01DF91CF911F910F91FF90EF90D9
:100A7000DF90CF90BF90AF9008957F928F929F921A
:100A8000AF92BF92CF92DF92EF92FF920F931F939C
:100A9000DF93CF9300D000D00F92CDB7DEB78C019B
:100AA0006B015D834C83722E20E07E010894E11C73
:100AB000F11C94E0A92EB12CAC0EBD1E88E0882E4E
:100AC000912C800E911E01C021E00FB6F8940F9278
:100AD000F801928D838D981708F04EC0448D442301
:100AE000C1F17720C1F484819581B60150E00E9464
:100AF0002F0CF801248D84819581820F911D95839F
:100B00008483228133818217930718F18081918138
:100B1000958384831EC0F80186819781B60150E0D9
:100B20000E942F0CF801248D30E0309521953F4F25
:100B300086819781820F931F97838683408151819D
:100B40008417950730F482819381820F931F9783D6
:100B50008683F801828D8F5F828F8189882341F09F
:100B6000C80141960E94A30B813011F40E94E60354
:100B70000F900FBE81E04CC08C819D81009719F4CD
:100B80000F900FBE44C0222319F4C7010E94E50B49
:100B90000F900FBE0E9465090FB6F8940F92F801EE
:100BA000858D8F3F09F4158EF801868D8F3F09F4EE
:100BB000168E0F900FBEC701B5010E94F00B88235F
:100BC00009F50FB6F8940F92F801928D0F900FBEB1
:100BD000F801838D981781F46C817D81C4010E9496
:100BE000860BC8010E949D040E94210A882309F0F7
:100BF0006BCF0E94E60368CFC8010E949D040E944B
:100C0000210A62CFC8010E949D040E94210A80E04F
:100C10000F900F900F900F900F90CF91DF911F9139
:100C20000F91FF90EF90DF90CF90BF90AF909F908B
:100C30008F907F9008950F931F93CF93DF93EC01D4
:100C40008A019A8D8B8D981708F04CC04C8D4423E7
:100C500099F12223B1F48C819D8150E00E942F0CE8
:100C60002C8D8C819D81820F911D9D838C832A8187
:100C70003B818217930700F1888199819D838C8342
:100C80001BC08E819F8150E00E942F0C2C8D30E084
:100C9000309521953F4F8E819F81820F931F9F83B7
:100CA0008E83488159818417950730F48A819B810E
:100CB000820F931F9F838E838A8D8F5F8A8F8E8D85
:100CC0008F3F69F48989882379F0CE0141960E948B
:100CD000A30B882349F081E0F801808306C08F5F71
:100CE0008E8F02C080E001C081E0DF91CF911F9123
:100CF0000F9108957F928F929F92AF92BF92CF9261
:100D0000DF92EF92FF920F931F93DF93CF9300D068
:100D100000D00F92CDB7DEB78C01862E772E5D8383
:100D20004C83922E20E07E010894E11CF11C44E0EB
:100D3000C42ED12CCC0EDD1E31E1A32EB12CA80E79
:100D4000B91E01C021E00FB6F8940F92F801828D10
:100D5000882309F43DC0E680F78080819181009767
:100D6000A9F0448D9701240F311D378326836281BA
:100D700073812617370710F097838683F801668101
:100D80007781882D972D50E00E942F0C992071F4C7
:100D9000F801828D8150828F80858823A9F0C80157
:100DA00008960E94A30B813079F40CC0F801F782F9
:100DB000E6828189882341F0C80141960E94A30BF5
:100DC000882311F00E94E6030F900FBE81E04AC015
:100DD0008C819D81009719F40F900FBE42C0222391
:100DE00019F4C7010E94E50B0F900FBE0E94650920
:100DF0000FB6F8940F92F801858D8F3F09F4158E88
:100E0000F801868D8F3F09F4168E0F900FBEC70133
:100E1000B6010E94F00B8823F9F40FB6F8940F92F4
:100E2000F801828D0F900FBE882381F46C817D8143
:100E3000C5010E94860BC8010E949D040E94210AE0
:100E4000882309F07FCF0E94E6037CCFC8010E946F
:100E50009D040E94210A76CFC8010E949D040E9431
:100E6000210A80E00F900F900F900F900F90CF917C
:100E7000DF911F910F91FF90EF90DF90CF90BF9087
:100E8000AF909F908F907F9008950F931F93CF9373
:100E9000DF93EC01CB018A012A8D222371F1E881D5
:100EA000F9813097A1F04C8D2E813F81240F311DA7
:100EB0003F832E83AA81BB812A173B0710F0FF8353
:100EC000EE836E812F81722F50E00E942F0C8A8D4D
:100ED00081508A8F8D8D8F3F69F48885882379F0C2
:100EE000CE0108960E94A30B882349F081E0F80107
:100EF000808306C08F5F8D8F02C080E001C081E0DB
:100F0000DF91CF911F910F9108950FB6F8940F9232
:100F1000FC01828D0F900FBE0895FC01828D089513
:100F2000CF93DF93EC01888199810E944A02CE0120
:100F30000E944A02DF91CF910895FC01928D81E0D9
:100F4000911180E00895FC01228D81E0938D291399
:100F500080E00895CF93DF93EC01E0910803F091D6
:100F600009039383828380910C0390910D03C8172A
:100F7000D90768F480913403909135036091080398
:100F8000709109036E5F7F4F0E949A0217C0809193
:100F900036039091370360910803709109036E5FE7
:100FA0007F4F0E949A028091720090917300C8173F
:100FB000D90720F4D0937300C0937200DF91CF91D2
:100FC00008952F923F924F925F926F927F928F92ED
:100FD0009F92AF92BF92CF92DF92EF92FF920F93C8
:100FE0001F93CF93DF931C013B015A012901470155
:100FF00081E290E00E942102E82EE7017E01F92EB5
:10100000E701209709F4CEC0C114D10429F4C50129
:101010000E942102C82ED92ED88ECF8AC114D104A5
:1010200021F4CE010E944A02BDC0C60165EA70E00B
:10103000A5010E94380C0894A108B108EF88F88C2B
:10104000EA0CFB1CCE014996B30148E050E00E9437
:101050003F0C18A2102F033008F012E01E8B72E034
:10106000A72EB12CAC0EBD1EC5010E947102CE018F
:101070000C960E947102D987C88783E090E0811B9B
:1010800091099D878C87DB8BCA8BC701B101A201B7
:101090000E946603998388838114910419F0F401F6
:1010A000D183C0830FB6F8940F92809139038F5F7C
:1010B000809339038091080390910903009799F573
:1010C000D0930903C0930803809139038130D1F58F
:1010D00080E193E00E94630289E193E00E94630251
:1010E00082E293E00E94630267E4E62E63E0F62E5C
:1010F000C7010E94630250E5C52E53E0D52EC601FC
:101100000E9463028BE293E00E9463028CE393E00F
:101110000E946302F0923703E0923603D0923503C7
:10112000C09234030FC080913A03882359F4E091B0
:101130000803F09109038689081720F0D09309036A
:10114000C09308032E8980914603821710F42093E0
:101150004603809145038F5F8093450380910F0381
:10116000821710F420930F0330E0C90143E0880F89
:10117000991F4A95E1F7820F931F805F9C4FB5013D
:101180000E9475020F900FBE80913A03882361F090
:10119000E0910803F09109038689801728F40E94E2
:1011A000E60302C08FEF01C081E0DF91CF911F9174
:1011B0000F91FF90EF90DF90CF90BF90AF909F90F6
:1011C0008F907F906F905F904F903F902F900895F9
:1011D000EF92FF920F931F93CF93DF93EC010FB623
:1011E000F8940F928091080390910903C817D907CA
:1011F00011F0209739F40091080310910903C0E021
:10120000D0E001C08E01E2E0EE2EF12CE00EF11EE6
:10121000C7010E94D102F80184899589009721F0C5
:10122000C8010C960E94D1028CE393E0B7010E94A2
:10123000750280913B038F5F80933B038091450350
:101240008F5F809345030F900FBE80913A038823F0
:1012500021F0209711F40E94E603DF91CF911F91B6
:101260000F91FF90EF900895AF92BF92CF92DF92CF
:10127000EF92FF920F9380EA9AE06DE670E045E509
:1012800050E020E030E000E0EE24FF24CC24DD2418
:10129000AA24BB240E94E107813049F4F89480938A
:1012A0003A0310920D0310920C030E94B0030F91A9
:1012B000FF90EF90DF90CF90BF90AF900895F8949B
:1012C00010923A030E94E503089580910E038F5F08
:1012D00080930E0308950FB6F8940F9220910C039B
:1012E00030910D030F900FBEC901089520910C039A
:1012F00030910D03C90108958091390308950F932A
:101300001F93CF93DF9380910E03882309F08FC042
:1013100080910C0390910D03019690930D0380939F
:101320000C0380910C0390910D03009779F5809147
:101330003603909137032091340330913503309375
:1013400037032093360390933503809334038091C1
:101350000B038F5F80930B03E0913603F09137030B
:101360008081882319F48FEF9FEF0CC0E091360342
:10137000F09137030580F681E02D0680F781E02D9E
:1013800082819381909373008093720020910C036B
:1013900030910D03809172009091730028173907E6
:1013A00008F44AC0E0913603F09137038081882326
:1013B00019F48FEF9FEF12C0E0913603F0913703DD
:1013C0000580F681E02DC681D7818A819B8120919D
:1013D0000C0330910D032817390728F490937300FC
:1013E0008093720029C08E010E5F1F4FC8010E94BA
:1013F000D1028C899D89009721F0CE010C960E9424
:10140000D1022E8980910F03821710F420930F03CD
:1014100030E0C901F3E0880F991FFA95E1F7820FD8
:10142000931F805F9C4FB8010E947502BBCF8091D3
:1014300038038F5F80933803DF91CF911F910F9115
:101440000895EF92FF920F931F93DF93CF930F9224
:10145000CDB7DEB70FB6F8940F9280910E0381508E
:1014600080930E0380910E03882309F05EC0809163
:101470003903882309F459C0198235C0E09130033B
:10148000F0913103E680F780C7010C960E94D102EB
:1014900087010E5F1F4FC8010E94D102D7015696E7
:1014A0002C91569780910F03821710F420930F030D
:1014B00030E0C901A3E0880F991FAA95E1F7820FD8
:1014C000931F805F9C4FB8010E947502E091080352
:1014D000F0910903D70156969C91569786899817E3
:1014E00010F0B1E0B98380912B03882339F6809105
:1014F0003803882341F40CC00E947F09809138038F
:10150000815080933803809138038823A9F707C05E
:10151000E981E13021F080910A03813031F41092A9
:101520000A030E94E60381E001C080E00F900FBE35
:101530000F90CF91DF911F910F91FF90EF90089541
:101540001F93CF93DF9380913B038823E1F30E94A5
:10155000650910913C030E94210A1123A1F30FB6E3
:10156000F8940F92E0914103F0914203C681D78134
:10157000CE0102960E94D10280913903815080935E
:10158000390380913B03815080933B030F900FBE42
:101590008F89988D0E944A02CE010E944A02D3CFC1
:1015A0000F931F93CF93DF93EC010097B1F00E944C
:1015B000650900910C0310910D038091080390912F
:1015C000090302960E94D102CE01800F911F0E9452
:1015D000AA070E94210A882311F40E94E603DF91E2
:1015E000CF911F910F9108950F931F93CF93DF9386
:1015F0008C01EB010E946509F80180819181C80F7F
:10160000D91F20910C0330910D032817390720F4BE
:10161000C817D90760F403C0C817D90750F08091E4
:101620000C0390910D0321E08C179D0718F020E02A
:1016300001C021E0F801D183C083222351F08091C1
:1016400008039091090302960E94D102CE010E94E4
:10165000AA070E94210A882311F40E94E603DF9161
:10166000CF911F910F91089580910E03882349F027
:1016700081E080930A03089580910F038150809345
:101680000F0380910F0390E0FC0153E0EE0FFF1F6A
:101690005A95E1F7E80FF91FE05FFC4F808188233E
:1016A00059F380910F0390E09C0143E0220F331F18
:1016B0004A95E1F7280F391FF901E05FFC4FA1813E
:1016C000B28112960D90BC91A02DB283A1832D5EA4
:1016D0003C4FA217B30731F412962D913C9113970A
:1016E00032832183FC01B3E0EE0FFF1FBA95E1F7CF
:1016F000E80FF91FE05FFC4F0180F281E02D868149
:10170000978190930903809308030895CF93DF9303
:10171000EB016091080370910903645F7F4F0E94A1
:101720009A02809108039091090302960E94D102C7
:1017300080910C0390910D038C0F9D1F0E94AA07AE
:10174000DF91CF9108950F931F93CF93DF93DC0127
:101750001596ED91FC911697C681D7818E01045F95
:101760001F4FC8010E94D10280910E038823C9F443
:101770008E010E5F1F4FC8010E94D1022E898091F9
:101780000F03821710F420930F0330E0C90163E0C8
:10179000880F991F6A95E1F7820F931F805F9C4F16
:1017A00002C08BE293E0B8010E947502E091080349
:1017B000F091090381E02E899689291708F480E0C9
:1017C000DF91CF911F910F910895FC0180910B0340
:1017D000808380910C0390910D03928381830895FF
:1017E000FC01DB010FB6F8940F9290910B038081FE
:1017F000981749F020910C0330910D03818192815B
:101800002817390720F520910C0330910D038181B1
:1018100092814D915C911197281B390B2417350744
:10182000B0F420910C0330910D03821B930B840FB5
:10183000951F11969C938E9380910B0380838091CA
:101840000C0390910D039283818380E001C081E0BD
:101850000F900FBE089581E080930A030895FB0165
:10186000DC0102C001900D9241505040D8F708951C
:10187000DC0101C06D9341505040E0F70895FB0139
:10188000DC014150504048F001900D920020C9F712
:1018900001C01D9241505040E0F70895F894FFCFE9
:1018A000696E707574006F75747075740049444C7E
:0418B0004500FFFFF1
:00000001FF
