:100000000C942A000C9447000C9447000C94470071
:100010000C9447000C9447000C9447000C946D041A
:100020000C9447000C9447000C9447000C94470034
:100030000C9447000C9447000C9447000C94470024
:100040000C9447000C9447000C9447000C94470014
:100050000C94470011241FBECFE5D8E0DEBFCDBF12
:1000600010E0A0E6B0E0EEE0F9E102C005900D92EC
:10007000AA3BB107D9F713E0AAEBB0E001C01D928B
:10008000A13AB107E1F70E941E030C94850C0C9471
:100090000000AF92BF92CF92DF92EF92FF920F9348
:1000A0001F93CF93DF936C01B62EA42E8AE190E0CC
:1000B0000E942102E82EE7017E01F92EE701209738
:1000C00009F45EC08091BA009091BB00009721F5C1
:1000D000F092BB00E092BA0086EC90E00E945A02D7
:1000E0008FEC90E00E945A0252EEE52E50E0F52E81
:1000F000C7010E945A020BEE10E0C8010E945A028A
:100100008CEB90E00E945A02F092DF00E092DE0059
:100110001093E1000093E000BB2011F0BB24B394E6
:10012000198E188EBE8AAF8AFE01C192D1928F01BC
:10013000CF010E946802CE010C960E946802D98706
:10014000C887DB8BCA8B83E090E08B1991099D8770
:100150008C872E898091C500821710F42093C500EA
:1001600030E0C90143E0880F991F4A95E1F7820FFB
:10017000931F8A539F4FB8010E946C0281E001C017
:100180008FEFDF91CF911F910F91FF90EF90DF9054
:10019000CF90BF90AF9008950F931F93CF93DF93AD
:1001A000EB010091DC001091DD00080F191F809118
:1001B000BA009091BB0002960E94C8026091BA00FA
:1001C0007091BB00FB01138302838091DC0090914E
:1001D000DD006E5F7F4F0817190728F48091E0005B
:1001E0009091E10004C08091DE009091DF000E94B8
:1001F0009102209749F06091BA007091BB00645F52
:100200007F4FCE010E949102DF91CF911F910F91FC
:1002100008950F931F93CF93DF9327C0F894E09135
:10022000C100F091C200C681D781CE010C960E9418
:10023000C80278948E010E5F1F4FC8010E94C80249
:100240002E898091C500821710F42093C50030E0FC
:10025000C901F3E0880F991FFA95E1F7820F931F08
:100260008A539F4FB8010E946C028091BC00882382
:10027000A9F60E94BD092091D8003091D900821BB7
:10028000930B9093DB008093DA0059C00196909312
:10029000DD008093DC00215030403093DB00209360
:1002A000DA00009709F044C08091DE009091DF00F1
:1002B0002091E0003091E1003093DF002093DE00D8
:1002C0009093E1008093E00033C00580F681E02D3B
:1002D000C681D7812091DC003091DD008A819B812D
:1002E0002817390760F1F8948E010E5F1F4FC8017F
:1002F0000E94C8028C899D89009721F0CE010C963E
:100300000E94C80278942E898091C500821710F44B
:100310002093C50030E0C901E3E0880F991FEA95FA
:10032000E1F7820F931F8A539F4FB8010E946C021E
:10033000E091DE00F091DF008081882331F620918A
:10034000DA003091DB008091DC009091DD00211516
:10035000310509F09BCF9093D9008093D80040914C
:10036000C50006C0442319F41092C50040C0415096
:10037000842F90E09C0173E0220F331F7A95E1F700
:10038000280F391FF901EA53FF4F5081552351F3CC
:100390004093C500A181B28112960D90BC91A02D11
:1003A000B283A18327533F4FA217B30731F41296AC
:1003B0002D913C91139732832183FC0163E0EE0F72
:1003C000FF1F6A95E1F7E80FF91FEA53FF4F01801D
:1003D000F281E02DA681B781B093BB00A093BA0053
:1003E000ED91FC911197CD0157966C910995DF9194
:1003F000CF911F910F9108950F931F93CF93DF9388
:10040000DC011596ED91FC911697C681D7818E017E
:10041000045F1F4FC8010E94C8028CEB90E0B80136
:100420000E946C02E091BA00F091BB0081E02E893D
:100430009689291708F480E0DF91CF911F910F91E1
:100440000895EF92FF920F931F93CF93DF938C0148
:100450000E94B709C091F400D091F5000C0F1D1F48
:1004600022E00835120750F4C017D10738F4CA50FB
:10047000DF4F1093F5000093F40002C0C0E0D0E01D
:100480000E94730ACE01DF91CF911F910F91FF90CF
:10049000EF90089508951092F5001092F4000895D9
:1004A00028E532E08091F4009091F500281B390B8B
:1004B000C9010895FC010396928381832FEF3FEFDA
:1004C000348323839683858390878783108208955E
:1004D000FC01118610860895CF93DF93FC01DB01A8
:1004E00021813281E9018A819B8113969C938E93AD
:1004F000129715963C932E9314978A819B81EC0159
:100500007D836C83E9017B836A837283618319969F
:10051000FC93EE93189780818F5F8083DF91CF915A
:100520000895CF93DF93AC01EB01888199812FEF80
:100530008F3F920721F4FA01A781B08511C0DA013B
:10054000139604C012960D90BC91A02D12962D9179
:100550003C911397F901208131818217930790F71D
:1005600012968D919C9113979B838A83FC01D5836E
:10057000C483BD83AC831396DC93CE9312975987C3
:100580004887FA0180818F5F8083DF91CF91089542
:10059000CF93DF93FC01A281B3818481958115966D
:1005A0009C938E931497C481D581BB83AA83A08525
:1005B000B18511968D919C9112978E179F0721F40A
:1005C0001296DC93CE931197118610868C918150F0
:1005D0008C93DF91CF9108950E94410C80E690E0CA
:1005E0000E94530C85E790E00E94530C80E090E05D
:1005F0000E94BB08F3CFAF92BF92CF92DF92EF92EF
:10060000FF920F930E94410C82E990E00E94530CEC
:100610008CEE92E067EA70E045E550E020E030E0E3
:1006200001E0EE24FF24CC24DD24AA24BB240E9474
:10063000B40784E690E00E94220BE6CFAF92BF920F
:10064000CF92DF92EF92FF920F938BEF92E06DEAE1
:1006500070E045E550E020E030E002E0EE24FF24C9
:10066000CC24DD24AA24BB240E94B4070E9486095E
:10067000FFCF21E1FC01208392E2929383E38293F6
:1006800062937293129280E88293129282E0829334
:1006900083E0829384E0829385E0829386E0829374
:1006A00087E0829388E0829389E0829380E182935D
:1006B000229382E1829383E1829384E1829385E1B4
:1006C000829386E1829387E1829388E1829389E134
:1006D000829380E2829381E28293929383E2829377
:1006E0004293529386E2829387E2829388E28293D6
:1006F00089E2829380E3829381E382939F01215078
:100700003040C90108951BBC8CE78ABD8BE08EBDCB
:1007100089B7806189BFA0914E03B0914F03CD91FD
:10072000CDBFDD91DEBFFF91EF91DF91CF91BF9102
:10073000AF919F918F917F916F915F914F913F9179
:100740002F911F910F91FF90EF90DF90CF90BF906E
:10075000AF909F908F907F906F905F904F903F9061
:100760002F901F900F900FBE0F90089581E0089575
:1007700008950F920FB6F8940F921F9211242F92A2
:100780003F924F925F926F927F928F929F92AF9221
:10079000BF92CF92DF92EF92FF920F931F932F930E
:1007A0003F934F935F936F937F938F939F93AF93F9
:1007B000BF93CF93DF93EF93FF93A0914E03B0913C
:1007C0004F030DB60D920EB60D920E94460BA091EE
:1007D0004E03B0914F03CD91CDBFDD91DEBFFF91B0
:1007E000EF91DF91CF91BF91AF919F918F917F91C9
:1007F0006F915F914F913F912F911F910F91FF90BA
:10080000EF90DF90CF90BF90AF909F908F907F90B0
:100810006F905F904F903F902F901F900F900FBE62
:100820000F9008950F920FB6F8940F921F92112413
:100830002F923F924F925F926F927F928F929F92F0
:10084000AF92BF92CF92DF92EF92FF920F931F93DE
:100850002F933F934F935F936F937F938F939F93C8
:10086000AF93BF93CF93DF93EF93FF93A0914E038A
:10087000B0914F030DB60D920EB60D920E94D109A4
:100880000E94460BA0914E03B0914F03CD91CDBF76
:10089000DD91DEBFFF91EF91DF91CF91BF91AF91DD
:1008A0009F918F917F916F915F914F913F912F9188
:1008B0001F910F91FF90EF90DF90CF90BF90AF907E
:1008C0009F908F907F906F905F904F903F902F9070
:1008D0001F900F900FBE0F9008950E94120418955C
:1008E0000F931F93CF93DF93EC010FB6F8940F9201
:1008F0008C010F5E1F4F0DC08989882369F0C801E4
:100900000E94B50B882311F00E943D0C8E8D815002
:100910008E8F8E8D181684F38FEF8E8F0F900FBEF3
:100920000FB6F8940F928E01085F1F4F0DC0888597
:10093000882369F0C8010E94B50B882311F00E943A
:100940003D0C8D8D81508D8F8D8D181684F38FEF1A
:100950008D8F0F900FBEDF91CF911F910F91089552
:10096000AF92BF92CF92DF92EF92FF920F931F93BD
:10097000CF93DF93B82EA62E882309F443C08FE1CE
:1009800090E00E942102E82EE7017E01F92EE701A6
:100990002097C1F10B2D10E0CA2CDD24C09E700100
:1009A000C19EF00CD09EF00C1124C70101960E944C
:1009B000210299838883009711F1E80EF91EFB82CA
:1009C000EA821A8E9D838C83015010400C9DA001F9
:1009D0000D9D500D1C9D500D1124480F591F5F8314
:1009E0004E83BB8EAC8E8FEF8D8F8E8FCE0108968F
:1009F0000E945A02CE0141960E945A0205C0CE01C1
:100A00000E944A02C0E0D0E0CE01DF91CF911F9159
:100A10000F91FF90EF90DF90CF90BF90AF9008952F
:100A20007F928F929F92AF92BF92CF92DF92EF927E
:100A3000FF920F931F93DF93CF9300D000D00F92BC
:100A4000CDB7DEB78C016B015D834C83722E20E045
:100A50007E010894E11CF11C94E0A92EB12CAC0E8F
:100A6000BD1E88E0882E912C800E911E01C021E0D1
:100A70000FB6F8940F92F801928D838D981708F0B5
:100A80004EC0448D4423C1F17720C1F48481958107
:100A9000B60150E00E94660CF801248D8481958196
:100AA000820F911D9583848322813381821793075E
:100AB00018F180819181958384831EC0F80186811D
:100AC0009781B60150E00E94660CF801248D30E059
:100AD000309521953F4F86819781820F931F978391
:100AE0008683408151818417950730F482819381F8
:100AF000820F931F97838683F801828D8F5F828F89
:100B00008189882341F0C80141960E94B50B81304C
:100B100011F40E94B9030F900FBE81E04CC08C818C
:100B20009D81009719F40F900FBE44C0222319F441
:100B3000C7010E94F70B0F900FBE0E94B7090FB6B6
:100B4000F8940F92F801858D8F3F09F4158EF80106
:100B5000868D8F3F09F4168E0F900FBEC701B50129
:100B60000E94020C882309F50FB6F8940F92F80141
:100B7000928D0F900FBEF801838D981781F46C81D0
:100B80007D81C4010E94980BC8010E9470040E94DC
:100B9000730A882309F06BCF0E94B90368CFC8019C
:100BA0000E9470040E94730A62CFC8010E94700400
:100BB0000E94730A80E00F900F900F900F900F909B
:100BC000CF91DF911F910F91FF90EF90DF90CF9029
:100BD000BF90AF909F908F907F9008950F931F9339
:100BE000CF93DF93EC018A019A8D8B8D981708F0D3
:100BF0004CC04C8D442399F12223B1F48C819D810A
:100C000050E00E94660C2C8D8C819D81820F911D7D
:100C10009D838C832A813B818217930700F1888111
:100C200099819D838C831BC08E819F8150E00E949F
:100C3000660C2C8D30E0309521953F4F8E819F8141
:100C4000820F931F9F838E83488159818417950754
:100C500030F48A819B81820F931F9F838E838A8DBC
:100C60008F5F8A8F8E8D8F3F69F48989882379F011
:100C7000CE0141960E94B50B882349F081E0F8012E
:100C8000808306C08F5F8E8F02C080E001C081E04C
:100C9000DF91CF911F910F9108957F928F929F9234
:100CA000AF92BF92CF92DF92EF92FF920F931F937A
:100CB000DF93CF9300D000D00F92CDB7DEB78C0179
:100CC000862E772E5D834C83922E20E07E01089441
:100CD000E11CF11C44E0C42ED12CCC0EDD1E31E110
:100CE000A32EB12CA80EB91E01C021E00FB6F894B6
:100CF0000F92F801828D882309F43DC0E680F780C9
:100D0000808191810097A9F0448D9701240F311DB6
:100D100037832683628173812617370710F0978304
:100D20008683F80166817781882D972D50E00E9497
:100D3000660C992071F4F801828D8150828F808534
:100D40008823A9F0C80108960E94B50B813079F478
:100D50000CC0F801F782E6828189882341F0C8013E
:100D600041960E94B50B882311F00E94B9030F90A1
:100D70000FBE81E04AC08C819D81009719F40F90CD
:100D80000FBE42C0222319F4C7010E94F70B0F9037
:100D90000FBE0E94B7090FB6F8940F92F801858D27
:100DA0008F3F09F4158EF801868D8F3F09F4168E5A
:100DB0000F900FBEC701B6010E94020C8823F9F400
:100DC0000FB6F8940F92F801828D0F900FBE882312
:100DD00081F46C817D81C5010E94980BC8010E943D
:100DE00070040E94730A882309F07FCF0E94B90320
:100DF0007CCFC8010E9470040E94730A76CFC8019C
:100E00000E9470040E94730A80E00F900F900F9070
:100E10000F900F90CF91DF911F910F91FF90EF9066
:100E2000DF90CF90BF90AF909F908F907F9008956C
:100E30000F931F93CF93DF93EC01CB018A012A8D8F
:100E4000222371F1E881F9813097A1F04C8D2E8138
:100E50003F81240F311D3F832E83AA81BB812A1736
:100E60003B0710F0FF83EE836E812F81722F50E0DD
:100E70000E94660C8A8D81508A8F8D8D8F3F69F418
:100E80008885882379F0CE0108960E94B50B8823C7
:100E900049F081E0F801808306C08F5F8D8F02C02A
:100EA00080E001C081E0DF91CF911F910F91089503
:100EB0000FB6F8940F92FC01828D0F900FBE08952B
:100EC000FC01828D0895CF93DF93EC018881998195
:100ED0000E944A02CE010E944A02DF91CF910895FA
:100EE000FC01928D81E0911180E00895FC01228D3A
:100EF00081E0938D291380E00895CF93DF93EC0177
:100F0000E0914E03F0914F039383828380915203CB
:100F100090915303C817D90768F480917A03909190
:100F20007B0360914E0370914F036E5F7F4F0E9471
:100F3000910217C080917C0390917D0360914E03D4
:100F400070914F036E5F7F4F0E9491028091B800B5
:100F50009091B900C817D90720F4D093B900C09375
:100F6000B800DF91CF9108952F923F924F925F92F8
:100F70006F927F928F929F92AF92BF92CF92DF92A9
:100F8000EF92FF920F931F93CF93DF931C013B01CE
:100F90005A012901470181E290E00E942102E82ED6
:100FA000E7017E01F92EE701209709F4CEC0C114B4
:100FB000D10429F4C5010E942102C82ED92ED88E51
:100FC000CF8AC114D10421F4CE010E944A02BDC0CF
:100FD000C60165EA70E0A5010E946F0C0894A108A3
:100FE000B108EF88F88CEA0CFB1CCE014996B301DE
:100FF00048E050E00E94760C18A2102F033008F051
:1010000012E01E8B72E0A72EB12CAC0EBD1EC501E6
:101010000E946802CE010C960E946802D987C88798
:1010200083E090E0811B91099D878C87DB8BCA8BC5
:10103000C701B101A2010E943903998388838114F9
:10104000910419F0F401D183C0830FB6F8940F9284
:1010500080917F038F5F80937F0380914E039091F7
:101060004F03009799F5D0934F03C0934E0380919F
:101070007F038130D1F586E593E00E945A028FE527
:1010800093E00E945A0288E693E00E945A026DE8BB
:10109000E62E63E0F62EC7010E945A0256E9C52EDD
:1010A00053E0D52EC6010E945A0281E793E00E94C8
:1010B0005A0282E893E00E945A02F0927D03E09285
:1010C0007C03D0927B03C0927A030FC0809180038F
:1010D000882359F4E0914E03F0914F038689081755
:1010E00020F0D0934F03C0934E032E8980918C0340
:1010F000821710F420938C0380918B038F5F809371
:101100008B0380915503821710F42093550330E030
:10111000C90143E0880F991F4A95E1F7820F931F99
:101120008A5A9C4FB5010E946C020F900FBE8091AD
:101130008003882361F0E0914E03F0914F0386898C
:10114000801728F40E94B90302C08FEF01C081E02C
:10115000DF91CF911F910F91FF90EF90DF90CF9093
:10116000BF90AF909F908F907F906F905F904F90C7
:101170003F902F900895EF92FF920F931F93CF937C
:10118000DF93EC010FB6F8940F9280914E0390918B
:101190004F03C817D90711F0209739F400914E0377
:1011A00010914F03C0E0D0E001C08E01E2E0EE2ECE
:1011B000F12CE00EF11EC7010E94C802F8018489DB
:1011C0009589009721F0C8010C960E94C80282E818
:1011D00093E0B7010E946C02809181038F5F80933E
:1011E000810380918B038F5F80938B030F900FBEE1
:1011F00080918003882321F0209711F40E94B90385
:10120000DF91CF911F910F91FF90EF9008950FB64E
:10121000F8940F92009729F4E0914E03F0914F0358
:1012200001C0FC010F900FBE86890895EF92FF92D6
:101230000F931F93DF93CF930F92CDB7DEB7633039
:1012400008F062E00FB6F8940F9220914E033091AF
:101250004F038217930711F0009739F4E0904E0383
:10126000F0904F0380E090E001C07C01F7013689E7
:10127000361709F441C0361720F421E0009729F40D
:1012800003C021E0009709F020E0F701668B43E0FE
:1012900050E0461B51095587448789E0389FC001BB
:1012A00011248A5A9C4F428553854817590701F5E6
:1012B00087010E5F1F4FC80129830E94C802F701F2
:1012C0004689809155032981841710F44093550372
:1012D00050E0CA01F3E0880F991FFA95E1F7840FF7
:1012E000951F8A5A9C4FB80129830E946C0229815C
:1012F000213011F40E94B9030F900FBE0F90CF91CF
:10130000DF911F910F91FF90EF900895AF92BF92E0
:10131000CF92DF92EF92FF920F9382EF9AE063EB0E
:1013200070E045E550E020E030E000E0EE24FF24EE
:10133000CC24DD24AA24BB240E94B407813049F4C4
:10134000F8948093800310925303109252030E94EA
:1013500083030F91FF90EF90DF90CF90BF90AF90FD
:101360000895F894109280030E94B8030895809124
:1013700054038F5F8093540308950FB6F8940F922F
:1013800020915203309153030F900FBEC90108956D
:101390002091520330915303C901089580917F0336
:1013A00008950F931F93CF93DF9380915403882365
:1013B00009F08FC08091520390915303019690934E
:1013C00053038093520380915203909153030097EB
:1013D00079F580917C0390917D0320917A0330917F
:1013E0007B0330937D0320937C0390937B03809356
:1013F0007A03809151038F5F80935103E0917C03C6
:10140000F0917D038081882319F48FEF9FEF0CC04A
:10141000E0917C03F0917D030580F681E02D06804C
:10142000F781E02D828193819093B9008093B80079
:1014300020915203309153038091B8009091B900EC
:101440002817390708F44AC0E0917C03F0917D0326
:101450008081882319F48FEF9FEF12C0E0917C0305
:10146000F0917D030580F681E02DC681D7818A81C8
:101470009B8120915203309153032817390728F498
:101480009093B9008093B80029C08E010E5F1F4F62
:10149000C8010E94C8028C899D89009721F0CE0165
:1014A0000C960E94C8022E8980915503821710F471
:1014B0002093550330E0C901A3E0880F991FAA9536
:1014C000E1F7820F931F8A5A9C4FB8010E946C0269
:1014D000BBCF80917E038F5F80937E03DF91CF919E
:1014E0001F910F910895EF92FF920F931F93DF9337
:1014F000CF930F92CDB7DEB70FB6F8940F928091CD
:10150000540381508093540380915403882309F03D
:101510005EC080917F03882309F459C0198235C0C9
:10152000E0917603F0917703E680F780C7010C968F
:101530000E94C80287010E5F1F4FC8010E94C802A7
:10154000D70156962C91569780915503821710F427
:101550002093550330E0C901B3E0880F991FBA9575
:10156000E1F7820F931F8A5A9C4FB8010E946C02C8
:10157000E0914E03F0914F03D70156969C915697F8
:101580008689981710F0B1E0B983809171038823A0
:1015900039F680917E03882341F40CC00E94D10962
:1015A00080917E03815080937E0380917E03882307
:1015B000A9F707C0E981E13021F080915003813023
:1015C00031F4109250030E94B90381E001C080E021
:1015D0000F900FBE0F90CF91DF911F910F91FF9051
:1015E000EF9008951F93CF93DF9380918103882319
:1015F000E1F30E94B709109182030E94730A11233C
:10160000A1F30FB6F8940F92E0918703F09188034D
:10161000C681D781CE0102960E94C80280917F03C5
:10162000815080937F038091810381508093810357
:101630000F900FBE8F89988D0E944A02CE010E94A2
:101640004A02D3CF0F931F93CF93DF93EC01009700
:10165000B1F00E94B7090091520310915303809199
:101660004E0390914F0302960E94C802CE01800F54
:10167000911F0E947D070E94730A882311F40E9423
:10168000B903DF91CF911F910F9108958091540379
:10169000882349F081E08093500308958091550399
:1016A0008150809355038091550390E0FC0153E0F5
:1016B000EE0FFF1F5A95E1F7E80FF91FEA5AFC4FAA
:1016C0008081882359F38091550390E09C0143E089
:1016D000220F331F4A95E1F7280F391FF901EA5A03
:1016E000FC4FA181B28112960D90BC91A02DB283C6
:1016F000A183275A3C4FA217B30731F412962D91BC
:101700003C91139732832183FC0123E0EE0FFF1FEE
:101710002A95E1F7E80FF91FEA5AFC4F0180F281A0
:10172000E02D8681978190934F0380934E03089517
:10173000CF93DF93EB0160914E0370914F03645F91
:101740007F4F0E94910280914E0390914F03029629
:101750000E94C80280915203909153038C0F9D1FE9
:101760000E947D07DF91CF9108950F931F93CF9330
:10177000DF93DC011596ED91FC911697C681D78118
:101780008E01045F1F4FC8010E94C802809154035C
:101790008823C9F48E010E5F1F4FC8010E94C80242
:1017A0002E8980915503821710F42093550330E061
:1017B000C90163E0880F991F6A95E1F7820F931FB3
:1017C0008A5A9C4F02C081E793E0B8010E946C02E4
:1017D000E0914E03F0914F0381E02E8996892917FD
:1017E00008F480E0DF91CF911F910F910895FC01E3
:1017F000809151038083809152039091530392838F
:1018000081830895FC01DB010FB6F8940F9290914B
:1018100051038081981749F020915203309153036E
:10182000818192812817390720F520915203309148
:101830005303818192814D915C911197281B390B43
:1018400024173507B0F42091520330915303821BC3
:10185000930B840F951F11969C938E938091510347
:10186000808380915203909153039283818380E01F
:1018700001C081E00F900FBE089581E08093500376
:10188000089510BC83E389B980B58E6080BD8AB1AC
:1018900088618AB908955D9BFECF8CB908955F9BDE
:1018A000FECF8CB108951F93CF93DF93EC0110E02E
:1018B00003C00E944B0C1F5FFE01E10FF11D8081F0
:1018C0008823B9F7DF91CF911F910895FB01DC01C7
:1018D00002C001900D9241505040D8F70895DC01AC
:1018E00001C06D9341505040E0F70895FB01DC01C9
:1018F0004150504048F001900D920020C9F701C0BE
:0E1900001D9241505040E0F70895F894FFCF3B
:10190E005461736B20322069732072756E6E696E2E
:10191E0067200D0A005461736B20322069732064B6
:10192E00656C6574696E6720697473656C66200DED
:10193E000A005461736B20312069732072756E6ECC
:10194E00696E67200D0A005461736B320054617327
:0A195E006B310049444C4500FFFFC7
:00000001FF
