:100000000C942A000C944E030C9418030C94E202F6
:100010000C9447000C9447000C9447000C94AD04DA
:100020000C9447000C9447000C9447000C94470034
:100030000C9447000C9447000C9447000C94470024
:100040000C9447000C9447000C9447000C94470014
:100050000C94470011241FBECFE5D8E0DEBFCDBF12
:1000600010E0A0E6B0E0EEEBFBE102C005900D92DF
:10007000A437B107D9F713E0A4E7B0E001C01D929F
:10008000AB35B107E1F70E9484030C94DD0D0C94AD
:100090000000EF92FF920F931F93FC010580F68101
:1000A000E02DE680F7808701045F1F4FC8010E94A2
:1000B000BA0285EA90E0B8010E945C0220E0E0917B
:1000C0007400F0917500D70156969C918689981717
:1000D00008F021E0822F1F910F91FF90EF9008957B
:1000E000FF920F931F93CF93DF9399E0F92E21C0D6
:1000F000F894E091AA00F091AB0006811781C80145
:100100000C960E94BA027894E8012296CE010E94D1
:10011000BA02F801968980917600891710F49093BD
:1001200076009F9DC001112483589F4FBE010E94FD
:100130005C028091A5008823D9F60E949C0820913A
:10014000770030917800821B930B90937A00809314
:10015000790089E0F82E53C0019690937C0080933B
:100160007B002150304030937A0020937900892B16
:1001700009F03EC02091A1003091A2008091A3001F
:100180009091A4009093A2008093A1003093A400CA
:100190002093A3002DC00580F681E02DC681D78174
:1001A00020917B0030917C008A819B812817390740
:1001B00030F1F8948E010E5F1F4FC8010E94BA0201
:1001C0008C899D89892B21F0CE010C960E94BA0260
:1001D00078949E8980917600891710F49093760028
:1001E0009F9DC001112483589F4FB8010E945C025B
:1001F000E091A100F091A2008081882361F6209116
:10020000790030917A0080917B0090917C002115DB
:10021000310509F0A1CF90937800809377009091F9
:10022000760029E006C0992319F41092760032C0B6
:100230009150929FD0011124A358BF4F8C918823D5
:1002400091F3909376001196ED91FC9112970280B4
:10025000F381E02D1296FC93EE931197CD01039656
:10026000E817F90731F48281938112969C938E935B
:1002700011971196ED91FC9112970680F781E02D70
:10028000F0937500E093740020813181CF0167897C
:10029000F9010995DF91CF911F910F91FF9008957A
:1002A0000F931F93CF93DF93EB0100917B0010918D
:1002B0007C00080F191F80917400909175000296C0
:1002C0000E94BA02E0917400F091750013830283DA
:1002D00080917B0090917C00BF016E5F7F4F08177B
:1002E000190728F48091A3009091A40004C0809184
:1002F000A1009091A2000E948502209749F0609190
:10030000740070917500645F7F4FCE010E9485027A
:10031000DF91CF911F910F910895AF92BF92CF922D
:10032000DF92EF92FF920F931F93CF93DF936C01B5
:10033000B62EA42E8AE190E00E941702EC010097ED
:1003400011F48FEF59C08091740090917500892B42
:1003500021F5D0937500C09374008DE790E00E9462
:10036000480286E890E00E9448022FE8E22E20E052
:10037000F22EC7010E94480208E910E0C8010E945D
:10038000480285EA90E00E944802F092A200E092C2
:10039000A1001093A4000093A300EB2CBB2011F04C
:1003A000EE24E394198E188EEE8AAF8AFE01C19274
:1003B000D1928F01CF010E945802CE010C960E946B
:1003C0005802D987C887DB8BCA8B83E090E08E19EF
:1003D00091099D878C879E8980917600891710F4FA
:1003E0009093760089E0989FC001112483589F4F15
:1003F000B8010E945C0281E0DF91CF911F910F91C3
:10040000FF90EF90DF90CF90BF90AF900895089548
:100410001092AF001092AE00089528E532E080916E
:10042000AE009091AF00281B390BC90108950F93BE
:100430001F93CF93DF938C010E9496088091AE00AA
:100440009091AF009801280F391F42E028353407FA
:1004500058F48217930740F4EC01C055DF4F3093F6
:10046000AF002093AE0002C0C0E0D0E00E94EF0ACF
:10047000CE01DF91CF911F910F9108958FEF84BB33
:1004800011BA17BA80EE8BBF83E085BF78940895C8
:10049000FC019C012D5F3F4F328321838FEF9FEF43
:1004A000948383833683258330872783108208953E
:1004B000FC01118610860895CF93DF93AC01DB0118
:1004C000EC0129813A81F9018281938113969C93F1
:1004D0008E93129789819A8115969C938E93149787
:1004E0000280F381E02D75836483E9017B836A8355
:1004F000FA017283618319965C934E9318978081F9
:100500008F5F8083DF91CF910895CF93DF939C011C
:10051000EB01488159818FEF4F3F580721F4F901D2
:10052000A781B08510C0D901139604C012960D9012
:10053000BC91A02D1296ED91FC9113978081918131
:100540004817590798F71296ED91FC911397FB8382
:10055000EA83D583C483BD83AC831396DC93CE93A7
:10056000129739872887F90180818F5F8083DF9117
:10057000CF910895CF93DF93DC011296ED91FC911A
:10058000139714968D919C91159795838483149657
:10059000CD91DC911597FB83EA831896ED91FC9140
:1005A0001997818192818A179B0711F4D283C183A5
:1005B00019961C921E921897808181508083DF913A
:1005C000CF9108951F920F920FB60F9211242F937F
:1005D0003F934F935F936F937F938F939F93AF93CB
:1005E000BF93EF93FF93DF93CF930F92CDB7DEB717
:1005F0008091590390915A0360E070E0AE014F5F23
:100600005F4F20E00E9410070F90CF91DF91FF9184
:10061000EF91BF91AF919F918F917F916F915F917A
:100620004F913F912F910F900FBE0F901F901895F3
:100630001F920F920FB60F9211242F933F934F9357
:100640005F936F937F938F939F93AF93BF93EF933A
:10065000FF93DF93CF930F92CDB7DEB7809159030D
:1006600090915A0360E070E0AE014F5F5F4F20E071
:100670000E9410070F90CF91DF91FF91EF91BF91F2
:10068000AF919F918F917F916F915F914F913F912A
:100690002F910F900FBE0F901F9018951F920F92E1
:1006A0000FB60F9211242F933F934F935F936F9345
:1006B0007F938F939F93AF93BF93EF93FF93DF93BA
:1006C000CF930F92CDB7DEB78091590390915A0323
:1006D00060E070E0AE014F5F5F4F20E00E941007C6
:1006E0000F90CF91DF91FF91EF91BF91AF919F91CB
:1006F0008F917F916F915F914F913F912F910F90CB
:100700000FBE0F901F901895AF92BF92CF92DF92BD
:10071000EF92FF920F930E943E020E949F0D82E093
:1007200060E00E948A0890935A038093590384EBF7
:1007300093E060E670E045E550E020E030E001E065
:10074000EE24FF24CC24DD24AA24BB240E94530CD5
:100750000E94740D80E090E00F91FF90EF90DF9089
:10076000CF90BF90AF9008951F93809159039091BF
:100770005A0360E070E04FEF5FEF20E00E94B205A7
:1007800011E08091590390915A0360E070E04FEFBF
:100790005FEF20E00E94B20585B3812785BB86E626
:1007A00090E00E94B10DEDCFFC0191E1908322E237
:1007B000229383E3829362937293129280E88293EE
:1007C000129282E0829383E0829384E0829385E0B8
:1007D000829386E0829387E0829388E0829389E027
:1007E000829380E18293929382E1829383E1829368
:1007F00084E1829385E1829386E1829387E182930B
:1008000088E1829389E1829380E2829381E28293FC
:10081000229383E282934293529386E2829387E209
:10082000829388E2829389E2829380E3829381E3D8
:1008300082933197CF0108951BBC8CE78ABD8BE072
:100840008EBD89B7806189BFA0910803B09109036B
:10085000CD91CDBFDD91DEBFFF91EF91DF91CF91C3
:10086000BF91AF919F918F917F916F915F914F91C8
:100870003F912F911F910F91FF90EF90DF90CF90BC
:10088000BF90AF909F908F907F906F905F904F90B0
:100890003F902F901F900F900FBE0F90089581E012
:1008A000089508950F920FB6F8940F921F92112495
:1008B0002F923F924F925F926F927F928F929F9270
:1008C000AF92BF92CF92DF92EF92FF920F931F935E
:1008D0002F933F934F935F936F937F938F939F9348
:1008E000AF93BF93CF93DF93EF93FF93A091080350
:1008F000B09109030DB60D920EB60D920E94F70944
:100900000E94B008A0910803B0910903CD91CDBF1A
:10091000DD91DEBFFF91EF91DF91CF91BF91AF915C
:100920009F918F917F916F915F914F913F912F9107
:100930001F910F91FF90EF90DF90CF90BF90AF90FD
:100940009F908F907F906F905F904F903F902F90EF
:100950001F900F900FBE0F9008950E94520418959B
:100960000F920FB6F8940F921F9211242F923F927C
:100970004F925F926F927F928F929F92AF92BF92AF
:10098000CF92DF92EF92FF920F931F932F933F939B
:100990004F935F936F937F938F939F93AF93BF9387
:1009A000CF93DF93EF93FF93A0910803B0910903D6
:1009B0000DB60D920EB60D920E94B008A0910803DC
:1009C000B0910903CD91CDBFDD91DEBFFF91EF91D5
:1009D000DF91CF91BF91AF919F918F917F916F9157
:1009E0005F914F913F912F911F910F91FF90EF9049
:1009F000DF90CF90BF90AF909F908F907F906F903F
:100A00005F904F903F902F901F900F900FBE0F90D0
:100A10000895FC010FB6F8940F92828D0F900FBECF
:100A20000895FC01828D0895FC01828D90E0882359
:100A300009F491E0892F0895FC01928D20E0838DC7
:100A4000981709F421E0822F08950F931F938C01CA
:100A5000FC01808191810E940702C8010E94070267
:100A60001F910F9108950F931F93CF93DF93EC0184
:100A7000FB018A018A8D882381F1488159814115C2
:100A80005105A9F08C8D2E813F81280F311D3F83A8
:100A90002E838A819B812817390710F05F834E834C
:100AA0004C8D6E817F81CF0150E00E94BE0D8A8DFA
:100AB00081508A8F8D8D8F3F69F48885882361F0FE
:100AC000CE0108960E94B809882331F081E0F80130
:100AD000808303C08F5F8D8F81E0DF91CF911F9165
:100AE0000F9108950F931F93CF93DF93EC010FB6EF
:100AF000F8940F928C010F5E1F4F0DC089898823D7
:100B000069F0C8010E94B809882311F00E943709D2
:100B10008E8D81508E8F8E8D181684F38FEF8E8F71
:100B20000F900FBE0FB6F8940F928E01085F1F4F03
:100B30000DC08885882369F0C8010E94B809882300
:100B400011F00E9437098D8D81508D8F8D8D181673
:100B500084F38FEF8D8F0F900FBEDF91CF911F9198
:100B60000F9108957F928F929F92AF92BF92CF92F2
:100B7000DF92EF92FF920F931F93DF93CF9300D0FA
:100B800000D00F92CDB7DEB78C01962E872E5D83F5
:100B90004C83722E91E1C92ED12CC00ED11E20E0C3
:100BA0007E010894E11CF11C84E0A82EB12CAC0E4F
:100BB000BD1E01C021E00FB6F8940F92F801828D9E
:100BC000882309F448C0E680F780408151814115AF
:100BD0005105B1F0848D9701280F311D378326838D
:100BE000828193812817390710F057834683F801D3
:100BF000448D66817781892D982D50E00E94BE0D2D
:100C00007720C1F4F801828D8150828F808191819B
:100C1000892B29F40E943B09F80193838283F80110
:100C200080858823A1F0C80108960E94B809813008
:100C300071F40BC0F801F782E6828189882339F0CC
:100C4000C6010E94B809882311F00E94B0040F90D9
:100C50000FBE81E059C08C819D81892B19F40F90C2
:100C60000FBE51C0222319F4C7010E94F2080F9051
:100C70000FBE0E9496080FB6F8940F92F801858D6A
:100C80008F3F09F4158EF801868D8F3F09F4168E7B
:100C90000F900FBEC701B5010E94FD08882371F5B2
:100CA0000FB6F8940F92F801828D0F900FBE882333
:100CB000F9F4F80180819181892B51F40FB6F894F1
:100CC0000F92F801828193810E946E090F900FBEEE
:100CD0006C817D81C6010E94D20AC8010E94720502
:100CE0000E94EF0A882309F065CF0E94B00462CF0A
:100CF000C8010E9472050E94EF0A5CCFC8010E94E1
:100D000072050E94EF0A80E00F900F900F900F90F5
:100D10000F90CF91DF911F910F91FF90EF90DF9097
:100D2000CF90BF90AF909F908F907F900895EF925B
:100D3000FF920F931F93CF93DF93EC017B010A8106
:100D40001B810E943B090817190739F48E819F8186
:100D500001969F838E8321E00FC0CE0160E070E09A
:100D6000A70120E00E94B205282F813029F48E814E
:100D70009F8101969F838E83822FDF91CF911F9158
:100D80000F91FF90EF900895CF93DF93EC01842FA4
:100D90004C8D442359F488819981892BD9F58A8116
:100DA0009B810E9441091B821A8234C08823B1F4BE
:100DB0008C819D8150E00E94BE0D8C8D2C813D81E7
:100DC000280F311D3D832C838A819B812817390789
:100DD00008F1888199819D838C831CC08E819F81BD
:100DE00050E00E94BE0D8C8D90E044275527481B93
:100DF000590B8E819F81840F951F9F838E8328813D
:100E000039818217930730F48A819B81840F951F63
:100E10009F838E838A8D8F5F8A8FDF91CF91089514
:100E20000F931F93CF93DF93EC018A019A8D8B8DE3
:100E3000981710F080E017C0CE01422F0E94C40620
:100E40008E8D8F3F69F48989882361F0CE014196A8
:100E50000E94B809882331F081E0F801808303C043
:100E60008F5F8E8F81E0DF91CF911F910F91089559
:100E70007F928F929F92AF92BF92CF92DF92EF922A
:100E8000FF920F931F93DF93CF9300D000D00F9268
:100E9000CDB7DEB78C016B015D834C83722E48E0C9
:100EA000E42EF12CE80EF91E20E05E010894A11C4E
:100EB000B11C34E0832E912C8C0E9D1E01C021E0CC
:100EC0000FB6F8940F92F801928D838D9817A8F4BD
:100ED000C801B601472D0E94C406F8018189882304
:100EE00041F0C80141960E94B809813011F40E9476
:100EF000B0040F900FBE81E04CC08C819D81892B86
:100F000019F40F900FBE44C0222319F4C5010E94AA
:100F1000F2080F900FBE0E9496080FB6F8940F9239
:100F2000F801858D8F3F09F4158EF801868D8F3F6E
:100F300009F4168E0F900FBEC501B4010E94FD0882
:100F4000882309F50FB6F8940F92F801928D0F904F
:100F50000FBEF801838D981781F46C817D81C701E4
:100F60000E94D20AC8010E9472050E94EF0A8823DB
:100F700009F0A5CF0E94B004A2CFC8010E9472055B
:100F80000E94EF0A9CCFC8010E9472050E94EF0ADE
:100F900080E00F900F900F900F900F90CF91DF9106
:100FA0001F910F91FF90EF90DF90CF90BF90AF9087
:100FB0009F908F907F9008950F931F93CF93DF930F
:100FC000EC010A811B810E943B090817190711F0E7
:100FD00080E010C08E819F8101979F838E83892B33
:100FE00041F4CE0160E070E040E050E020E00E947B
:100FF000380781E0DF91CF911F910F910895CF9332
:10100000DF938FE190E00E941702EC010097F9F066
:101010001B821A82198218821D821C821F821E82E4
:101020001A8E81E08B8F1C8E8FEF8D8F8E8FCE016D
:1010300008960E944802CE0141960E944802CE01C5
:1010400060E070E040E050E020E00E943807CE0110
:10105000DF91CF910895AF92BF92CF92DF92EF923E
:10106000FF920F931F93CF93DF93B82EA62E882362
:1010700009F442C08FE190E00E941702EC01009752
:10108000D9F1EB2CFF24CA2CDD24CE9C8001CF9C0F
:10109000100DDE9C100D1124C80101960E9417024C
:1010A0009C0199838883009721F1080F191F1B83E6
:1010B0000A831A8E9D838C830894E108F108EC9CC6
:1010C000C001ED9C900DFC9C900D1124280F391F40
:1010D0003F832E83BB8EAC8E8FEF8D8F8E8FCE0194
:1010E00008960E944802CE0141960E9448029E0145
:1010F00005C0CE010E94070220E030E0C901DF9167
:10110000CF911F910F91FF90EF90DF90CF90BF9004
:10111000AF9008951F93162F60E00E942B08FC01EA
:10112000009709F0128FCF011F91089580910F034E
:101130008F5F80930F0308950FB6F8940F9220915C
:101140000D0330910E030F900FBEC9010895209139
:101150000D0330910E03C901089580911103089584
:1011600080910F03882351F081E080930B03089551
:1011700080910A03815080930A0301C099E0E091B5
:101180000A03E99FF0011124EA5EFC4F8081882365
:1011900079F390910A0389E0989FD0011124AA5E07
:1011A000BC4F1196ED91FC9112970280F381E02DD6
:1011B0001296FC93EE931197CD010396E817F90769
:1011C00031F48281938112969C938E93119711969C
:1011D000ED91FC91129786819781909309038093FA
:1011E00008030895FC0180910C03808380910D0316
:1011F00090910E03928381830895FC01DB010FB669
:10120000F8940F9290910C038081981749F02091E7
:101210000D0330910E03818192812817390718F54B
:1012200080910D0390910E03218132814D915C914B
:101230001197821B930B84179507A8F480910D03D7
:1012400090910E03281B390B240F351F2D933C93CF
:1012500080910C03808380910D0390910E03928303
:10126000818380E001C081E00F900FBE089581E08E
:1012700080930B0308952091080330910903C9015D
:1012800008950F931F93CF93DF93EC01009709F11B
:101290009E8989A19817E9F08E010E5F1F4FC80142
:1012A0000E94BA0229A12E8B83E090E0821B910953
:1012B0009D878C8780910A03821710F420930A037C
:1012C00089E0289FC00111248A5E9C4FB8010E94CA
:1012D0005C02DF91CF911F910F9108950F931F939F
:1012E000CF93DF93EC01E0910803F09109033E896D
:1012F00086893817C0F5E0910803F0910903268923
:1013000083E090E0821B91099D878C8789E0389F5C
:10131000C00111248A5E9C4F2A853B852817390716
:10132000E1F48E010E5F1F4FC8010E94BA02E091E6
:101330000803F091090396899E8B80910A0389170F
:1013400010F490930A0389E0989FC00111248A5EEB
:101350009C4FB8010E945C0206C0E0910803F09126
:10136000090386898E8BDF91CF911F910F9108958C
:101370000F931F93CF93DF93FC010580F681E02D3F
:1013800006811781E8012C96CE010E94BA02809155
:101390000F038823A9F4E8012296CE010E94BA0225
:1013A000D80156969C9180910A03891710F4909366
:1013B0000A0389E0989FC00111248A5E9C4F02C0F5
:1013C00087E493E0BE010E945C02E0910803F09183
:1013D000090320E0D80156969C918689981708F059
:1013E00021E0822FDF91CF911F910F910895FF92FD
:1013F0000F931F93CF93DF9380910F03882309F0FE
:101400008FC080910D0390910E03019690930E036F
:1014100080930D0380910D0390910E03892B79F534
:1014200020914303309144038091450390914603FA
:1014300090934403809343033093460320934503E2
:1014400080910C038F5F80930C03E0914303F09134
:1014500044038081882319F48FEF9FEF0CC0E09143
:101460004303F09144030580F681E02D0680F78167
:10147000E02D82819381909373008093720020917C
:101480000D0330910E038091720090917300281724
:10149000390708F44AC089E0F82EE0914303F0913F
:1014A00044038081882339F48FEF9FEF909373007A
:1014B000809372003AC0E0914303F09144030580A9
:1014C000F681E02DC681D7812A813B8180910D0371
:1014D00090910E038217930728F4309373002093A2
:1014E000720023C08E010E5F1F4FC8010E94BA0216
:1014F0008C899D89892B21F0CE010C960E94BA021D
:101500009E8980910A03891710F490930A039F9D86
:10151000C00111248A5E9C4FB8010E945C02BDCFBD
:10152000809110038F5F80931003DF91CF911F9103
:101530000F91FF900895CF93DF93EC01E0910803A2
:10154000F09109039383828380910D0390910E03A0
:10155000C817D90768F480914503909146036091BC
:101560000803709109036E5F7F4F0E94850217C0C8
:1015700080914303909144036091080370910903A3
:101580006E5F7F4F0E948502809172009091730080
:10159000C817D90720F4D0937300C0937200DF916D
:1015A000CF9108950F931F938B0160910803709161
:1015B0000903645F7F4F0E94850280910803909128
:1015C000090302960E94BA0280910D0390910E03C6
:1015D000800F911F0E949B0A1F910F910895CF9237
:1015E000DF92FF920F931F93DF93CF930F92CDB7AC
:1015F000DEB70FB6F8940F9280910F03815080935D
:101600000F0380910F03882309F058C080911103C4
:10161000882309F453C0198299E0F92E2DC0E09176
:101620004C03F0914D03C680D780C6010C960E94F2
:10163000BA0286010E5F1F4FC8010E94BA02D6018E
:1016400056969C9180910A03891710F490930A038F
:101650009F9DC00111248A5E9C4FB8010E945C02CC
:10166000E0910803F0910903D60156969C91868972
:10167000981710F0B1E0B98380914703882379F679
:1016800080911003882341F40CC00E94F7098091D7
:101690001003815080931003809110038823A9F7D1
:1016A00007C0E981E13021F080910B03813031F4F2
:1016B00010920B030E94B00481E001C080E00F9003
:1016C0000FBE0F90CF91DF911F910F91FF90DF9090
:1016D000CF9008950F931F93CF93DF93EC01009762
:1016E000C9F080910F038F5F80930F0300910D036A
:1016F00010910E03809108039091090302960E94B5
:10170000BA02CE01800F911F0E949B0A0E94EF0A2D
:10171000882311F40E94B004DF91CF911F910F91A3
:101720000895CF93DF93FC01EB0180910F038F5F4E
:1017300080930F0320813181C20FD31F80910D034D
:1017400090910E038217930728F4C217D30728F04D
:1017500020E00CC0C217D30740F080910D03909198
:101760000E0320E08C179D0708F421E0D183C0838D
:10177000222351F0809108039091090302960E9460
:10178000BA02CE010E949B0A0E94EF0A882311F43C
:101790000E94B004DF91CF910895EF92FF920F93D2
:1017A0001F93CF93DF938C010FB6F8940F92809123
:1017B0000803909109030817190719F400E010E0D5
:1017C00003C00115110529F4C0910803D091090344
:1017D00001C0E80122E0E22EF12CEC0EFD1EC70153
:1017E0000E94BA028C899D89892B21F0CE010C962A
:1017F0000E94BA0280E593E0B7010E945C028091EA
:1018000013038F5F80931303809114038F5F809382
:1018100014030F900FBE80911203882321F0012B37
:1018200011F40E94B004DF91CF911F910F91FF90AE
:10183000EF900895F894109212030E9451040895B5
:101840000F931F93809113038823E1F380910F037B
:101850008F5F80930F03109150030E94EF0A1123B2
:1018600089F30FB6F8940F92E0915503F091560367
:1018700006811781C80102960E94BA028091110365
:10188000815080931103809113038150809313033F
:101890000F900FBEF8018789908D0E940702C80142
:1018A0000E940702CFCF2F923F925F926F927F925A
:1018B0008F929F92AF92BF92CF92DF92EF92FF9260
:1018C0000F931F93DF93CF9300D000D0CDB7DEB737
:1018D0009A8389834B015A011901502E370182E204
:1018E00090E00E9417028B839C838B819C81892BC3
:1018F00089F0C114D10421F4C5010E9417026C01C2
:10190000EB81FC81D08EC78AC114D10429F4CF01A8
:101910000E9407028FEFD2C0C60165EA70E0A50100
:101920000E94C70D0894A108B108EB81FC81E788EB
:10193000F08CEA0CFB1CCF014996B40148E050E062
:101940000E94CE0DEB81FC8110A2052DF2E0F51571
:1019500008F402E0EB81FC81068B01A342E0C42E77
:10196000D12CCE0EDF1EC6010E9458028B819C81B5
:101970000C960E9458028B819C81FC019187808784
:1019800083E090E0801B910995878487F38BE28B3D
:10199000C70169817A81A1010E94D403EB81FC8196
:1019A000918380836114710421F0CF01F30191834D
:1019B00080830FB6F8940F92809111038F5F80930C
:1019C00011038091080390910903892B99F5EB810C
:1019D000FC81F0930903E0930803809111038130A7
:1019E000D1F586E193E00E9448028FE193E00E94E6
:1019F000480288E293E00E94480231E3E32E33E09C
:101A0000F32EC7010E9448020AE313E0C8010E94B6
:101A1000480287E493E00E94480280E593E00E9438
:101A20004802F0924403E09243031093460300936C
:101A3000450311C080911203882369F4E0910803E3
:101A4000F09109038689581630F08B819C81909320
:101A5000090380930803EB81FC819689809115032B
:101A6000891710F490931503809114038F5F80936E
:101A70001403EB81FC81968980910A03891710F485
:101A800090930A03EB81FC81868929E0829FC00143
:101A900011248A5E9C4FB6010E945C020F900FBE1B
:101AA00080911203882349F0E0910803F091090323
:101AB0008689851510F40E94B00481E00F900F9084
:101AC0000F900F90CF91DF911F910F91FF90EF90AA
:101AD000DF90CF90BF90AF909F908F907F906F904E
:101AE0005F903F902F900895AF92BF92CF92DF9278
:101AF000EF92FF920F9380E29CE06DE670E045E587
:101B000050E020E030E000E0EE24FF24CC24DD248F
:101B1000AA24BB240E94530C813049F4F89480938A
:101B2000120310920E0310920D030E941C040F91D9
:101B3000FF90EF90DF90CF90BF90AF90089510BCD2
:101B400083E389B980B58E6080BD8AB188618AB926
:101B500008955D9BFECF8CB908955F9BFECF8CB13D
:101B6000089520E004C05D9BFECFECB92F5FFC011F
:101B7000E20FF11DE081EE23B1F70895FB01DC01D6
:101B800002C001900D9241505040D8F70895DC01F9
:101B900001C06D9341505040E0F70895FB01DC0116
:101BA0004150504048F001900D920020C9F701C00B
:0E1BB0001D9241505040E0F70895F894FFCF89
:101BBE00696E70757400505553480D0A0049444CB7
:041BCE004500FFFFD0
:00000001FF
