:100000000C942A000C9447000C9447000C94470071
:100010000C9447000C9447000C9447000C947E0409
:100020000C9447000C9447000C9447000C94470034
:100030000C9447000C9447000C9447000C94470024
:100040000C9447000C9447000C9447000C94470014
:100050000C94470011241FBECFE5D8E0DEBFCDBF12
:1000600010E0A0E6B0E0E0E3F9E102C005900D92F7
:10007000A83EB107D9F713E0A8EEB0E001C01D9289
:10008000AF3CB107E1F70E9420030C94960C0C944E
:100090000000AF92BF92CF92DF92EF92FF920F9348
:1000A0001F93CF93DF936C01B62EA42E8AE190E0CC
:1000B0000E942102E82EE7017E01F92EE701209738
:1000C00009F45EC08091E8009091E900009721F565
:1000D000F092E900E092E80084EF90E00E945A027A
:1000E0008DEF90E00E945A0250E1E52E51E0F52E8E
:1000F000C7010E945A0209E111E0C8010E945A0298
:100100008AEE90E00E945A02F0920D01E0920C01FA
:1001100010930F0100930E01BB2011F0BB24B39488
:10012000198E188EBE8AAF8AFE01C192D1928F01BC
:10013000CF010E946802CE010C960E946802D98706
:10014000C887DB8BCA8B83E090E08B1991099D8770
:100150008C872E898091F300821710F42093F3008E
:1001600030E0C90143E0880F991F4A95E1F7820FFB
:10017000931F8C509F4FB8010E946C0281E001C018
:100180008FEFDF91CF911F910F91FF90EF90DF9054
:10019000CF90BF90AF9008950F931F93CF93DF93AD
:1001A000EB0100910A0110910B01080F191F8091BA
:1001B000E8009091E90002960E94C8026091E80070
:1001C0007091E900FB011383028380910A019091F1
:1001D0000B016E5F7F4F0817190728F480910E01FD
:1001E00090910F0104C080910C0190910D010E942B
:1001F0009102209749F06091E8007091E900645FF6
:100200007F4FCE010E949102DF91CF911F910F91FC
:1002100008950F931F93CF93DF9327C0F894E09135
:10022000EF00F091F000C681D781CE010C960E94BC
:10023000C80278948E010E5F1F4FC8010E94C80249
:100240002E898091F300821710F42093F30030E0A0
:10025000C901F3E0880F991FFA95E1F7820F931F08
:100260008C509F4FB8010E946C028091EA00882355
:10027000A9F60E94CE092091060130910701821B48
:10028000930B909309018093080159C001969093B4
:100290000B0180930A0121503040309309012093D3
:1002A0000801009709F044C080910C0190910D0164
:1002B00020910E0130910F0130930D0120930C011C
:1002C00090930F0180930E0133C00580F681E02DDD
:1002D000C681D78120910A0130910B018A819B81CF
:1002E0002817390760F1F8948E010E5F1F4FC8017F
:1002F0000E94C8028C899D89009721F0CE010C963E
:100300000E94C80278942E898091F300821710F41D
:100310002093F30030E0C901E3E0880F991FEA95CC
:10032000E1F7820F931F8C509F4FB8010E946C021F
:10033000E0910C01F0910D018081882331F620912C
:1003400008013091090180910A0190910B0121155A
:10035000310509F09BCF90930701809306014091EE
:10036000F30006C0442319F41092F30040C041503A
:10037000842F90E09C0173E0220F331F7A95E1F700
:10038000280F391FF901EC50FF4F5081552351F3CD
:100390004093F300A181B28112960D90BC91A02DE3
:1003A000B283A18329503F4FA217B30731F41296AD
:1003B0002D913C91139732832183FC0163E0EE0F72
:1003C000FF1F6A95E1F7E80FF91FEC50FF4F01801E
:1003D000F281E02DA681B781B093E900A093E800F7
:1003E000ED91FC911197CD0157966C910995DF9194
:1003F000CF911F910F9108950F931F93CF93DF9388
:10040000DC011596ED91FC911697C681D7818E017E
:10041000045F1F4FC8010E94C8028AEE90E0B80135
:100420000E946C02E091E800F091E90081E02E89E1
:100430009689291708F480E0DF91CF911F910F91E1
:100440000895EF92FF920F931F93CF93DF938C0148
:100450000E94C809C0912201D09123010C0F1D1FD9
:1004600022E00835120750F4C017D10738F4CC5DEC
:10047000DE4F109323010093220102C0C0E0D0E0C0
:100480000E94840ACE01DF91CF911F910F91FF90BE
:10049000EF9008950895109223011092220108957B
:1004A00028E532E08091220190912301281B390B2D
:1004B000C9010895FC010396928381832FEF3FEFDA
:1004C000348323839683858390878783108208955E
:1004D000FC01118610860895CF93DF93FC01DB01A8
:1004E00021813281E9018A819B8113969C938E93AD
:1004F000129715963C932E9314978A819B81EC0159
:100500007D836C83E9017B836A837283618319969F
:10051000FC93EE93189780818F5F8083DF91CF915A
:100520000895CF93DF93AC01EB01888199812FEF80
:100530008F3F920721F4FA01A781B08511C0DA013B
:10054000139604C012960D90BC91A02D12962D9179
:100550003C911397F901208131818217930790F71D
:1005600012968D919C9113979B838A83FC01D5836E
:10057000C483BD83AC831396DC93CE9312975987C3
:100580004887FA0180818F5F8083DF91CF91089542
:10059000CF93DF93FC01A281B3818481958115966D
:1005A0009C938E931497C481D581BB83AA83A08525
:1005B000B18511968D919C9112978E179F0721F40A
:1005C0001296DC93CE931197118610868C918150F0
:1005D0008C93DF91CF9108951F9380E090E00E946B
:1005E0001809182F0E94520C1F5F80E690E00E94AD
:1005F000640C85E790E00E94640C8091CD0390919B
:10060000CE03612F0E942709F0CF1F9380E090E076
:100610000E941809182F0E94520C12508AE990E08B
:100620000E94640C8FEA90E00E94640C80E090E0ED
:10063000612F0E94270988EE93E00E94330BEECFD2
:10064000AF92BF92CF92DF92EF92FF920F938CEE18
:1006500092E064ED70E045E550E020E030E002E03B
:10066000EDECEE2EE3E0FE2ECC24DD24AA24BB2408
:100670000E94C50785E093E06AED70E045E550E033
:1006800020E030E001E0EE24FF240E94C5070E9434
:100690009709FFCF21E1FC01208392E2929383E34B
:1006A000829362937293129280E88293129282E014
:1006B000829383E0829384E0829385E0829386E054
:1006C000829387E0829388E0829389E0829380E13D
:1006D0008293229382E1829383E1829384E18293E5
:1006E00085E1829386E1829387E1829388E1829318
:1006F00089E1829380E2829381E28293929383E202
:1007000082934293529386E2829387E2829388E2B5
:10071000829389E2829380E3829381E382939F01B3
:1007200021503040C90108951BBC8CE78ABD8BE085
:100730008EBD89B7806189BFA0917C03B0917D0394
:10074000CD91CDBFDD91DEBFFF91EF91DF91CF91D4
:10075000BF91AF919F918F917F916F915F914F91D9
:100760003F912F911F910F91FF90EF90DF90CF90CD
:10077000BF90AF909F908F907F906F905F904F90C1
:100780003F902F901F900F900FBE0F90089581E023
:10079000089508950F920FB6F8940F921F921124A6
:1007A0002F923F924F925F926F927F928F929F9281
:1007B000AF92BF92CF92DF92EF92FF920F931F936F
:1007C0002F933F934F935F936F937F938F939F9359
:1007D000AF93BF93CF93DF93EF93FF93A0917C03ED
:1007E000B0917D030DB60D920EB60D920E94570B7F
:1007F000A0917C03B0917D03CD91CDBFDD91DEBF93
:10080000FF91EF91DF91CF91BF91AF919F918F9128
:100810007F916F915F914F913F912F911F910F9118
:10082000FF90EF90DF90CF90BF90AF909F908F9010
:100830007F906F905F904F903F902F901F900F9000
:100840000FBE0F9008950F920FB6F8940F921F925B
:1008500011242F923F924F925F926F927F928F92CC
:100860009F92AF92BF92CF92DF92EF92FF920F933F
:100870001F932F933F934F935F936F937F938F9328
:100880009F93AF93BF93CF93DF93EF93FF93A09189
:100890007C03B0917D030DB60D920EB60D920E94B1
:1008A000E2090E94570BA0917C03B0917D03CD918A
:1008B000CDBFDD91DEBFFF91EF91DF91CF91BF9171
:1008C000AF919F918F917F916F915F914F913F91E8
:1008D0002F911F910F91FF90EF90DF90CF90BF90DD
:1008E000AF909F908F907F906F905F904F903F90D0
:1008F0002F901F900F900FBE0F9008950E94230419
:1009000018950F931F93CF93DF93EC010FB6F894D4
:100910000F928C010F5E1F4F0DC08989882369F0EB
:10092000C8010E94C60B882311F00E944E0C8E8DC8
:1009300081508E8F8E8D181684F38FEF8E8F0F90CF
:100940000FBE0FB6F8940F928E01085F1F4F0DC0B7
:100950008885882369F0C8010E94C60B882311F09E
:100960000E944E0C8D8D81508D8F8D8D181684F3C5
:100970008FEF8D8F0F900FBEDF91CF911F910F9151
:100980000895AF92BF92CF92DF92EF92FF920F93B2
:100990001F93CF93DF93B82EA62E882309F443C06C
:1009A0008FE190E00E942102E82EE7017E01F92EFE
:1009B000E7012097C1F10B2D10E0CA2CDD24C09E69
:1009C0007001C19EF00CD09EF00C1124C70101965D
:1009D0000E94210299838883009711F1E80EF91E85
:1009E000FB82EA821A8E9D838C83015010400C9DFD
:1009F000A0010D9D500D1C9D500D1124480F591F35
:100A00005F834E83BB8EAC8E8FEF8D8F8E8FCE012A
:100A100008960E945A02CE0141960E945A0205C0D1
:100A2000CE010E944A02C0E0D0E0CE01DF91CF911A
:100A30001F910F91FF90EF90DF90CF90BF90AF90FC
:100A400008957F928F929F92AF92BF92CF92DF9242
:100A5000EF92FF920F931F93DF93CF9300D000D0BC
:100A60000F92CDB7DEB78C016B015D834C83722E84
:100A700020E07E010894E11CF11C94E0A92EB12C29
:100A8000AC0EBD1E88E0882E912C800E911E01C0F8
:100A900021E00FB6F8940F92F801928D838D98178C
:100AA00008F04EC0448D4423C1F17720C1F4848105
:100AB0009581B60150E00E94770CF801248D848165
:100AC0009581820F911D95838483228133818217C2
:100AD000930718F180819181958384831EC0F8016A
:100AE00086819781B60150E00E94770CF801248D31
:100AF00030E0309521953F4F86819781820F931F7B
:100B000097838683408151818417950730F48281D1
:100B10009381820F931F97838683F801828D8F5F65
:100B2000828F8189882341F0C80141960E94C60BBB
:100B3000813011F40E94CA030F900FBE81E04CC0B7
:100B40008C819D81009719F40F900FBE44C0222321
:100B500019F4C7010E94080C0F900FBE0E94C8092B
:100B60000FB6F8940F92F801858D8F3F09F4158E1A
:100B7000F801868D8F3F09F4168E0F900FBEC701C6
:100B8000B5010E94130C882309F50FB6F8940F9253
:100B9000F801928D0F900FBEF801838D981781F4A4
:100BA0006C817D81C4010E94A90BC8010E9481044F
:100BB0000E94840A882309F06BCF0E94CA0368CF81
:100BC000C8010E9481040E94840A62CFC8010E9469
:100BD00081040E94840A80E00F900F900F900F9084
:100BE0000F90CF91DF911F910F91FF90EF90DF90C9
:100BF000CF90BF90AF909F908F907F9008950F936C
:100C00001F93CF93DF93EC018A019A8D8B8D9817F8
:100C100008F04CC04C8D442399F12223B1F48C810F
:100C20009D8150E00E94770C2C8D8C819D81820FDC
:100C3000911D9D838C832A813B818217930700F14C
:100C4000888199819D838C831BC08E819F8150E018
:100C50000E94770C2C8D30E0309521953F4F8E818E
:100C60009F81820F931F9F838E83488159818417B0
:100C7000950730F48A819B81820F931F9F838E8317
:100C80008A8D8F5F8A8F8E8D8F3F69F48989882343
:100C900079F0CE0141960E94C60B882349F081E08D
:100CA000F801808306C08F5F8E8F02C080E001C094
:100CB00081E0DF91CF911F910F9108957F928F92E4
:100CC0009F92AF92BF92CF92DF92EF92FF920F93DB
:100CD0001F93DF93CF9300D000D00F92CDB7DEB734
:100CE0008C01862E772E5D834C83922E20E07E0130
:100CF0000894E11CF11C44E0C42ED12CCC0EDD1E66
:100D000031E1A32EB12CA80EB91E01C021E00FB60F
:100D1000F8940F92F801828D882309F43DC0E68093
:100D2000F780808191810097A9F0448D9701240F6D
:100D3000311D37832683628173812617370710F0B0
:100D400097838683F80166817781882D972D50E0FF
:100D50000E94770C992071F4F801828D8150828F66
:100D600080858823A9F0C80108960E94C60B8130AF
:100D700079F40CC0F801F782E6828189882341F07A
:100D8000C80141960E94C60B882311F00E94CA0335
:100D90000F900FBE81E04AC08C819D81009719F4AD
:100DA0000F900FBE42C0222319F4C7010E94080C05
:100DB0000F900FBE0E94C8090FB6F8940F92F80169
:100DC000858D8F3F09F4158EF801868D8F3F09F4CC
:100DD000168E0F900FBEC701B6010E94130C882318
:100DE000F9F40FB6F8940F92F801828D0F900FBEB0
:100DF000882381F46C817D81C5010E94A90BC80103
:100E00000E9481040E94840A882309F07FCF0E94F7
:100E1000CA037CCFC8010E9481040E94840A76CF55
:100E2000C8010E9481040E94840A80E00F900F9004
:100E30000F900F900F90CF91DF911F910F91FF9026
:100E4000EF90DF90CF90BF90AF909F908F907F906A
:100E500008950F931F93CF93DF93EC01CB018A0189
:100E60002A8D222371F1E881F9813097A1F04C8D10
:100E70002E813F81240F311D3F832E83AA81BB81A8
:100E80002A173B0710F0FF83EE836E812F81722FAC
:100E900050E00E94770C8A8D81508A8F8D8D8F3F14
:100EA00069F48885882379F0CE0108960E94C60BE4
:100EB000882349F081E0F801808306C08F5F8D8F21
:100EC00002C080E001C081E0DF91CF911F910F91BE
:100ED00008950FB6F8940F92FC01828D0F900FBE0B
:100EE0000895FC01828D0895CF93DF93EC018881F2
:100EF00099810E944A02CE010E944A02DF91CF915D
:100F00000895FC01928D81E0911180E00895FC012B
:100F1000228D81E0938D291380E00895CF93DF9394
:100F2000EC01E0917C03F0917D03938382838091B7
:100F3000800390918103C817D90768F48091A803B2
:100F40009091A90360917C0370917D036E5F7F4F48
:100F50000E94910217C08091AA039091AB03609107
:100F60007C0370917D036E5F7F4F0E9491028091A0
:100F7000E5009091E600C817D90720F4D093E60069
:100F8000C093E500DF91CF9108952F923F924F9249
:100F90005F926F927F928F929F92AF92BF92CF9209
:100FA000DF92EF92FF920F931F93CF93DF931C0179
:100FB0003B015A012901470181E290E00E94210290
:100FC000E82EE7017E01F92EE701209709F4CEC053
:100FD000C114D10429F4C5010E942102C82ED92EC2
:100FE000D88ECF8AC114D10421F4CE010E944A02C6
:100FF000BDC0C60165EA70E0A5010E94800C08949E
:10100000A108B108EF88F88CEA0CFB1CCE014996C8
:10101000B30148E050E00E94870C18A2102F033063
:1010200008F012E01E8B72E0A72EB12CAC0EBD1E94
:10103000C5010E946802CE010C960E946802D98701
:10104000C88783E090E0811B91099D878C87DB8BAB
:10105000CA8BC701B101A2010E944A039983888308
:101060008114910419F0F401D183C0830FB6F89470
:101070000F928091AD038F5F8093AD0380917C03CD
:1010800090917D03009799F5D0937D03C0937C03E5
:101090008091AD038130D1F584E893E00E945A023B
:1010A0008DE893E00E945A0286E993E00E945A027A
:1010B0006BEBE62E63E0F62EC7010E945A0254EC59
:1010C000C52E53E0D52EC6010E945A028FE993E047
:1010D0000E945A0280EB93E00E945A02F092AB0306
:1010E000E092AA03D092A903C092A8030FC08091F6
:1010F000AE03882359F4E0917C03F0917D03868947
:10110000081720F0D0937D03C0937C032E89809133
:10111000BA03821710F42093BA038091B9038F5F4A
:101120008093B90380918303821710F42093830383
:1011300030E0C90143E0880F991F4A95E1F7820F1B
:10114000931F8C579C4FB5010E946C020F900FBEED
:101150008091AE03882361F0E0917C03F0917D03E0
:101160008689801728F40E94CA0302C08FEF01C04D
:1011700081E0DF91CF911F910F91FF90EF90DF9071
:10118000CF90BF90AF909F908F907F906F905F9027
:101190004F903F902F900895EF92FF920F931F93DF
:1011A000CF93DF93EC010FB6F8940F9280917C03FC
:1011B00090917D03C817D90711F0209739F4009159
:1011C0007C0310917D03C0E0D0E001C08E01E2E01D
:1011D000EE2EF12CE00EF11EC7010E94C802F801AC
:1011E00084899589009721F0C8010C960E94C80255
:1011F00080EB93E0B7010E946C028091AF038F5F98
:101200008093AF038091B9038F5F8093B9030F90F0
:101210000FBE8091AE03882321F0209711F40E9425
:10122000CA03DF91CF911F910F91FF90EF90089526
:101230000FB6F8940F92009729F4E0917C03F09197
:101240007D0301C0FC010F900FBE86890895EF92C7
:10125000FF920F931F93DF93CF930F92CDB7DEB71B
:10126000633008F062E00FB6F8940F9220917C038F
:1012700030917D038217930711F0009739F4E090C5
:101280007C03F0907D0380E090E001C07C01F701D9
:101290003689361709F441C0361720F421E000974B
:1012A00029F403C021E0009709F020E0F701668BE4
:1012B00043E050E0461B51095587448789E0389F39
:1012C000C00111248C579C4F4285538548175907FC
:1012D00001F587010E5F1F4FC80129830E94C802D4
:1012E000F7014689809183032981841710F4409384
:1012F000830350E0CA01F3E0880F991FFA95E1F7E4
:10130000840F951F8C579C4FB80129830E946C0253
:101310002981213011F40E94CA030F900FBE0F9053
:10132000CF91DF911F910F91FF90EF900895AF92B1
:10133000BF92CF92DF92EF92FF920F9383E09BE0F8
:1013400060EE70E045E550E020E030E000E0EE24A3
:10135000FF24CC24DD24AA24BB240E94C5078130AD
:1013600049F4F8948093AE031092810310928003A5
:101370000E9494030F91FF90EF90DF90CF90BF9069
:10138000AF900895F8941092AE030E94C903089597
:10139000809182038F5F8093820308950FB6F89443
:1013A0000F9220918003309181030F900FBEC901ED
:1013B00008952091800330918103C901089580919F
:1013C000AD0308950F931F93CF93DF938091820312
:1013D000882309F08FC0809180039091810301964A
:1013E0009093810380938003809180039091810387
:1013F000009779F58091AA039091AB032091A803FF
:101400003091A9033093AB032093AA039093A903CF
:101410008093A80380917F038F5F80937F03E09187
:10142000AA03F091AB038081882319F48FEF9FEF1B
:101430000CC0E091AA03F091AB030580F681E02D8A
:101440000680F781E02D828193819093E60080935E
:10145000E50020918003309181038091E500909117
:10146000E6002817390708F44AC0E091AA03F09172
:10147000AB038081882319F48FEF9FEF12C0E091B6
:10148000AA03F091AB030580F681E02DC681D781D8
:101490008A819B812091800330918103281739072D
:1014A00028F49093E6008093E50029C08E010E5F3A
:1014B0001F4FC8010E94C8028C899D89009721F0A6
:1014C000CE010C960E94C8022E8980918303821758
:1014D00010F42093830330E0C901A3E0880F991F23
:1014E000AA95E1F7820F931F8C579C4FB8010E9479
:1014F0006C02BBCF8091AC038F5F8093AC03DF9114
:10150000CF911F910F910895EF92FF920F931F9328
:10151000DF93CF930F92CDB7DEB70FB6F8940F924B
:10152000809182038150809382038091820388237B
:1015300009F05EC08091AD03882309F459C0198277
:1015400035C0E091A403F091A503E680F780C701C0
:101550000C960E94C80287010E5F1F4FC8010E94AF
:10156000C802D70156962C91569780918303821713
:1015700010F42093830330E0C901B3E0880F991F72
:10158000BA95E1F7820F931F8C579C4FB8010E94C8
:101590006C02E0917C03F0917D03D70156969C91FB
:1015A00056978689981710F0B1E0B98380919F0310
:1015B000882339F68091AC03882341F40CC00E9443
:1015C000E2098091AC0381508093AC038091AC031D
:1015D0008823A9F707C0E981E13021F080917E03DB
:1015E000813031F410927E030E94CA0381E001C071
:1015F00080E00F900FBE0F90CF91DF911F910F9160
:10160000FF90EF9008951F93CF93DF938091AF03E6
:101610008823E1F30E94C8091091B0030E94840A54
:101620001123A1F30FB6F8940F92E091B503F09156
:10163000B603C681D781CE0102960E94C80280916E
:10164000AD0381508093AD038091AF0381508093AF
:10165000AF030F900FBE8F89988D0E944A02CE0172
:101660000E944A02D3CF0F931F93CF93DF93EC01D5
:101670000097B1F00E94C809009180031091810386
:1016800080917C0390917D0302960E94C802CE0156
:10169000800F911F0E948E070E94840A882311F4F4
:1016A0000E94CA03DF91CF911F910F9108958091FD
:1016B0008203882349F081E080937E03089580911E
:1016C00083038150809383038091830390E0FC0126
:1016D00053E0EE0FFF1F5A95E1F7E80FF91FEC57A3
:1016E000FC4F8081882359F38091830390E09C0113
:1016F00043E0220F331F4A95E1F7280F391FF90104
:10170000EC57FC4FA181B28112960D90BC91A02D97
:10171000B283A18329573C4FA217B30731F4129625
:101720002D913C91139732832183FC0123E0EE0F2E
:10173000FF1F2A95E1F7E80FF91FEC57FC4F0180D6
:10174000F281E02D8681978190937D0380937C03C5
:101750000895CF93DF93EB0160917C0370917D033B
:10176000645F7F4F0E94910280917C0390917D0382
:1017700002960E94C80280918003909181038C0F91
:101780009D1F0E948E07DF91CF9108950F931F93A5
:10179000CF93DF93DC011596ED91FC911697C681EE
:1017A000D7818E01045F1F4FC8010E94C80280913B
:1017B00082038823C9F48E010E5F1F4FC8010E9467
:1017C000C8022E8980918303821710F4209383032B
:1017D00030E0C90163E0880F991F6A95E1F7820F35
:1017E000931F8C579C4F02C08FE993E0B8010E9471
:1017F0006C02E0917C03F0917D0381E02E89968953
:10180000291708F480E0DF91CF911F910F9108957F
:10181000FC0180917F0380838091800390918103FC
:10182000928381830895FC01DB010FB6F8940F9237
:1018300090917F038081981749F020918003309127
:101840008103818192812817390720F52091800337
:1018500030918103818192814D915C911197281B78
:10186000390B24173507B0F42091800330918103A0
:10187000821B930B840F951F11969C938E938091DE
:101880007F03808380918003909181039283818381
:1018900080E001C081E00F900FBE089581E0809349
:1018A0007E03089510BC83E389B980B58E6080BD46
:1018B0008AB188618AB908955D9BFECF8CB908957D
:1018C0005F9BFECF8CB108951F93CF93DF93EC0104
:1018D00010E003C00E945C0C1F5FFE01E10FF11DD0
:1018E00080818823B9F7DF91CF911F910895FB0183
:1018F000DC0102C001900D9241505040D8F708958C
:10190000DC0101C06D9341505040E0F70895FB01A8
:10191000DC014150504048F001900D920020C9F781
:1019200001C01D9241505040E0F70895F894FFCF58
:101930005461736B20312069732072756E6E696E0D
:1019400067200D0A0041626F757420746F20726108
:1019500069736520746865205461736B2032207050
:1019600072696F726974790D0A005461736B203269
:101970002069732072756E6E696E67200D0A0041D2
:10198000626F757420746F206C6F77657220746855
:1019900065205461736B2032207072696F726974B4
:1019A000790D0A005461736B31005461736B32001E
:0819B00049444C4500FFFF0013
:00000001FF
