:100000000C942A000C9447000C9447000C94470071
:100010000C9447000C9447000C9447000C94A304E4
:100020000C9447000C9447000C9447000C94470034
:100030000C9447000C9447000C9447000C94470024
:100040000C9447000C9447000C9447000C94470014
:100050000C94470011241FBECFE5D8E0DEBFCDBF12
:1000600010E0A0E6B0E0EAE7F9E102C005900D92E9
:10007000AA3CB107D9F713E0AAECB0E001C01D9289
:10008000A13BB107E1F70E9437030C94BB0C0C9421
:100090000000AF92BF92CF92DF92EF92FF920F9348
:1000A0001F93CF93DF936C01B62EA42E8AE190E0CC
:1000B0000E942102E82EE7017E01F92EE701209738
:1000C00009F45EC08091CA009091CB00009721F5A1
:1000D000F092CB00E092CA0086ED90E00E945A02B6
:1000E0008FED90E00E945A0252EFE52E50E0F52E7F
:1000F000C7010E945A020BEF10E0C8010E945A0289
:100100008CEC90E00E945A02F092EF00E092EE0038
:100110001093F1000093F000BB2011F0BB24B394C6
:10012000198E188EBE8AAF8AFE01C192D1928F01BC
:10013000CF010E946802CE010C960E946802D98706
:10014000C887DB8BCA8B83E090E08B1991099D8770
:100150008C872E898091D500821710F42093D500CA
:1001600030E0C90143E0880F991F4A95E1F7820FFB
:10017000931F8A529F4FB8010E946C0281E001C018
:100180008FEFDF91CF911F910F91FF90EF90DF9054
:10019000CF90BF90AF9008950F931F93CF93DF93AD
:1001A000EB010091EC001091ED00080F191F8091F8
:1001B000CA009091CB0002960E94C8026091CA00CA
:1001C0007091CB00FB01138302838091EC0090912E
:1001D000ED006E5F7F4F0817190728F48091F0003B
:1001E0009091F10004C08091EE009091EF000E9488
:1001F0009102209749F06091CA007091CB00645F32
:100200007F4FCE010E949102DF91CF911F910F91FC
:1002100008950F931F93CF93DF9327C0F894E09135
:10022000D100F091D200C681D781CE010C960E94F8
:10023000C80278948E010E5F1F4FC8010E94C80249
:100240002E898091D500821710F42093D50030E0DC
:10025000C901F3E0880F991FFA95E1F7820F931F08
:100260008A529F4FB8010E946C028091CC00882373
:10027000A9F60E94F3092091E8003091E900821B61
:10028000930B9093EB008093EA0059C001969093F2
:10029000ED008093EC00215030403093EB00209330
:1002A000EA00009709F044C08091EE009091EF00C1
:1002B0002091F0003091F1003093EF002093EE0098
:1002C0009093F1008093F00033C00580F681E02D1B
:1002D000C681D7812091EC003091ED008A819B810D
:1002E0002817390760F1F8948E010E5F1F4FC8017F
:1002F0000E94C8028C899D89009721F0CE010C963E
:100300000E94C80278942E898091D500821710F43B
:100310002093D50030E0C901E3E0880F991FEA95EA
:10032000E1F7820F931F8A529F4FB8010E946C021F
:10033000E091EE00F091EF008081882331F620916A
:10034000EA003091EB008091EC009091ED002115D6
:10035000310509F09BCF9093E9008093E80040912C
:10036000D50006C0442319F41092D50040C0415076
:10037000842F90E09C0173E0220F331F7A95E1F700
:10038000280F391FF901EA52FF4F5081552351F3CD
:100390004093D500A181B28112960D90BC91A02D01
:1003A000B283A18327523F4FA217B30731F41296AD
:1003B0002D913C91139732832183FC0163E0EE0F72
:1003C000FF1F6A95E1F7E80FF91FEA52FF4F01801E
:1003D000F281E02DA681B781B093CB00A093CA0033
:1003E000ED91FC911197CD0157966C910995DF9194
:1003F000CF911F910F9108950F931F93CF93DF9388
:10040000DC011596ED91FC911697C681D7818E017E
:10041000045F1F4FC8010E94C8028CEC90E0B80135
:100420000E946C02E091CA00F091CB0081E02E891D
:100430009689291708F480E0DF91CF911F910F91E1
:100440000895EF92FF920F931F93CF93DF938C0148
:100450000E94ED09C0910401D09105010C0F1D1FF0
:1004600022E00835120750F4C017D10738F4CA5FEC
:10047000DE4F109305010093040102C0C0E0D0E0FC
:100480000E94A90ACE01DF91CF911F910F91FF9099
:10049000EF900895089510920501109204010895B7
:1004A00028E532E08091040190910501281B390B69
:1004B000C9010895FC010396928381832FEF3FEFDA
:1004C000348323839683858390878783108208955E
:1004D000FC01118610860895CF93DF93FC01DB01A8
:1004E00021813281E9018A819B8113969C938E93AD
:1004F000129715963C932E9314978A819B81EC0159
:100500007D836C83E9017B836A837283618319969F
:10051000FC93EE93189780818F5F8083DF91CF915A
:100520000895CF93DF93AC01EB01888199812FEF80
:100530008F3F920721F4FA01A781B08511C0DA013B
:10054000139604C012960D90BC91A02D12962D9179
:100550003C911397F901208131818217930790F71D
:1005600012968D919C9113979B838A83FC01D5836E
:10057000C483BD83AC831396DC93CE9312975987C3
:100580004887FA0180818F5F8083DF91CF91089542
:10059000CF93DF93FC01A281B3818481958115966D
:1005A0009C938E931497C481D581BB83AA83A08525
:1005B000B18511968D919C9112978E179F0721F40A
:1005C0001296DC93CE931197118610868C918150F0
:1005D0008C93DF91CF9108950F931F93DF93CF9367
:1005E00000D0CDB7DEB79A8389830E94770C8E0145
:1005F0000F5F1F4F8091AF039091B003B80144E6A5
:1006000050E020E00E948306813039F480E690E0DB
:100610000E94890C89819A8102C080E790E00E9443
:10062000890C84E690E00E94580BE4CF0F931F934F
:10063000DF93CF9300D0CDB7DEB79A8389830E9432
:10064000770C8E010F5F1F4F8091AF039091B00325
:10065000B80140E050E020E00E944605813021F4DE
:1006600086E990E00E94890C0E94EF03EDCFAF92E3
:10067000BF92CF92DF92EF92FF920F9385E061E0FD
:100680000E94E6049093B0038093AF0386E193E069
:1006900061EA70E045E550E029EA30E001E0EE244F
:1006A000FF24CC24DD24AA24BB240E94EA0786E18F
:1006B00093E06DEA70E045E550E025EB30E00E9404
:1006C000EA078CEE92E069EB70E045E550E020E04F
:1006D00030E002E00E94EA070E94BC09FFCF21E15E
:1006E000FC01208392E2929383E38293629372935C
:1006F000129280E88293129282E0829383E0829346
:1007000084E0829385E0829386E0829387E08293FF
:1007100088E0829389E0829380E18293229382E150
:10072000829383E1829384E1829385E1829386E1DF
:10073000829387E1829388E1829389E1829380E2C8
:10074000829381E28293929383E2829342935293C3
:1007500086E2829387E2829388E2829389E282939F
:1007600080E3829381E382939F0121503040C9014D
:1007700008951BBC8CE78ABD8BE08EBD89B7806174
:1007800089BFA0915E03B0915F03CD91CDBFDD9194
:10079000DEBFFF91EF91DF91CF91BF91AF919F911C
:1007A0008F917F916F915F914F913F912F911F9109
:1007B0000F91FF90EF90DF90CF90BF90AF909F9000
:1007C0008F907F906F905F904F903F902F901F90F1
:1007D0000F900FBE0F90089581E0089508950F9235
:1007E0000FB6F8940F921F9211242F923F924F92BE
:1007F0005F926F927F928F929F92AF92BF92CF92B1
:10080000DF92EF92FF920F931F932F933F934F939B
:100810005F936F937F938F939F93AF93BF93CF9388
:10082000DF93EF93FF93A0915E03B0915F030DB64A
:100830000D920EB60D920E947C0BA0915E03B091BA
:100840005F03CD91CDBFDD91DEBFFF91EF91DF91D1
:10085000CF91BF91AF919F918F917F916F915F9158
:100860004F913F912F911F910F91FF90EF90DF904B
:10087000CF90BF90AF909F908F907F906F905F9040
:100880004F903F902F901F900F900FBE0F900895A4
:100890000F920FB6F8940F921F9211242F923F924D
:1008A0004F925F926F927F928F929F92AF92BF9280
:1008B000CF92DF92EF92FF920F931F932F933F936C
:1008C0004F935F936F937F938F939F93AF93BF9358
:1008D000CF93DF93EF93FF93A0915E03B0915F03FB
:1008E0000DB60D920EB60D920E94070A0E947C0B67
:1008F000A0915E03B0915F03CD91CDBFDD91DEBFCE
:10090000FF91EF91DF91CF91BF91AF919F918F9127
:100910007F916F915F914F913F912F911F910F9117
:10092000FF90EF90DF90CF90BF90AF909F908F900F
:100930007F906F905F904F903F902F901F900F90FF
:100940000FBE0F9008950E94480418950F931F93AF
:10095000CF93DF93EC010FB6F8940F928C010F5EEA
:100960001F4F0DC08989882369F0C8010E94EB0BD5
:10097000882311F00E94730C8E8D81508E8F8E8D86
:10098000181684F38FEF8E8F0F900FBE0FB6F8946A
:100990000F928E01085F1F4F0DC08885882369F074
:1009A000C8010E94EB0B882311F00E94730C8D8DFF
:1009B00081508D8F8D8D181684F38FEF8D8F0F9052
:1009C0000FBEDF91CF911F910F910895AF92BF920B
:1009D000CF92DF92EF92FF920F931F93CF93DF930B
:1009E000B82EA62E882309F443C08FE190E00E9420
:1009F0002102E82EE7017E01F92EE7012097C1F1DF
:100A00000B2D10E0CA2CDD24C09E7001C19EF00C9D
:100A1000D09EF00C1124C70101960E9421029983F7
:100A20008883009711F1E80EF91EFB82EA821A8E84
:100A30009D838C83015010400C9DA0010D9D500D95
:100A40001C9D500D1124480F591F5F834E83BB8E90
:100A5000AC8E8FEF8D8F8E8FCE0108960E945A023A
:100A6000CE0141960E945A0205C0CE010E944A0260
:100A7000C0E0D0E0CE01DF91CF911F910F91FF90A8
:100A8000EF90DF90CF90BF90AF9008957F928F92BC
:100A90009F92AF92BF92CF92DF92EF92FF920F930D
:100AA0001F93DF93CF9300D000D00F92CDB7DEB766
:100AB0008C016B015D834C83722E20E07E010894D3
:100AC000E11CF11C94E0A92EB12CAC0EBD1E88E0F7
:100AD000882E912C800E911E01C021E00FB6F89453
:100AE0000F92F801928D838D981708F04EC0448DB7
:100AF0004423C1F17720C1F484819581B60150E08F
:100B00000E949C0CF801248D84819581820F911D97
:100B100095838483228133818217930718F1808122
:100B20009181958384831EC0F80186819781B601E7
:100B300050E00E949C0CF801248D30E03095219506
:100B40003F4F86819781820F931F978386834081D1
:100B500051818417950730F482819381820F931F0E
:100B600097838683F801828D8F5F828F81898823A6
:100B700041F0C80141960E94EB0B813011F40E94B4
:100B8000EF030F900FBE81E04CC08C819D810097D8
:100B900019F40F900FBE44C0222319F4C7010E941C
:100BA0002D0C0F900FBE0E94ED090FB6F8940F9216
:100BB000F801858D8F3F09F4158EF801868D8F3FE2
:100BC00009F4168E0F900FBEC701B5010E94380CB4
:100BD000882309F50FB6F8940F92F801928D0F90C3
:100BE0000FBEF801838D981781F46C817D81C4015B
:100BF0000E94CE0BC8010E94A6040E94A90A882365
:100C000009F06BCF0E94EF0368CFC8010E94A604D1
:100C10000E94A90A62CFC8010E94A6040E94A90AE4
:100C200080E00F900F900F900F900F90CF91DF9179
:100C30001F910F91FF90EF90DF90CF90BF90AF90FA
:100C40009F908F907F9008950F931F93CF93DF9382
:100C5000EC018A019A8D8B8D981708F04CC04C8D51
:100C6000442399F12223B1F48C819D8150E00E94AC
:100C70009C0C2C8D8C819D81820F911D9D838C837A
:100C80002A813B818217930700F1888199819D8396
:100C90008C831BC08E819F8150E00E949C0C2C8D08
:100CA00030E0309521953F4F8E819F81820F931FB9
:100CB0009F838E83488159818417950730F48A81F8
:100CC0009B81820F931F9F838E838A8D8F5F8A8F74
:100CD0008E8D8F3F69F48989882379F0CE01419602
:100CE0000E94EB0B882349F081E0F801808306C065
:100CF0008F5F8E8F02C080E001C081E0DF91CF91D5
:100D00001F910F9108957F928F929F92AF92BF9201
:100D1000CF92DF92EF92FF920F931F93DF93CF93C7
:100D200000D000D00F92CDB7DEB78C01862E772E83
:100D30005D834C83922E20E07E010894E11CF11C1F
:100D400044E0C42ED12CCC0EDD1E31E1A32EB12CFB
:100D5000A80EB91E01C021E00FB6F8940F92F80159
:100D6000828D882309F43DC0E680F78080819181DF
:100D70000097A9F0448D9701240F311D37832683F6
:100D8000628173812617370710F097838683F801F5
:100D900066817781882D972D50E00E949C0C9920C8
:100DA00071F4F801828D8150828F80858823A9F0AB
:100DB000C80108960E94EB0B813079F40CC0F80151
:100DC000F782E6828189882341F0C80141960E941A
:100DD000EB0B882311F00E94EF030F900FBE81E010
:100DE0004AC08C819D81009719F40F900FBE42C0BC
:100DF000222319F4C7010E942D0C0F900FBE0E94F0
:100E0000ED090FB6F8940F92F801858D8F3F09F424
:100E1000158EF801868D8F3F09F4168E0F900FBE48
:100E2000C701B6010E94380C8823F9F40FB6F89474
:100E30000F92F801828D0F900FBE882381F46C8190
:100E40007D81C5010E94CE0BC8010E94A6040E94AC
:100E5000A90A882309F07FCF0E94EF037CCFC80145
:100E60000E94A6040E94A90A76CFC8010E94A60487
:100E70000E94A90A80E00F900F900F900F900F90A2
:100E8000CF91DF911F910F91FF90EF90DF90CF9066
:100E9000BF90AF909F908F907F9008950F931F9376
:100EA000CF93DF93EC01CB018A012A8D222371F1CC
:100EB000E881F9813097A1F04C8D2E813F81240F7C
:100EC000311D3F832E83AA81BB812A173B0710F077
:100ED000FF83EE836E812F81722F50E00E949C0C65
:100EE0008A8D81508A8F8D8D8F3F69F48885882304
:100EF00079F0CE0108960E94EB0B882349F081E03F
:100F0000F801808306C08F5F8D8F02C080E001C032
:100F100081E0DF91CF911F910F9108950FB6F89462
:100F20000F92FC01828D0F900FBE0895FC01828DFF
:100F30000895CF93DF93EC01888199810E944A0242
:100F4000CE010E944A02DF91CF910895FC01928D5B
:100F500081E0911180E00895FC01228D81E0938D64
:100F6000291380E00895CF93DF93EC01E0915E03B5
:100F7000F0915F0393838283809162039091630376
:100F8000C817D90768F480918A0390918B03609108
:100F90005E0370915F036E5F7F4F0E94910217C0E6
:100FA00080918C0390918D0360915E0370915F033B
:100FB0006E5F7F4F0E9491028091C7009091C800A0
:100FC000C817D90720F4D093C800C093C700DF9199
:100FD000CF9108952F923F924F925F926F927F929E
:100FE0008F929F92AF92BF92CF92DF92EF92FF9239
:100FF0000F931F93CF93DF931C013B015A012901EB
:10100000470181E290E00E942102E82EE7017E0183
:10101000F92EE701209709F4CEC0C114D10429F4B8
:10102000C5010E942102C82ED92ED88ECF8AC114A4
:10103000D10421F4CE010E944A02BDC0C60165EA76
:1010400070E0A5010E94A50C0894A108B108EF88E2
:10105000F88CEA0CFB1CCE014996B30148E050E045
:101060000E94AC0C18A2102F033008F012E01E8B67
:1010700072E0A72EB12CAC0EBD1EC5010E94680205
:10108000CE010C960E946802D987C88783E090E061
:10109000811B91099D878C87DB8BCA8BC701B101AE
:1010A000A2010E946F03998388838114910419F02F
:1010B000F401D183C0830FB6F8940F9280918F030F
:1010C0008F5F80938F0380915E0390915F03009701
:1010D00099F5D0935F03C0935E0380918F038130B5
:1010E000D1F586E693E00E945A028FE693E00E94D3
:1010F0005A0288E793E00E945A026DE9E62E63E007
:10110000F62EC7010E945A0256EAC52E53E0D52E8C
:10111000C6010E945A0281E893E00E945A0282E9C5
:1011200093E00E945A02F0928D03E0928C03D092D9
:101130008B03C0928A030FC080919003882359F4D7
:10114000E0915E03F0915F038689081720F0D09349
:101150005F03C0935E032E8980919C03821710F475
:1011600020939C0380919B038F5F80939B038091CE
:101170006503821710F42093650330E0C90143E052
:10118000880F991F4A95E1F7820F931F8A599C4F48
:10119000B5010E946C020F900FBE809190038823CE
:1011A00061F0E0915E03F0915F038689801728F477
:1011B0000E94EF0302C08FEF01C081E0DF91CF9169
:1011C0001F910F91FF90EF90DF90CF90BF90AF9065
:1011D0009F908F907F906F905F904F903F902F9057
:1011E0000895EF92FF920F931F93CF93DF93EC013B
:1011F0000FB6F8940F9280915E0390915F03C81729
:10120000D90711F0209739F400915E0310915F0324
:10121000C0E0D0E001C08E01E2E0EE2EF12CE00E45
:10122000F11EC7010E94C802F801848995890097C0
:1012300021F0C8010C960E94C80282E993E0B70130
:101240000E946C02809191038F5F80939103809143
:101250009B038F5F80939B030F900FBE8091900341
:10126000882321F0209711F40E94EF03DF91CF91A2
:101270001F910F91FF90EF9008950FB6F8940F9281
:10128000009729F4E0915E03F0915F0301C0FC0137
:101290000F900FBE86890895EF92FF920F931F93D0
:1012A000DF93CF930F92CDB7DEB7633008F062E0E3
:1012B0000FB6F8940F9220915E0330915F0382176E
:1012C000930711F0009739F4E0905E03F0905F030C
:1012D00080E090E001C07C01F7013689361709F4FF
:1012E00041C0361720F421E0009729F403C021E023
:1012F000009709F020E0F701668B43E050E0461BC1
:1013000051095587448789E0389FC00111248A59C3
:101310009C4F428553854817590701F587010E5F99
:101320001F4FC80129830E94C802F7014689809196
:1013300065032981841710F44093650350E0CA01C6
:10134000F3E0880F991FFA95E1F7840F951F8A59EA
:101350009C4FB80129830E946C022981213011F42D
:101360000E94EF030F900FBE0F90CF91DF911F915E
:101370000F91FF90EF900895AF92BF92CF92DF92BE
:10138000EF92FF920F9388E29BE062EC70E045E5FC
:1013900050E020E030E000E0EE24FF24CC24DD2407
:1013A000AA24BB240E94EA07813049F4F894809370
:1013B000900310926303109262030E94B9030F918D
:1013C000FF90EF90DF90CF90BF90AF900895F8948A
:1013D000109290030E94EE030895809164038F5F42
:1013E0008093640308950FB6F8940F9220916203DE
:1013F000309163030F900FBEC901089520916203DD
:1014000030916303C901089580918F0308950F936C
:101410001F93CF93DF9380916403882309F08FC0DB
:10142000809162039091630301969093630380938C
:1014300062038091620390916303009779F5809134
:101440008C0390918D0320918A0330918B0330930C
:101450008D0320938C0390938B0380938A03809158
:1014600061038F5F80936103E0918C03F0918D03A2
:101470008081882319F48FEF9FEF0CC0E0918C03DB
:10148000F0918D030580F681E02D0680F781E02D37
:10149000828193819093C8008093C700209162035A
:1014A000309163038091C7009091C80028173907D5
:1014B00008F44AC0E0918C03F0918D038081882369
:1014C00019F48FEF9FEF12C0E0918C03F0918D0320
:1014D0000580F681E02DC681D7818A819B8120918C
:1014E0006203309163032817390728F49093C800EA
:1014F0008093C70029C08E010E5F1F4FC8010E9454
:10150000C8028C899D89009721F0CE010C960E941B
:10151000C8022E8980916503821710F42093650319
:1015200030E0C901A3E0880F991FAA95E1F7820F67
:10153000931F8A599C4FB8010E946C02BBCF8091C7
:101540008E038F5F80938E03DF91CF911F910F9158
:101550000895EF92FF920F931F93DF93CF930F9213
:10156000CDB7DEB70FB6F8940F9280916403815027
:101570008093640380916403882309F05EC08091A6
:101580008F03882309F459C0198235C0E09186037E
:10159000F0918703E680F780C7010C960E94C8028D
:1015A00087010E5F1F4FC8010E94C802D7015696DF
:1015B0002C91569780916503821710F42093650350
:1015C00030E0C901B3E0880F991FBA95E1F7820FA7
:1015D000931F8A599C4FB8010E946C02E0915E03F0
:1015E000F0915F03D70156969C915697868998177C
:1015F00010F0B1E0B98380918103882339F680919E
:101600008E03882341F40CC00E94070A80918E0348
:10161000815080938E0380918E038823A9F707C0A1
:10162000E981E13021F080916003813031F4109242
:1016300060030E94EF0381E001C080E00F900FBEC5
:101640000F90CF91DF911F910F91FF90EF90089530
:101650001F93CF93DF93809191038823E1F30E943E
:10166000ED09109192030E94A90A1123A1F30FB66C
:10167000F8940F92E0919703F0919803C681D78177
:10168000CE0102960E94C80280918F038150809300
:101690008F03809191038150809391030F900FBE2F
:1016A0008F89988D0E944A02CE010E944A02D3CFB0
:1016B0000F931F93CF93DF93EC010097B1F00E943B
:1016C000ED09009162031091630380915E03909194
:1016D0005F0302960E94C802CE01800F911F0E94F4
:1016E000B3070E94A90A882311F40E94EF03DF9137
:1016F000CF911F910F91089580916403882349F041
:1017000081E0809360030895809165038150809308
:1017100065038091650390E0FC0153E0EE0FFF1F2D
:101720005A95E1F7E80FF91FEA59FC4F80818823A9
:1017300059F38091650390E09C0143E0220F331F31
:101740004A95E1F7280F391FF901EA59FC4FA181A9
:10175000B28112960D90BC91A02DB283A18327591E
:101760003C4FA217B30731F412962D913C91139779
:1017700032832183FC0123E0EE0FFF1F2A95E1F75E
:10178000E80FF91FEA59FC4F0180F281E02D8681B4
:10179000978190935F0380935E030895CF93DF93C7
:1017A000EB0160915E0370915F03645F7F4F0E9465
:1017B000910280915E0390915F0302960E94C8029D
:1017C00080916203909163038C0F9D1F0E94B30769
:1017D000DF91CF9108950F931F93CF93DF93DC0197
:1017E0001596ED91FC911697C681D7818E01045F05
:1017F0001F4FC8010E94C802809164038823C9F466
:101800008E010E5F1F4FC8010E94C8022E89809171
:101810006503821710F42093650330E0C90163E08B
:10182000880F991F6A95E1F7820F931F8A599C4F81
:1018300002C081E893E0B8010E946C02E0915E036F
:10184000F0915F0381E02E899689291708F480E0E2
:10185000DF91CF911F910F910895FC018091610359
:1018600080838091620390916303928381830895C2
:10187000FC01DB010FB6F8940F9290916103808117
:10188000981749F02091620330916303818192811E
:101890002817390720F52091620330916303818175
:1018A00092814D915C911197281B390B24173507B4
:1018B000B0F42091620330916303821B930B840F79
:1018C000951F11969C938E938091610380838091E4
:1018D0006203909163039283818380E001C081E081
:1018E0000F900FBE089581E080936003089510BCAF
:1018F00083E389B980B58E6080BD8AB188618AB979
:1019000008955D9BFECF8CB908955F9BFECF8CB18F
:1019100008951F93CF93DF93EC0110E003C00E9462
:10192000810C1F5FFE01E10FF11D80818823B9F753
:10193000DF91CF911F910895FB01DC0102C001905E
:101940000D9241505040D8F70895DC0101C06D93CD
:1019500041505040E0F70895FB01DC0141505040F8
:1019600048F001900D920020C9F701C01D9241502E
:0A1970005040E0F70895F894FFCF0F
:10197A000D0A5265636569766564203D200D0A008B
:10198A000D0A436F756C64206E6F7420726563650F
:10199A006976652066726F6D207468652071756559
:1019AA0075652E0D0A000D0A7375636365640D0A69
:1019BA000073656E64657231003130300073656E94
:1019CA00646572320032303000726563656976652B
:0A19DA00720049444C4500FFFF0075
:00000001FF
